{
  "contractName": "gettingKeyValues",
  "abi": [
    {
      "constant": true,
      "inputs": [],
      "name": "eth_reserve",
      "outputs": [
        {
          "internalType": "uint256",
          "name": "",
          "type": "uint256"
        }
      ],
      "payable": false,
      "stateMutability": "view",
      "type": "function"
    },
    {
      "constant": true,
      "inputs": [],
      "name": "total_liquidity",
      "outputs": [
        {
          "internalType": "uint256",
          "name": "",
          "type": "uint256"
        }
      ],
      "payable": false,
      "stateMutability": "view",
      "type": "function"
    },
    {
      "constant": true,
      "inputs": [],
      "name": "NEW_DAI_TOKEN_ADDRESS",
      "outputs": [
        {
          "internalType": "contract IERC20",
          "name": "",
          "type": "address"
        }
      ],
      "payable": false,
      "stateMutability": "view",
      "type": "function"
    },
    {
      "constant": true,
      "inputs": [],
      "name": "liquidity_minted",
      "outputs": [
        {
          "internalType": "uint256",
          "name": "",
          "type": "uint256"
        }
      ],
      "payable": false,
      "stateMutability": "view",
      "type": "function"
    },
    {
      "constant": true,
      "inputs": [],
      "name": "max_tokens",
      "outputs": [
        {
          "internalType": "uint256",
          "name": "",
          "type": "uint256"
        }
      ],
      "payable": false,
      "stateMutability": "view",
      "type": "function"
    },
    {
      "constant": true,
      "inputs": [],
      "name": "token_amount",
      "outputs": [
        {
          "internalType": "uint256",
          "name": "",
          "type": "uint256"
        }
      ],
      "payable": false,
      "stateMutability": "view",
      "type": "function"
    },
    {
      "constant": true,
      "inputs": [],
      "name": "contractBalance",
      "outputs": [
        {
          "internalType": "uint256",
          "name": "",
          "type": "uint256"
        }
      ],
      "payable": false,
      "stateMutability": "view",
      "type": "function"
    },
    {
      "constant": true,
      "inputs": [],
      "name": "liquidity_minted_num",
      "outputs": [
        {
          "internalType": "uint256",
          "name": "",
          "type": "uint256"
        }
      ],
      "payable": false,
      "stateMutability": "view",
      "type": "function"
    },
    {
      "constant": true,
      "inputs": [],
      "name": "token_reserve",
      "outputs": [
        {
          "internalType": "uint256",
          "name": "",
          "type": "uint256"
        }
      ],
      "payable": false,
      "stateMutability": "view",
      "type": "function"
    },
    {
      "constant": true,
      "inputs": [],
      "name": "min_liquidity",
      "outputs": [
        {
          "internalType": "uint256",
          "name": "",
          "type": "uint256"
        }
      ],
      "payable": false,
      "stateMutability": "view",
      "type": "function"
    },
    {
      "constant": false,
      "inputs": [
        {
          "internalType": "uint256",
          "name": "value",
          "type": "uint256"
        }
      ],
      "name": "getKeyInfo",
      "outputs": [
        {
          "internalType": "bool",
          "name": "",
          "type": "bool"
        }
      ],
      "payable": false,
      "stateMutability": "nonpayable",
      "type": "function"
    }
  ],
  "bytecode": "0x6080604052732a1530c4c41db0b0b2bb646cb5eb1a67b71586676000806101000a81548173ffffffffffffffffffffffffffffffffffffffff021916908373ffffffffffffffffffffffffffffffffffffffff160217905550732a1530c4c41db0b0b2bb646cb5eb1a67b7158667600160006101000a81548173ffffffffffffffffffffffffffffffffffffffff021916908373ffffffffffffffffffffffffffffffffffffffff160217905550736b175474e89094c44da98b954eedeac495271d0f600260006101000a81548173ffffffffffffffffffffffffffffffffffffffff021916908373ffffffffffffffffffffffffffffffffffffffff16021790555034801561010e57600080fd5b506108558061011e6000396000f3fe608060405234801561001057600080fd5b50600436106100c6576000357c01000000000000000000000000000000000000000000000000000000009004806354f6c0db1161008e57806354f6c0db1461018d5780636294f462146101ab5780638b7afe2e146101f1578063eeda9bfd1461020f578063f38f46ff1461022d578063fd26b7e21461024b576100c6565b80632228f2a9146100cb57806331f3bd28146100e95780634137156c146101075780634f0643131461015157806354572e091461016f575b600080fd5b6100d3610269565b6040518082815260200191505060405180910390f35b6100f161026f565b6040518082815260200191505060405180910390f35b61010f610275565b604051808273ffffffffffffffffffffffffffffffffffffffff1673ffffffffffffffffffffffffffffffffffffffff16815260200191505060405180910390f35b61015961029b565b6040518082815260200191505060405180910390f35b6101776102a1565b6040518082815260200191505060405180910390f35b6101956102a7565b6040518082815260200191505060405180910390f35b6101d7600480360360208110156101c157600080fd5b81019080803590602001909291905050506102ad565b604051808215151515815260200191505060405180910390f35b6101f9610547565b6040518082815260200191505060405180910390f35b61021761054d565b6040518082815260200191505060405180910390f35b610235610553565b6040518082815260200191505060405180910390f35b610253610559565b6040518082815260200191505060405180910390f35b60045481565b60035481565b600260009054906101000a900473ffffffffffffffffffffffffffffffffffffffff1681565b60085481565b60095481565b60065481565b60008060009054906101000a900473ffffffffffffffffffffffffffffffffffffffff1673ffffffffffffffffffffffffffffffffffffffff166318160ddd6040518163ffffffff167c010000000000000000000000000000000000000000000000000000000002815260040160206040518083038186803b15801561033257600080fd5b505afa158015610346573d6000803e3d6000fd5b505050506040513d602081101561035c57600080fd5b8101908080519060200190929190505050600381905550600160009054906101000a900473ffffffffffffffffffffffffffffffffffffffff1673ffffffffffffffffffffffffffffffffffffffff1631600b819055506103bf600b548361055f565b600481905550600260009054906101000a900473ffffffffffffffffffffffffffffffffffffffff1673ffffffffffffffffffffffffffffffffffffffff166370a08231600160009054906101000a900473ffffffffffffffffffffffffffffffffffffffff166040518263ffffffff167c0100000000000000000000000000000000000000000000000000000000028152600401808273ffffffffffffffffffffffffffffffffffffffff1673ffffffffffffffffffffffffffffffffffffffff16815260200191505060206040518083038186803b1580156104a257600080fd5b505afa1580156104b6573d6000803e3d6000fd5b505050506040513d60208110156104cc57600080fd5b810190808051906020019092919050505060058190555060016104fc6104f4846005546105a9565b60045461062f565b0160068190555061050f600354836105a9565b60078190555061052360075460045461062f565b600881905550600654600981905550600160085403600a8190555060019050919050565b600b5481565b60075481565b60055481565b600a5481565b60006105a183836040518060400160405280601e81526020017f536166654d6174683a207375627472616374696f6e206f766572666c6f770000815250610679565b905092915050565b6000808314156105bc5760009050610629565b60008284029050828482816105cd57fe5b0414610624576040517f08c379a00000000000000000000000000000000000000000000000000000000081526004018080602001828103825260218152602001806108006021913960400191505060405180910390fd5b809150505b92915050565b600061067183836040518060400160405280601a81526020017f536166654d6174683a206469766973696f6e206279207a65726f000000000000815250610739565b905092915050565b6000838311158290610726576040517f08c379a00000000000000000000000000000000000000000000000000000000081526004018080602001828103825283818151815260200191508051906020019080838360005b838110156106eb5780820151818401526020810190506106d0565b50505050905090810190601f1680156107185780820380516001836020036101000a031916815260200191505b509250505060405180910390fd5b5060008385039050809150509392505050565b600080831182906107e5576040517f08c379a00000000000000000000000000000000000000000000000000000000081526004018080602001828103825283818151815260200191508051906020019080838360005b838110156107aa57808201518184015260208101905061078f565b50505050905090810190601f1680156107d75780820380516001836020036101000a031916815260200191505b509250505060405180910390fd5b5060008385816107f157fe5b04905080915050939250505056fe536166654d6174683a206d756c7469706c69636174696f6e206f766572666c6f77a265627a7a72315820f91607f0be408fddf2d28ecb385c9ac0f5a04ee92903b97ac1c229cb08aba79d64736f6c634300050b0032",
  "source": "pragma solidity ^0.5.0;\n\nimport './OpenZepplinSafeMath.sol';\nimport './OpenZepplinIERC20.sol';\n\ninterface IuniswapExchange {\n    function totalSupply() external view returns (uint256);\n}\n\n\ncontract gettingKeyValues {\n    IuniswapExchange uniswapExchangeContract = IuniswapExchange(0x2a1530C4C41db0B0b2bB646CB5Eb1A67b7158667);\n    address uniswapExchangeContract_forBalance = address(0x2a1530C4C41db0B0b2bB646CB5Eb1A67b7158667);\n    IERC20 public NEW_DAI_TOKEN_ADDRESS = IERC20(0x6B175474E89094C44Da98b954EedeAC495271d0F);\n    uint public total_liquidity;\n    uint public eth_reserve;\n    uint public token_reserve;\n    uint public token_amount;\n    uint public liquidity_minted_num;\n    uint public liquidity_minted;\n    uint public max_tokens;\n    uint public min_liquidity;\n    uint public contractBalance;\n\n\n    function getKeyInfo(uint value) external returns(bool) {\n        total_liquidity = uniswapExchangeContract.totalSupply();\n        contractBalance = uniswapExchangeContract_forBalance.balance;\n        eth_reserve = SafeMath.sub(contractBalance, value);\n        token_reserve = NEW_DAI_TOKEN_ADDRESS.balanceOf(uniswapExchangeContract_forBalance);\n        token_amount = SafeMath.div(SafeMath.mul(value,token_reserve),eth_reserve) + 1;\n        liquidity_minted_num = SafeMath.mul(total_liquidity,value);\n        liquidity_minted = SafeMath.div(liquidity_minted_num,eth_reserve);\n        max_tokens = token_amount;\n        min_liquidity = liquidity_minted - 1;\n\n        return true;\n    }\n    \n}\n",
  "sourcePath": "/Users/dipeshsukhani/Desktop/Coding/DockerMounting/Python/allFolders/RemixSharedFolder/contracts/UniSwap_keyInfo.sol",
  "compiler": {
    "name": "solc",
    "version": "0.5.11+commit.c082d0b4.Emscripten.clang"
  },
  "schemaVersion": "3.0.1",
  "updatedAt": "2019-12-06T05:57:31.674Z",
  "devdoc": {
    "methods": {}
  },
  "userdoc": {
    "methods": {}
  }
}