{
  "contractName": "gettingKeyValues",
  "abi": [
    {
      "constant": true,
      "inputs": [
        {
          "internalType": "contract IuniswapExchange",
          "name": "_ExchangeContractAddress",
          "type": "address"
        },
        {
          "internalType": "uint256",
          "name": "value",
          "type": "uint256"
        }
      ],
      "name": "getGetMaxTokens",
      "outputs": [
        {
          "internalType": "uint256",
          "name": "",
          "type": "uint256"
        }
      ],
      "payable": false,
      "stateMutability": "view",
      "type": "function"
    }
  ],
  "bytecode": "0x608060405234801561001057600080fd5b5061057d806100206000396000f3fe608060405234801561001057600080fd5b5060043610610048576000357c010000000000000000000000000000000000000000000000000000000090048063e303cf071461004d575b600080fd5b6100996004803603604081101561006357600080fd5b81019080803573ffffffffffffffffffffffffffffffffffffffff169060200190929190803590602001909291905050506100af565b6040518082815260200191505060405180910390f35b60008083905060008173ffffffffffffffffffffffffffffffffffffffff16639d76ea586040518163ffffffff167c010000000000000000000000000000000000000000000000000000000002815260040160206040518083038186803b15801561011957600080fd5b505afa15801561012d573d6000803e3d6000fd5b505050506040513d602081101561014357600080fd5b8101908080519060200190929190505050905060008273ffffffffffffffffffffffffffffffffffffffff16319050600061017e8287610287565b905060008373ffffffffffffffffffffffffffffffffffffffff166370a08231866040518263ffffffff167c0100000000000000000000000000000000000000000000000000000000028152600401808273ffffffffffffffffffffffffffffffffffffffff1673ffffffffffffffffffffffffffffffffffffffff16815260200191505060206040518083038186803b15801561021b57600080fd5b505afa15801561022f573d6000803e3d6000fd5b505050506040513d602081101561024557600080fd5b810190808051906020019092919050505090506000600161026f6102698a856102d1565b85610357565b01905060008190508097505050505050505092915050565b60006102c983836040518060400160405280601e81526020017f536166654d6174683a207375627472616374696f6e206f766572666c6f7700008152506103a1565b905092915050565b6000808314156102e45760009050610351565b60008284029050828482816102f557fe5b041461034c576040517f08c379a00000000000000000000000000000000000000000000000000000000081526004018080602001828103825260218152602001806105286021913960400191505060405180910390fd5b809150505b92915050565b600061039983836040518060400160405280601a81526020017f536166654d6174683a206469766973696f6e206279207a65726f000000000000815250610461565b905092915050565b600083831115829061044e576040517f08c379a00000000000000000000000000000000000000000000000000000000081526004018080602001828103825283818151815260200191508051906020019080838360005b838110156104135780820151818401526020810190506103f8565b50505050905090810190601f1680156104405780820380516001836020036101000a031916815260200191505b509250505060405180910390fd5b5060008385039050809150509392505050565b6000808311829061050d576040517f08c379a00000000000000000000000000000000000000000000000000000000081526004018080602001828103825283818151815260200191508051906020019080838360005b838110156104d25780820151818401526020810190506104b7565b50505050905090810190601f1680156104ff5780820380516001836020036101000a031916815260200191505b509250505060405180910390fd5b50600083858161051957fe5b04905080915050939250505056fe536166654d6174683a206d756c7469706c69636174696f6e206f766572666c6f77a265627a7a72315820712d4d6dad0ed39a81194d95a42a6f2fd3b41fbef2733946102d24281c0f96aa64736f6c634300050b0032",
  "source": "pragma solidity ^0.5.0;\n\nimport './OpenZepplinSafeMath.sol';\nimport './OpenZepplinIERC20.sol';\n\ninterface IuniswapExchange {\n    function totalSupply() external view returns (uint256);\n    function tokenAddress() external view returns (address token);\n}\n\ncontract gettingKeyValues {\n\n    function getGetMaxTokens (IuniswapExchange _ExchangeContractAddress, uint value) external view returns(uint) {\n        IuniswapExchange uniswapExchangeContract = _ExchangeContractAddress;\n        IERC20 tokenContractAddress = IERC20(uniswapExchangeContract.tokenAddress());\n        uint contractBalance = address(uniswapExchangeContract).balance;\n        uint eth_reserve = SafeMath.sub(contractBalance, value);\n        uint token_reserve = tokenContractAddress.balanceOf(address(uniswapExchangeContract));\n        uint token_amount = SafeMath.div(SafeMath.mul(value,token_reserve),eth_reserve) + 1;\n        uint max_tokens = token_amount;\n        return max_tokens;\n    }\n}\n",
  "sourcePath": "/Users/dipeshsukhani/Desktop/Coding/DockerMounting/Python/allFolders/RemixSharedFolder/contracts/UniSwap_keyInfo_Standard.sol",
  "compiler": {
    "name": "solc",
    "version": "0.5.11+commit.c082d0b4.Emscripten.clang"
  },
  "schemaVersion": "3.0.1",
  "updatedAt": "2019-12-08T12:43:45.183Z",
  "devdoc": {
    "methods": {}
  },
  "userdoc": {
    "methods": {}
  }
}