{
  "contractName": "GiveMeBackMyETH",
  "abi": [
    {
      "constant": true,
      "inputs": [],
      "name": "totalIncoming",
      "outputs": [
        {
          "internalType": "uint256",
          "name": "",
          "type": "uint256"
        }
      ],
      "payable": false,
      "stateMutability": "view",
      "type": "function"
    },
    {
      "constant": true,
      "inputs": [],
      "name": "balance",
      "outputs": [
        {
          "internalType": "uint256",
          "name": "",
          "type": "uint256"
        }
      ],
      "payable": false,
      "stateMutability": "view",
      "type": "function"
    },
    {
      "constant": true,
      "inputs": [],
      "name": "WEC",
      "outputs": [
        {
          "internalType": "contract wrappedETH",
          "name": "",
          "type": "address"
        }
      ],
      "payable": false,
      "stateMutability": "view",
      "type": "function"
    },
    {
      "payable": true,
      "stateMutability": "payable",
      "type": "fallback"
    },
    {
      "constant": false,
      "inputs": [],
      "name": "deposit",
      "outputs": [],
      "payable": true,
      "stateMutability": "payable",
      "type": "function"
    }
  ],
  "bytecode": "0x6080604052600080553073ffffffffffffffffffffffffffffffffffffffff1631600155730a180a76e4466bf68a7f86fb029bed3cccfaaac5600260006101000a81548173ffffffffffffffffffffffffffffffffffffffff021916908373ffffffffffffffffffffffffffffffffffffffff16021790555034801561008457600080fd5b506107a5806100946000396000f3fe60806040526004361061005c576000357c0100000000000000000000000000000000000000000000000000000000900480634567949e1461036c578063b69ef8a814610397578063c4576525146103c2578063d0e30db014610419575b600260009054906101000a900473ffffffffffffffffffffffffffffffffffffffff1673ffffffffffffffffffffffffffffffffffffffff1663d0e30db0346040518263ffffffff167c01000000000000000000000000000000000000000000000000000000000281526004016000604051808303818588803b1580156100e257600080fd5b505af11580156100f6573d6000803e3d6000fd5b50505050506000600260009054906101000a900473ffffffffffffffffffffffffffffffffffffffff1673ffffffffffffffffffffffffffffffffffffffff166370a08231306040518263ffffffff167c0100000000000000000000000000000000000000000000000000000000028152600401808273ffffffffffffffffffffffffffffffffffffffff1673ffffffffffffffffffffffffffffffffffffffff168152602001915050602060405180830381600087803b1580156101ba57600080fd5b505af11580156101ce573d6000803e3d6000fd5b505050506040513d60208110156101e457600080fd5b81019080805190602001909291905050509050600260009054906101000a900473ffffffffffffffffffffffffffffffffffffffff1673ffffffffffffffffffffffffffffffffffffffff1663a9059cbb33836040518363ffffffff167c0100000000000000000000000000000000000000000000000000000000028152600401808373ffffffffffffffffffffffffffffffffffffffff1673ffffffffffffffffffffffffffffffffffffffff16815260200182815260200192505050602060405180830381600087803b1580156102bc57600080fd5b505af11580156102d0573d6000803e3d6000fd5b505050506040513d60208110156102e657600080fd5b8101908080519060200190929190505050610369576040517f08c379a00000000000000000000000000000000000000000000000000000000081526004018080602001828103825260068152602001807f6661696c6564000000000000000000000000000000000000000000000000000081525060200191505060405180910390fd5b50005b34801561037857600080fd5b50610381610423565b6040518082815260200191505060405180910390f35b3480156103a357600080fd5b506103ac610429565b6040518082815260200191505060405180910390f35b3480156103ce57600080fd5b506103d761042f565b604051808273ffffffffffffffffffffffffffffffffffffffff1673ffffffffffffffffffffffffffffffffffffffff16815260200191505060405180910390f35b610421610455565b005b60005481565b60015481565b600260009054906101000a900473ffffffffffffffffffffffffffffffffffffffff1681565b3460005401600081905550600260009054906101000a900473ffffffffffffffffffffffffffffffffffffffff1673ffffffffffffffffffffffffffffffffffffffff1663d0e30db0346040518263ffffffff167c01000000000000000000000000000000000000000000000000000000000281526004016000604051808303818588803b1580156104e657600080fd5b505af11580156104fa573d6000803e3d6000fd5b50505050506000600260009054906101000a900473ffffffffffffffffffffffffffffffffffffffff1673ffffffffffffffffffffffffffffffffffffffff166370a08231306040518263ffffffff167c0100000000000000000000000000000000000000000000000000000000028152600401808273ffffffffffffffffffffffffffffffffffffffff1673ffffffffffffffffffffffffffffffffffffffff168152602001915050602060405180830381600087803b1580156105be57600080fd5b505af11580156105d2573d6000803e3d6000fd5b505050506040513d60208110156105e857600080fd5b81019080805190602001909291905050509050600260009054906101000a900473ffffffffffffffffffffffffffffffffffffffff1673ffffffffffffffffffffffffffffffffffffffff1663a9059cbb33836040518363ffffffff167c0100000000000000000000000000000000000000000000000000000000028152600401808373ffffffffffffffffffffffffffffffffffffffff1673ffffffffffffffffffffffffffffffffffffffff16815260200182815260200192505050602060405180830381600087803b1580156106c057600080fd5b505af11580156106d4573d6000803e3d6000fd5b505050506040513d60208110156106ea57600080fd5b810190808051906020019092919050505061076d576040517f08c379a00000000000000000000000000000000000000000000000000000000081526004018080602001828103825260068152602001807f6661696c6564000000000000000000000000000000000000000000000000000081525060200191505060405180910390fd5b5056fea265627a7a72315820878478ed85bec3cc371721d84cd92b10d36a45b1d8b266c20866fbbbf99c258464736f6c634300050b0032",
  "source": "pragma solidity ^0.5.0;\n\ninterface wrappedETH{\n    function deposit() external payable;\n    function balanceOf(address) external returns(uint);\n    function transfer(address dst, uint wad) external returns (bool);\n}\n\n\ncontract GiveMeBackMyETH {\n    uint public totalIncoming = 0;\n    uint public balance = address(this).balance;\n    wrappedETH public WEC = wrappedETH(0x0a180A76e4466bF68A7F86fB029BEd3cCcFaAac5);\n\n    function deposit() public payable {\n        totalIncoming = totalIncoming + msg.value;\n        WEC.deposit.value(msg.value)();\n        uint bal = WEC.balanceOf(address(this));\n        require (WEC.transfer(msg.sender, bal), \"failed\");\n    }\n\n    function() external payable {\n        WEC.deposit.value(msg.value)();\n        uint bal = WEC.balanceOf(address(this));\n        require (WEC.transfer(msg.sender, bal), \"failed\");\n    }\n}",
  "sourcePath": "/Users/dipeshsukhani/Desktop/Coding/DockerMounting/Python/allFolders/RemixSharedFolder/contracts/TestKill-S2.sol",
  "compiler": {
    "name": "solc",
    "version": "0.5.11+commit.c082d0b4.Emscripten.clang"
  },
  "schemaVersion": "3.0.1",
  "updatedAt": "2019-12-06T10:22:27.286Z",
  "devdoc": {
    "methods": {}
  },
  "userdoc": {
    "methods": {}
  }
}