{
  "contractName": "Invest2Fulcrum_iDAI",
  "abi": [
    {
      "constant": true,
      "inputs": [],
      "name": "ETH_TOKEN_ADDRESS",
      "outputs": [
        {
          "internalType": "contract ERC20",
          "name": "",
          "type": "address"
        }
      ],
      "payable": false,
      "stateMutability": "view",
      "type": "function"
    },
    {
      "constant": true,
      "inputs": [],
      "name": "kyberNetworkProxyContract",
      "outputs": [
        {
          "internalType": "contract IKyberNetworkProxy",
          "name": "",
          "type": "address"
        }
      ],
      "payable": false,
      "stateMutability": "view",
      "type": "function"
    },
    {
      "constant": true,
      "inputs": [],
      "name": "fulcrumInterfaceContract",
      "outputs": [
        {
          "internalType": "contract fulcrumInterface",
          "name": "",
          "type": "address"
        }
      ],
      "payable": false,
      "stateMutability": "view",
      "type": "function"
    },
    {
      "constant": true,
      "inputs": [],
      "name": "DAI_TOKEN_ADDRESS",
      "outputs": [
        {
          "internalType": "contract ERC20",
          "name": "",
          "type": "address"
        }
      ],
      "payable": false,
      "stateMutability": "view",
      "type": "function"
    },
    {
      "constant": true,
      "inputs": [],
      "name": "owner",
      "outputs": [
        {
          "internalType": "address payable",
          "name": "",
          "type": "address"
        }
      ],
      "payable": false,
      "stateMutability": "view",
      "type": "function"
    },
    {
      "constant": true,
      "inputs": [],
      "name": "balance",
      "outputs": [
        {
          "internalType": "uint256",
          "name": "",
          "type": "uint256"
        }
      ],
      "payable": false,
      "stateMutability": "view",
      "type": "function"
    },
    {
      "constant": false,
      "inputs": [
        {
          "internalType": "address payable",
          "name": "newOwner",
          "type": "address"
        }
      ],
      "name": "transferOwnership",
      "outputs": [],
      "payable": false,
      "stateMutability": "nonpayable",
      "type": "function"
    },
    {
      "payable": true,
      "stateMutability": "payable",
      "type": "fallback"
    },
    {
      "anonymous": false,
      "inputs": [
        {
          "indexed": false,
          "internalType": "string",
          "name": "successmessage",
          "type": "string"
        },
        {
          "indexed": false,
          "internalType": "uint256",
          "name": "numberOfTokensIssued",
          "type": "uint256"
        }
      ],
      "name": "AmountInvested",
      "type": "event"
    },
    {
      "constant": false,
      "inputs": [
        {
          "internalType": "contract fulcrumInterface",
          "name": "_fulcrumInterfaceContract",
          "type": "address"
        }
      ],
      "name": "set_fulcrumInterface",
      "outputs": [],
      "payable": false,
      "stateMutability": "nonpayable",
      "type": "function"
    },
    {
      "constant": false,
      "inputs": [
        {
          "internalType": "contract IKyberNetworkProxy",
          "name": "_kyberNetworkProxyContract",
          "type": "address"
        }
      ],
      "name": "set_kyberNetworkProxyContract",
      "outputs": [],
      "payable": false,
      "stateMutability": "nonpayable",
      "type": "function"
    },
    {
      "constant": false,
      "inputs": [
        {
          "internalType": "contract ERC20",
          "name": "_DAI_TOKEN_ADDRESS",
          "type": "address"
        }
      ],
      "name": "set_DAI_TOKEN_ADDRESS",
      "outputs": [],
      "payable": false,
      "stateMutability": "nonpayable",
      "type": "function"
    },
    {
      "constant": false,
      "inputs": [
        {
          "internalType": "address",
          "name": "_towhomtoissue",
          "type": "address"
        }
      ],
      "name": "LetsInvest2FulcrumiDAI",
      "outputs": [],
      "payable": true,
      "stateMutability": "payable",
      "type": "function"
    },
    {
      "constant": false,
      "inputs": [],
      "name": "inCaseDAIgetsStuck",
      "outputs": [],
      "payable": false,
      "stateMutability": "nonpayable",
      "type": "function"
    },
    {
      "constant": false,
      "inputs": [],
      "name": "depositETH",
      "outputs": [
        {
          "internalType": "uint256",
          "name": "",
          "type": "uint256"
        }
      ],
      "payable": true,
      "stateMutability": "payable",
      "type": "function"
    },
    {
      "constant": false,
      "inputs": [],
      "name": "withdraw",
      "outputs": [],
      "payable": false,
      "stateMutability": "nonpayable",
      "type": "function"
    }
  ],
  "bytecode": "0x608060405273818e6fecd516ecc3849daf6845e3ec868087b755600360006101000a81548173ffffffffffffffffffffffffffffffffffffffff021916908373ffffffffffffffffffffffffffffffffffffffff1602179055507389d24a6b4ccb1b6faa2625fe562bdd9a23260359600460006101000a81548173ffffffffffffffffffffffffffffffffffffffff021916908373ffffffffffffffffffffffffffffffffffffffff1602179055507314094949152eddbfcd073717200da82fed8dc960600560006101000a81548173ffffffffffffffffffffffffffffffffffffffff021916908373ffffffffffffffffffffffffffffffffffffffff160217905550336000806101000a81548173ffffffffffffffffffffffffffffffffffffffff021916908373ffffffffffffffffffffffffffffffffffffffff16021790555060018081905550611240806101596000396000f3fe6080604052600436106100fa576000357c01000000000000000000000000000000000000000000000000000000009004806389057d781161009c578063db190f7711610076578063db190f771461040a578063ea0c0eba1461045b578063f2fde38b146104ac578063f6326fb3146104fd576100fa565b806389057d78146103375780638da5cb5b14610388578063b69ef8a8146103df576100fa565b80633ccfd60b116100d85780633ccfd60b1461021b578063785250da146102325780637ef552001461028957806380ad3008146102e0576100fa565b806312e69e021461016957806315bfee1b146101805780631878d1f1146101c4575b6000809054906101000a900473ffffffffffffffffffffffffffffffffffffffff1673ffffffffffffffffffffffffffffffffffffffff163373ffffffffffffffffffffffffffffffffffffffff16141561015d5761015761051b565b50610167565b61016633610589565b5b005b34801561017557600080fd5b5061017e610ab0565b005b6101c26004803603602081101561019657600080fd5b81019080803573ffffffffffffffffffffffffffffffffffffffff169060200190929190505050610589565b005b3480156101d057600080fd5b506101d9610d28565b604051808273ffffffffffffffffffffffffffffffffffffffff1673ffffffffffffffffffffffffffffffffffffffff16815260200191505060405180910390f35b34801561022757600080fd5b50610230610d40565b005b34801561023e57600080fd5b50610247610e1a565b604051808273ffffffffffffffffffffffffffffffffffffffff1673ffffffffffffffffffffffffffffffffffffffff16815260200191505060405180910390f35b34801561029557600080fd5b5061029e610e40565b604051808273ffffffffffffffffffffffffffffffffffffffff1673ffffffffffffffffffffffffffffffffffffffff16815260200191505060405180910390f35b3480156102ec57600080fd5b506102f5610e66565b604051808273ffffffffffffffffffffffffffffffffffffffff1673ffffffffffffffffffffffffffffffffffffffff16815260200191505060405180910390f35b34801561034357600080fd5b506103866004803603602081101561035a57600080fd5b81019080803573ffffffffffffffffffffffffffffffffffffffff169060200190929190505050610e8c565b005b34801561039457600080fd5b5061039d610f29565b604051808273ffffffffffffffffffffffffffffffffffffffff1673ffffffffffffffffffffffffffffffffffffffff16815260200191505060405180910390f35b3480156103eb57600080fd5b506103f4610f4e565b6040518082815260200191505060405180910390f35b34801561041657600080fd5b506104596004803603602081101561042d57600080fd5b81019080803573ffffffffffffffffffffffffffffffffffffffff169060200190929190505050610f54565b005b34801561046757600080fd5b506104aa6004803603602081101561047e57600080fd5b81019080803573ffffffffffffffffffffffffffffffffffffffff169060200190929190505050610ff1565b005b3480156104b857600080fd5b506104fb600480360360208110156104cf57600080fd5b81019080803573ffffffffffffffffffffffffffffffffffffffff16906020019092919050505061108e565b005b61050561051b565b6040518082815260200191505060405180910390f35b60008060009054906101000a900473ffffffffffffffffffffffffffffffffffffffff1673ffffffffffffffffffffffffffffffffffffffff163373ffffffffffffffffffffffffffffffffffffffff161461057657600080fd5b3460026000828254019250508190555090565b600073ffffffffffffffffffffffffffffffffffffffff168173ffffffffffffffffffffffffffffffffffffffff1614156105c357600080fd5b600034116105d057600080fd5b6000600360009054906101000a900473ffffffffffffffffffffffffffffffffffffffff1673ffffffffffffffffffffffffffffffffffffffff1663809a9e5573eeeeeeeeeeeeeeeeeeeeeeeeeeeeeeeeeeeeeeee600460009054906101000a900473ffffffffffffffffffffffffffffffffffffffff16346040518463ffffffff167c0100000000000000000000000000000000000000000000000000000000028152600401808473ffffffffffffffffffffffffffffffffffffffff1673ffffffffffffffffffffffffffffffffffffffff1681526020018373ffffffffffffffffffffffffffffffffffffffff1673ffffffffffffffffffffffffffffffffffffffff1681526020018281526020019350505050604080518083038186803b1580156106fe57600080fd5b505afa158015610712573d6000803e3d6000fd5b505050506040513d604081101561072857600080fd5b81019080805190602001909291908051906020019092919050505050809150506000600360009054906101000a900473ffffffffffffffffffffffffffffffffffffffff1673ffffffffffffffffffffffffffffffffffffffff16637a2a045634600460009054906101000a900473ffffffffffffffffffffffffffffffffffffffff16856040518463ffffffff167c0100000000000000000000000000000000000000000000000000000000028152600401808373ffffffffffffffffffffffffffffffffffffffff1673ffffffffffffffffffffffffffffffffffffffff168152602001828152602001925050506020604051808303818588803b15801561083157600080fd5b505af1158015610845573d6000803e3d6000fd5b50505050506040513d602081101561085c57600080fd5b81019080805190602001909291905050509050600061087c826003611164565b9050600460009054906101000a900473ffffffffffffffffffffffffffffffffffffffff1673ffffffffffffffffffffffffffffffffffffffff1663095ea7b3600560009054906101000a900473ffffffffffffffffffffffffffffffffffffffff16836040518363ffffffff167c0100000000000000000000000000000000000000000000000000000000028152600401808373ffffffffffffffffffffffffffffffffffffffff1673ffffffffffffffffffffffffffffffffffffffff16815260200182815260200192505050602060405180830381600087803b15801561096557600080fd5b505af1158015610979573d6000803e3d6000fd5b505050506040513d602081101561098f57600080fd5b81019080805190602001909291905050506109a957600080fd5b600560009054906101000a900473ffffffffffffffffffffffffffffffffffffffff1673ffffffffffffffffffffffffffffffffffffffff166340c10f1985846040518363ffffffff167c0100000000000000000000000000000000000000000000000000000000028152600401808373ffffffffffffffffffffffffffffffffffffffff1673ffffffffffffffffffffffffffffffffffffffff16815260200182815260200192505050602060405180830381600087803b158015610a6e57600080fd5b505af1158015610a82573d6000803e3d6000fd5b505050506040513d6020811015610a9857600080fd5b81019080805190602001909291905050505050505050565b6000809054906101000a900473ffffffffffffffffffffffffffffffffffffffff1673ffffffffffffffffffffffffffffffffffffffff163373ffffffffffffffffffffffffffffffffffffffff1614610b0957600080fd5b6000600460009054906101000a900473ffffffffffffffffffffffffffffffffffffffff1673ffffffffffffffffffffffffffffffffffffffff166370a08231306040518263ffffffff167c0100000000000000000000000000000000000000000000000000000000028152600401808273ffffffffffffffffffffffffffffffffffffffff1673ffffffffffffffffffffffffffffffffffffffff16815260200191505060206040518083038186803b158015610bc657600080fd5b505afa158015610bda573d6000803e3d6000fd5b505050506040513d6020811015610bf057600080fd5b81019080805190602001909291905050509050600460009054906101000a900473ffffffffffffffffffffffffffffffffffffffff1673ffffffffffffffffffffffffffffffffffffffff1663a9059cbb6000809054906101000a900473ffffffffffffffffffffffffffffffffffffffff16836040518363ffffffff167c0100000000000000000000000000000000000000000000000000000000028152600401808373ffffffffffffffffffffffffffffffffffffffff1673ffffffffffffffffffffffffffffffffffffffff16815260200182815260200192505050602060405180830381600087803b158015610ce957600080fd5b505af1158015610cfd573d6000803e3d6000fd5b505050506040513d6020811015610d1357600080fd5b81019080805190602001909291905050505050565b73eeeeeeeeeeeeeeeeeeeeeeeeeeeeeeeeeeeeeeee81565b6000809054906101000a900473ffffffffffffffffffffffffffffffffffffffff1673ffffffffffffffffffffffffffffffffffffffff163373ffffffffffffffffffffffffffffffffffffffff1614610d9957600080fd5b6000809054906101000a900473ffffffffffffffffffffffffffffffffffffffff1673ffffffffffffffffffffffffffffffffffffffff166108fc3073ffffffffffffffffffffffffffffffffffffffff16319081150290604051600060405180830381858888f19350505050158015610e17573d6000803e3d6000fd5b50565b600360009054906101000a900473ffffffffffffffffffffffffffffffffffffffff1681565b600560009054906101000a900473ffffffffffffffffffffffffffffffffffffffff1681565b600460009054906101000a900473ffffffffffffffffffffffffffffffffffffffff1681565b6000809054906101000a900473ffffffffffffffffffffffffffffffffffffffff1673ffffffffffffffffffffffffffffffffffffffff163373ffffffffffffffffffffffffffffffffffffffff1614610ee557600080fd5b80600360006101000a81548173ffffffffffffffffffffffffffffffffffffffff021916908373ffffffffffffffffffffffffffffffffffffffff16021790555050565b6000809054906101000a900473ffffffffffffffffffffffffffffffffffffffff1681565b60025481565b6000809054906101000a900473ffffffffffffffffffffffffffffffffffffffff1673ffffffffffffffffffffffffffffffffffffffff163373ffffffffffffffffffffffffffffffffffffffff1614610fad57600080fd5b80600460006101000a81548173ffffffffffffffffffffffffffffffffffffffff021916908373ffffffffffffffffffffffffffffffffffffffff16021790555050565b6000809054906101000a900473ffffffffffffffffffffffffffffffffffffffff1673ffffffffffffffffffffffffffffffffffffffff163373ffffffffffffffffffffffffffffffffffffffff161461104a57600080fd5b80600560006101000a81548173ffffffffffffffffffffffffffffffffffffffff021916908373ffffffffffffffffffffffffffffffffffffffff16021790555050565b6000809054906101000a900473ffffffffffffffffffffffffffffffffffffffff1673ffffffffffffffffffffffffffffffffffffffff163373ffffffffffffffffffffffffffffffffffffffff16146110e757600080fd5b600073ffffffffffffffffffffffffffffffffffffffff168173ffffffffffffffffffffffffffffffffffffffff16141561112157600080fd5b806000806101000a81548173ffffffffffffffffffffffffffffffffffffffff021916908373ffffffffffffffffffffffffffffffffffffffff16021790555050565b60008083141561117757600090506111e4565b600082840290508284828161118857fe5b04146111df576040517f08c379a00000000000000000000000000000000000000000000000000000000081526004018080602001828103825260218152602001806111eb6021913960400191505060405180910390fd5b809150505b9291505056fe536166654d6174683a206d756c7469706c69636174696f6e206f766572666c6f77a265627a7a723158205f6ebea75710bab2ae76b590d1b16a6960c7882d85113d3042d924ac12f53fd864736f6c634300050b0032",
  "source": "pragma solidity ^0.5.0;\n\ninterface fulcrumInterface {\n    function mintWithEther(address receiver, uint256 maxPriceAllowed) external payable returns (uint256 mintAmount);\n    function mint(address receiver, uint256 amount) external returns (uint256 mintAmount);\n    function burnToEther(address receiver, uint256 burnAmount, uint256 minPriceAllowed) external returns (uint256 loanAmountPaid);\n}\n\ninterface IKyberNetworkProxy {\n    function swapEtherToToken(ERC20 token, uint minRate) external payable returns (uint);\n    function getExpectedRate(ERC20 src, ERC20 dest, uint srcQty) external view returns (uint expectedRate, uint slippageRate);\n}\n\ninterface ERC20 {\n    function balanceOf(address _owner) external view returns (uint balance);\n    function transfer(address _to, uint _value) external returns (bool success);\n    function approve(address _spender, uint _value) external returns (bool success);\n    \n}\n\n\nimport \"./Ownable.sol\";\nimport \"./ReentrancyGuard.sol\";\nimport \"./SafeMath.sol\";\n\ncontract Invest2Fulcrum_iDAI is Ownable, ReentrancyGuard {\n    using SafeMath for uint;\n \n    \n    // state variables\n    uint public balance;\n    IKyberNetworkProxy public kyberNetworkProxyContract = IKyberNetworkProxy(0x818E6FECD516Ecc3849DAf6845e3EC868087B755);\n    ERC20 constant public ETH_TOKEN_ADDRESS = ERC20(0x00eeeeeeeeeeeeeeeeeeeeeeeeeeeeeeeeeeeeeeee);\n    ERC20 public DAI_TOKEN_ADDRESS = ERC20(0x89d24A6b4CcB1B6fAA2625fE562bDD9a23260359);\n    \n    fulcrumInterface public fulcrumInterfaceContract = fulcrumInterface(0x14094949152EDDBFcd073717200DA82fEd8dC960);\n    \n    // events\n    event AmountInvested(string successmessage, uint numberOfTokensIssued);\n    \n    // fx in relation to invest with ETH in fulcrum\n    \n     // - should we ever want to change the interface contract\n    function set_fulcrumInterface(fulcrumInterface _fulcrumInterfaceContract) onlyOwner public {\n        fulcrumInterfaceContract = _fulcrumInterfaceContract;\n    }\n    \n    function set_kyberNetworkProxyContract(IKyberNetworkProxy _kyberNetworkProxyContract) onlyOwner public {\n        kyberNetworkProxyContract = _kyberNetworkProxyContract;\n    }\n    \n    // this function should be called should we ever want to change the DAI_TOKEN_ADDRESS\n    function set_DAI_TOKEN_ADDRESS(ERC20 _DAI_TOKEN_ADDRESS) onlyOwner public {\n        DAI_TOKEN_ADDRESS = _DAI_TOKEN_ADDRESS;\n    }\n    \n    // the investment fx\n    function LetsInvest2FulcrumiDAI(address _towhomtoissue) public payable {\n        require(_towhomtoissue != address(0));\n        require(msg.value > 0);\n        uint minConversionRate;\n        (minConversionRate,) = kyberNetworkProxyContract.getExpectedRate(ETH_TOKEN_ADDRESS, DAI_TOKEN_ADDRESS, msg.value);\n        uint destAmount = kyberNetworkProxyContract.swapEtherToToken.value(msg.value)(DAI_TOKEN_ADDRESS, minConversionRate);\n        uint qty2approve = SafeMath.mul(destAmount, 3);\n        require(DAI_TOKEN_ADDRESS.approve(address(fulcrumInterfaceContract), qty2approve));\n        fulcrumInterfaceContract.mint(_towhomtoissue, destAmount); \n    }\n    \n    // fx, in case something goes wrong {hint! learnt from experience}\n    function inCaseDAIgetsStuck() onlyOwner public {\n        uint qty = DAI_TOKEN_ADDRESS.balanceOf(address(this));\n        DAI_TOKEN_ADDRESS.transfer(owner, qty);\n    }\n    \n\n    // fx in relation to ETH held by the contract sent by the owner\n    \n    // - this function lets you deposit ETH into this wallet\n    function depositETH() payable public onlyOwner returns (uint) {\n        balance += msg.value;\n    }\n    \n    // - fallback function let you / anyone send ETH to this wallet without the need to call any function\n    function() external payable {\n        if (msg.sender == owner) {\n            depositETH();\n        } else {\n            LetsInvest2FulcrumiDAI(msg.sender);\n        }\n    }\n    \n    // - to withdraw any ETH balance sitting in the contract\n    function withdraw() onlyOwner public{\n        owner.transfer(address(this).balance);\n    }\n    \n    \n}",
  "sourcePath": "/Users/dipeshsukhani/Desktop/Coding/DockerMounting/Python/allFolders/RemixSharedFolder/contracts/Invest2Fulcrum_iDAI.sol",
  "compiler": {
    "name": "solc",
    "version": "0.5.11+commit.c082d0b4.Emscripten.clang"
  },
  "schemaVersion": "3.0.1",
  "updatedAt": "2019-12-04T23:08:35.092Z",
  "devdoc": {
    "methods": {}
  },
  "userdoc": {
    "methods": {}
  }
}