{
  "contractName": "Invest2Fulcrum2xLongBTC",
  "abi": [
    {
      "constant": true,
      "inputs": [],
      "name": "fulcrumInterfaceContract",
      "outputs": [
        {
          "internalType": "contract fulcrumInterface",
          "name": "",
          "type": "address"
        }
      ],
      "payable": false,
      "stateMutability": "view",
      "type": "function"
    },
    {
      "constant": true,
      "inputs": [],
      "name": "owner",
      "outputs": [
        {
          "internalType": "address payable",
          "name": "",
          "type": "address"
        }
      ],
      "payable": false,
      "stateMutability": "view",
      "type": "function"
    },
    {
      "constant": true,
      "inputs": [],
      "name": "balance",
      "outputs": [
        {
          "internalType": "uint256",
          "name": "",
          "type": "uint256"
        }
      ],
      "payable": false,
      "stateMutability": "view",
      "type": "function"
    },
    {
      "constant": true,
      "inputs": [],
      "name": "maxPrice",
      "outputs": [
        {
          "internalType": "uint256",
          "name": "",
          "type": "uint256"
        }
      ],
      "payable": false,
      "stateMutability": "view",
      "type": "function"
    },
    {
      "constant": false,
      "inputs": [
        {
          "internalType": "address payable",
          "name": "newOwner",
          "type": "address"
        }
      ],
      "name": "transferOwnership",
      "outputs": [],
      "payable": false,
      "stateMutability": "nonpayable",
      "type": "function"
    },
    {
      "payable": true,
      "stateMutability": "payable",
      "type": "fallback"
    },
    {
      "anonymous": false,
      "inputs": [
        {
          "indexed": false,
          "internalType": "string",
          "name": "successmessage",
          "type": "string"
        },
        {
          "indexed": false,
          "internalType": "uint256",
          "name": "numberOfTokensIssued",
          "type": "uint256"
        }
      ],
      "name": "AmountInvested",
      "type": "event"
    },
    {
      "constant": false,
      "inputs": [
        {
          "internalType": "contract fulcrumInterface",
          "name": "_fulcrumInterfaceContract",
          "type": "address"
        }
      ],
      "name": "set_fulcrumInterface",
      "outputs": [],
      "payable": false,
      "stateMutability": "nonpayable",
      "type": "function"
    },
    {
      "constant": false,
      "inputs": [
        {
          "internalType": "uint256",
          "name": "_insertETHValueonly",
          "type": "uint256"
        }
      ],
      "name": "set_maxPrice",
      "outputs": [],
      "payable": false,
      "stateMutability": "nonpayable",
      "type": "function"
    },
    {
      "constant": false,
      "inputs": [
        {
          "internalType": "address",
          "name": "_towhomtoissue",
          "type": "address"
        }
      ],
      "name": "LetsInvest2Fulcrum2xLongBTC",
      "outputs": [],
      "payable": true,
      "stateMutability": "payable",
      "type": "function"
    },
    {
      "constant": false,
      "inputs": [],
      "name": "depositETH",
      "outputs": [
        {
          "internalType": "uint256",
          "name": "",
          "type": "uint256"
        }
      ],
      "payable": true,
      "stateMutability": "payable",
      "type": "function"
    },
    {
      "constant": false,
      "inputs": [],
      "name": "withdraw",
      "outputs": [],
      "payable": false,
      "stateMutability": "nonpayable",
      "type": "function"
    }
  ],
  "bytecode": "0x60806040526a52b7d2dcc80cd2e4000000600355739fe6854447bb39dc8b78960882831269f9e78408600460006101000a81548173ffffffffffffffffffffffffffffffffffffffff021916908373ffffffffffffffffffffffffffffffffffffffff160217905550336000806101000a81548173ffffffffffffffffffffffffffffffffffffffff021916908373ffffffffffffffffffffffffffffffffffffffff160217905550600180819055506108f9806100be6000396000f3fe6080604052600436106100ae576000357c010000000000000000000000000000000000000000000000000000000090048063e38d6b5c11610076578063e38d6b5c14610251578063ea0c0eba1461027c578063f2fde38b146102cd578063f391c1ad1461031e578063f6326fb314610359576100ae565b8063344766181461011d5780633ccfd60b146101615780637ef55200146101785780638da5cb5b146101cf578063b69ef8a814610226575b6000809054906101000a900473ffffffffffffffffffffffffffffffffffffffff1673ffffffffffffffffffffffffffffffffffffffff163373ffffffffffffffffffffffffffffffffffffffff1614156101115761010b610377565b5061011b565b61011a336103e5565b5b005b61015f6004803603602081101561013357600080fd5b81019080803573ffffffffffffffffffffffffffffffffffffffff1690602001909291905050506103e5565b005b34801561016d57600080fd5b50610176610595565b005b34801561018457600080fd5b5061018d61066f565b604051808273ffffffffffffffffffffffffffffffffffffffff1673ffffffffffffffffffffffffffffffffffffffff16815260200191505060405180910390f35b3480156101db57600080fd5b506101e4610695565b604051808273ffffffffffffffffffffffffffffffffffffffff1673ffffffffffffffffffffffffffffffffffffffff16815260200191505060405180910390f35b34801561023257600080fd5b5061023b6106ba565b6040518082815260200191505060405180910390f35b34801561025d57600080fd5b506102666106c0565b6040518082815260200191505060405180910390f35b34801561028857600080fd5b506102cb6004803603602081101561029f57600080fd5b81019080803573ffffffffffffffffffffffffffffffffffffffff1690602001909291905050506106c6565b005b3480156102d957600080fd5b5061031c600480360360208110156102f057600080fd5b81019080803573ffffffffffffffffffffffffffffffffffffffff169060200190929190505050610763565b005b34801561032a57600080fd5b506103576004803603602081101561034157600080fd5b8101908080359060200190929190505050610839565b005b610361610377565b6040518082815260200191505060405180910390f35b60008060009054906101000a900473ffffffffffffffffffffffffffffffffffffffff1673ffffffffffffffffffffffffffffffffffffffff163373ffffffffffffffffffffffffffffffffffffffff16146103d257600080fd5b3460026000828254019250508190555090565b655af3107a400034116103f757600080fd5b600073ffffffffffffffffffffffffffffffffffffffff163373ffffffffffffffffffffffffffffffffffffffff16141561043157600080fd5b60003490506000600460009054906101000a900473ffffffffffffffffffffffffffffffffffffffff1673ffffffffffffffffffffffffffffffffffffffff16634e07008d83856003546040518463ffffffff167c0100000000000000000000000000000000000000000000000000000000028152600401808373ffffffffffffffffffffffffffffffffffffffff1673ffffffffffffffffffffffffffffffffffffffff168152602001828152602001925050506020604051808303818588803b1580156104ff57600080fd5b505af1158015610513573d6000803e3d6000fd5b50505050506040513d602081101561052a57600080fd5b810190808051906020019092919050505090507fddb9d6f103ae432bcb189ade1985355e9e30bf4bc1a398222c516c9c3e3b59d78160405180806020018381526020018281038252602881526020018061089d602891396040019250505060405180910390a1505050565b6000809054906101000a900473ffffffffffffffffffffffffffffffffffffffff1673ffffffffffffffffffffffffffffffffffffffff163373ffffffffffffffffffffffffffffffffffffffff16146105ee57600080fd5b6000809054906101000a900473ffffffffffffffffffffffffffffffffffffffff1673ffffffffffffffffffffffffffffffffffffffff166108fc3073ffffffffffffffffffffffffffffffffffffffff16319081150290604051600060405180830381858888f1935050505015801561066c573d6000803e3d6000fd5b50565b600460009054906101000a900473ffffffffffffffffffffffffffffffffffffffff1681565b6000809054906101000a900473ffffffffffffffffffffffffffffffffffffffff1681565b60025481565b60035481565b6000809054906101000a900473ffffffffffffffffffffffffffffffffffffffff1673ffffffffffffffffffffffffffffffffffffffff163373ffffffffffffffffffffffffffffffffffffffff161461071f57600080fd5b80600460006101000a81548173ffffffffffffffffffffffffffffffffffffffff021916908373ffffffffffffffffffffffffffffffffffffffff16021790555050565b6000809054906101000a900473ffffffffffffffffffffffffffffffffffffffff1673ffffffffffffffffffffffffffffffffffffffff163373ffffffffffffffffffffffffffffffffffffffff16146107bc57600080fd5b600073ffffffffffffffffffffffffffffffffffffffff168173ffffffffffffffffffffffffffffffffffffffff1614156107f657600080fd5b806000806101000a81548173ffffffffffffffffffffffffffffffffffffffff021916908373ffffffffffffffffffffffffffffffffffffffff16021790555050565b6000809054906101000a900473ffffffffffffffffffffffffffffffffffffffff1673ffffffffffffffffffffffffffffffffffffffff163373ffffffffffffffffffffffffffffffffffffffff161461089257600080fd5b806003819055505056fe446f6e652120746865206e756d626572206f662070546f6b656e7320697373756564206172653a20a265627a7a72315820ed73c6017807ad33a9ab5b41af54514d06762dceb08a9e5e00e1df85bf9fa9ba64736f6c634300050b0032",
  "source": "pragma solidity ^0.5.0;\n\ncontract fulcrumInterface {\n    function mintWithEther(address receiver, uint256 maxPriceAllowed) external payable returns (uint256 mintAmount);\n    function mint(address receiver, uint256 amount) external payable returns (uint256 mintAmount);\n    function burnToEther(address receiver, uint256 burnAmount, uint256 minPriceAllowed) external returns (uint256 loanAmountPaid);\n}\n\nimport \"./Ownable.sol\";\nimport \"./ReentrancyGuard.sol\";\n\ncontract Invest2Fulcrum2xLongBTC is Ownable, ReentrancyGuard {\n    // this is a basic version of the contract that we will use to take ETH and invest in fulcrum 1x Short BTC product\n    \n    // function architechture\n    // - collect ETH from user\n    // - invest in fulcrum with Ether from user\n    // - send back the pToken to the ultimate user\n    \n    // state variables\n    uint public balance;\n    uint public maxPrice = 100000000000000000000000000;\n    fulcrumInterface public fulcrumInterfaceContract = fulcrumInterface(0x9fe6854447bB39dc8b78960882831269f9e78408);\n    \n    // events\n    event AmountInvested(string successmessage, uint numberOfTokensIssued);\n    \n    // fx in relation to invest with ETH in fulcrum\n    \n     // - should we ever want to change the interface contract\n    function set_fulcrumInterface(fulcrumInterface _fulcrumInterfaceContract) onlyOwner public {\n        fulcrumInterfaceContract = _fulcrumInterfaceContract;\n    }\n    \n    \n    // - this is to control the slippage\n    // - NOTE: the input has to be in Wei\n    function set_maxPrice(uint _insertETHValueonly) onlyOwner public {\n        maxPrice = _insertETHValueonly;\n    }\n    \n    //  - the investment fx\n    function LetsInvest2Fulcrum2xLongBTC(address _towhomtoissue) payable public  {\n        require (msg.value > 100000000000000);\n        require (msg.sender != address(0));\n        uint amountToBeInvested = msg.value;\n        uint tokensIssued = fulcrumInterfaceContract.mintWithEther.value(amountToBeInvested)(address(_towhomtoissue), maxPrice);\n        emit AmountInvested(\"Done! the number of pTokens issued are: \", tokensIssued);\n        \n    }\n    \n    \n    // fx in relation to ETH held by the contract sent by the owner\n    \n    // - this function lets you deposit ETH into this wallet\n    function depositETH() payable public onlyOwner returns (uint) {\n        balance += msg.value;\n    }\n    \n    // - fallback function let you / anyone send ETH to this wallet without the need to call any function\n    function() external payable {\n        if (msg.sender == owner) {\n            depositETH();\n        } else {\n            LetsInvest2Fulcrum2xLongBTC(msg.sender);\n        }\n    }\n    \n    // - to withdraw any ETH balance sitting in the contract\n    function withdraw() onlyOwner public{\n        owner.transfer(address(this).balance);\n    }\n    \n    \n}",
  "sourcePath": "/Users/dipeshsukhani/Desktop/Coding/DockerMounting/Python/allFolders/RemixSharedFolder/contracts/Invest2Fulcrum_2xLongBTC.sol",
  "compiler": {
    "name": "solc",
    "version": "0.5.11+commit.c082d0b4.Emscripten.clang"
  },
  "schemaVersion": "3.0.1",
  "updatedAt": "2019-12-06T10:22:27.301Z",
  "devdoc": {
    "methods": {}
  },
  "userdoc": {
    "methods": {}
  }
}