{
  "contractName": "Invest2_sBTC",
  "abi": [
    {
      "constant": true,
      "inputs": [],
      "name": "sBTCContract",
      "outputs": [
        {
          "internalType": "contract ERC20",
          "name": "",
          "type": "address"
        }
      ],
      "payable": false,
      "stateMutability": "view",
      "type": "function"
    },
    {
      "constant": true,
      "inputs": [],
      "name": "SynthDepotInterfaceContract",
      "outputs": [
        {
          "internalType": "contract SynthDepotInterface",
          "name": "",
          "type": "address"
        }
      ],
      "payable": false,
      "stateMutability": "view",
      "type": "function"
    },
    {
      "constant": true,
      "inputs": [],
      "name": "owner",
      "outputs": [
        {
          "internalType": "address payable",
          "name": "",
          "type": "address"
        }
      ],
      "payable": false,
      "stateMutability": "view",
      "type": "function"
    },
    {
      "constant": true,
      "inputs": [],
      "name": "SynthProxyInterfaceContract",
      "outputs": [
        {
          "internalType": "contract SynthProxyInterface",
          "name": "",
          "type": "address"
        }
      ],
      "payable": false,
      "stateMutability": "view",
      "type": "function"
    },
    {
      "constant": true,
      "inputs": [],
      "name": "balance",
      "outputs": [
        {
          "internalType": "uint256",
          "name": "",
          "type": "uint256"
        }
      ],
      "payable": false,
      "stateMutability": "view",
      "type": "function"
    },
    {
      "constant": false,
      "inputs": [
        {
          "internalType": "address payable",
          "name": "newOwner",
          "type": "address"
        }
      ],
      "name": "transferOwnership",
      "outputs": [],
      "payable": false,
      "stateMutability": "nonpayable",
      "type": "function"
    },
    {
      "payable": true,
      "stateMutability": "payable",
      "type": "fallback"
    },
    {
      "anonymous": false,
      "inputs": [
        {
          "indexed": false,
          "internalType": "uint256",
          "name": "",
          "type": "uint256"
        }
      ],
      "name": "sUSDReceived",
      "type": "event"
    },
    {
      "anonymous": false,
      "inputs": [
        {
          "indexed": false,
          "internalType": "uint256",
          "name": "",
          "type": "uint256"
        }
      ],
      "name": "sBTCReceived",
      "type": "event"
    },
    {
      "constant": false,
      "inputs": [
        {
          "internalType": "contract SynthDepotInterface",
          "name": "_SynthDepotInterfaceContract",
          "type": "address"
        }
      ],
      "name": "set_SynthDepotInterfaceContract",
      "outputs": [],
      "payable": false,
      "stateMutability": "nonpayable",
      "type": "function"
    },
    {
      "constant": false,
      "inputs": [
        {
          "internalType": "contract SynthProxyInterface",
          "name": "_SynthProxyInterfaceContract",
          "type": "address"
        }
      ],
      "name": "set_SynthProxyInterfaceContract",
      "outputs": [],
      "payable": false,
      "stateMutability": "nonpayable",
      "type": "function"
    },
    {
      "constant": false,
      "inputs": [
        {
          "internalType": "contract ERC20",
          "name": "_sBTCContract",
          "type": "address"
        }
      ],
      "name": "set_sBTCContract",
      "outputs": [],
      "payable": false,
      "stateMutability": "nonpayable",
      "type": "function"
    },
    {
      "constant": false,
      "inputs": [
        {
          "internalType": "address payable",
          "name": "_investor",
          "type": "address"
        }
      ],
      "name": "LetsInvestin_sBTC",
      "outputs": [
        {
          "internalType": "uint256",
          "name": "",
          "type": "uint256"
        }
      ],
      "payable": true,
      "stateMutability": "payable",
      "type": "function"
    },
    {
      "constant": false,
      "inputs": [],
      "name": "depositETH",
      "outputs": [
        {
          "internalType": "uint256",
          "name": "",
          "type": "uint256"
        }
      ],
      "payable": true,
      "stateMutability": "payable",
      "type": "function"
    },
    {
      "constant": false,
      "inputs": [],
      "name": "withdraw",
      "outputs": [],
      "payable": false,
      "stateMutability": "nonpayable",
      "type": "function"
    }
  ],
  "bytecode": "0x608060405273172e09691dfbbc035e37c73b62095caa16ee2388600160006101000a81548173ffffffffffffffffffffffffffffffffffffffff021916908373ffffffffffffffffffffffffffffffffffffffff16021790555073c011a72400e58ecd99ee497cf89e3775d4bd732f600260006101000a81548173ffffffffffffffffffffffffffffffffffffffff021916908373ffffffffffffffffffffffffffffffffffffffff16021790555073fe18be6b3bd88a2d2a7f928d00292e7a9963cfc6600360006101000a81548173ffffffffffffffffffffffffffffffffffffffff021916908373ffffffffffffffffffffffffffffffffffffffff1602179055507f73555344000000000000000000000000000000000000000000000000000000006001026004557f7342544300000000000000000000000000000000000000000000000000000000600102600555336000806101000a81548173ffffffffffffffffffffffffffffffffffffffff021916908373ffffffffffffffffffffffffffffffffffffffff160217905550610dbd806101a06000396000f3fe6080604052600436106100c4576000357c010000000000000000000000000000000000000000000000000000000090048063b652b50011610081578063b652b500146102f8578063b69ef8a814610349578063cb08689114610374578063f2fde38b146103cc578063f6326fb31461041d578063fcdc0b5a1461043b576100c4565b806319054255146101345780633ccfd60b1461018b578063439f161b146101a25780635ecb93f4146101f35780638da5cb5b1461024a578063992a70ba146102a1575b6000809054906101000a900473ffffffffffffffffffffffffffffffffffffffff1673ffffffffffffffffffffffffffffffffffffffff163373ffffffffffffffffffffffffffffffffffffffff1614156101275761012161048c565b50610132565b610130336104fa565b505b005b34801561014057600080fd5b50610149610964565b604051808273ffffffffffffffffffffffffffffffffffffffff1673ffffffffffffffffffffffffffffffffffffffff16815260200191505060405180910390f35b34801561019757600080fd5b506101a061098a565b005b3480156101ae57600080fd5b506101f1600480360360208110156101c557600080fd5b81019080803573ffffffffffffffffffffffffffffffffffffffff169060200190929190505050610a64565b005b3480156101ff57600080fd5b50610208610b01565b604051808273ffffffffffffffffffffffffffffffffffffffff1673ffffffffffffffffffffffffffffffffffffffff16815260200191505060405180910390f35b34801561025657600080fd5b5061025f610b27565b604051808273ffffffffffffffffffffffffffffffffffffffff1673ffffffffffffffffffffffffffffffffffffffff16815260200191505060405180910390f35b3480156102ad57600080fd5b506102b6610b4c565b604051808273ffffffffffffffffffffffffffffffffffffffff1673ffffffffffffffffffffffffffffffffffffffff16815260200191505060405180910390f35b34801561030457600080fd5b506103476004803603602081101561031b57600080fd5b81019080803573ffffffffffffffffffffffffffffffffffffffff169060200190929190505050610b72565b005b34801561035557600080fd5b5061035e610c0f565b6040518082815260200191505060405180910390f35b6103b66004803603602081101561038a57600080fd5b81019080803573ffffffffffffffffffffffffffffffffffffffff1690602001909291905050506104fa565b6040518082815260200191505060405180910390f35b3480156103d857600080fd5b5061041b600480360360208110156103ef57600080fd5b81019080803573ffffffffffffffffffffffffffffffffffffffff169060200190929190505050610c15565b005b61042561048c565b6040518082815260200191505060405180910390f35b34801561044757600080fd5b5061048a6004803603602081101561045e57600080fd5b81019080803573ffffffffffffffffffffffffffffffffffffffff169060200190929190505050610ceb565b005b60008060009054906101000a900473ffffffffffffffffffffffffffffffffffffffff1673ffffffffffffffffffffffffffffffffffffffff163373ffffffffffffffffffffffffffffffffffffffff16146104e757600080fd5b3460066000828254019250508190555090565b60008073ffffffffffffffffffffffffffffffffffffffff168273ffffffffffffffffffffffffffffffffffffffff16141561053557600080fd5b6000349050655af3107a4000341161054c57600080fd5b6000600160009054906101000a900473ffffffffffffffffffffffffffffffffffffffff1673ffffffffffffffffffffffffffffffffffffffff16631f930115836040518263ffffffff167c01000000000000000000000000000000000000000000000000000000000281526004016020604051808303818588803b1580156105d457600080fd5b505af11580156105e8573d6000803e3d6000fd5b50505050506040513d60208110156105ff57600080fd5b810190808051906020019092919050505090507f70ce604fa6f442241453cb49c067c60b1c71b75362127af3d773d08e6c6c0987816040518082815260200191505060405180910390a1600260009054906101000a900473ffffffffffffffffffffffffffffffffffffffff1673ffffffffffffffffffffffffffffffffffffffff1663ee52a2f3600454836005546040518463ffffffff167c0100000000000000000000000000000000000000000000000000000000028152600401808481526020018381526020018281526020019350505050602060405180830381600087803b1580156106ee57600080fd5b505af1158015610702573d6000803e3d6000fd5b505050506040513d602081101561071857600080fd5b8101908080519060200190929190505050506000600360009054906101000a900473ffffffffffffffffffffffffffffffffffffffff1673ffffffffffffffffffffffffffffffffffffffff166370a08231306040518263ffffffff167c0100000000000000000000000000000000000000000000000000000000028152600401808273ffffffffffffffffffffffffffffffffffffffff1673ffffffffffffffffffffffffffffffffffffffff16815260200191505060206040518083038186803b1580156107e757600080fd5b505afa1580156107fb573d6000803e3d6000fd5b505050506040513d602081101561081157600080fd5b810190808051906020019092919050505090507f4535f22c5a99977be330110befd7dc38b2b4ca6b72c589e71078cc34f1173512816040518082815260200191505060405180910390a1600360009054906101000a900473ffffffffffffffffffffffffffffffffffffffff1673ffffffffffffffffffffffffffffffffffffffff1663a9059cbb86836040518363ffffffff167c0100000000000000000000000000000000000000000000000000000000028152600401808373ffffffffffffffffffffffffffffffffffffffff1673ffffffffffffffffffffffffffffffffffffffff16815260200182815260200192505050602060405180830381600087803b15801561092057600080fd5b505af1158015610934573d6000803e3d6000fd5b505050506040513d602081101561094a57600080fd5b810190808051906020019092919050505050505050919050565b600360009054906101000a900473ffffffffffffffffffffffffffffffffffffffff1681565b6000809054906101000a900473ffffffffffffffffffffffffffffffffffffffff1673ffffffffffffffffffffffffffffffffffffffff163373ffffffffffffffffffffffffffffffffffffffff16146109e357600080fd5b6000809054906101000a900473ffffffffffffffffffffffffffffffffffffffff1673ffffffffffffffffffffffffffffffffffffffff166108fc3073ffffffffffffffffffffffffffffffffffffffff16319081150290604051600060405180830381858888f19350505050158015610a61573d6000803e3d6000fd5b50565b6000809054906101000a900473ffffffffffffffffffffffffffffffffffffffff1673ffffffffffffffffffffffffffffffffffffffff163373ffffffffffffffffffffffffffffffffffffffff1614610abd57600080fd5b80600160006101000a81548173ffffffffffffffffffffffffffffffffffffffff021916908373ffffffffffffffffffffffffffffffffffffffff16021790555050565b600160009054906101000a900473ffffffffffffffffffffffffffffffffffffffff1681565b6000809054906101000a900473ffffffffffffffffffffffffffffffffffffffff1681565b600260009054906101000a900473ffffffffffffffffffffffffffffffffffffffff1681565b6000809054906101000a900473ffffffffffffffffffffffffffffffffffffffff1673ffffffffffffffffffffffffffffffffffffffff163373ffffffffffffffffffffffffffffffffffffffff1614610bcb57600080fd5b80600260006101000a81548173ffffffffffffffffffffffffffffffffffffffff021916908373ffffffffffffffffffffffffffffffffffffffff16021790555050565b60065481565b6000809054906101000a900473ffffffffffffffffffffffffffffffffffffffff1673ffffffffffffffffffffffffffffffffffffffff163373ffffffffffffffffffffffffffffffffffffffff1614610c6e57600080fd5b600073ffffffffffffffffffffffffffffffffffffffff168173ffffffffffffffffffffffffffffffffffffffff161415610ca857600080fd5b806000806101000a81548173ffffffffffffffffffffffffffffffffffffffff021916908373ffffffffffffffffffffffffffffffffffffffff16021790555050565b6000809054906101000a900473ffffffffffffffffffffffffffffffffffffffff1673ffffffffffffffffffffffffffffffffffffffff163373ffffffffffffffffffffffffffffffffffffffff1614610d4457600080fd5b80600360006101000a81548173ffffffffffffffffffffffffffffffffffffffff021916908373ffffffffffffffffffffffffffffffffffffffff1602179055505056fea265627a7a72315820c5e24f28e08b931d311e9c8ce0130838486f21ed1a7388989b965dd2876f057564736f6c634300050b0032",
  "source": "pragma solidity ^0.5.0;\n\nimport \"./Ownable.sol\";\nimport \"./SafeMath.sol\";\nimport \"./ReentrancyGuard.sol\";\n\n\ninterface ERC20 {\n    function balanceOf(address _owner) external view returns (uint balance);\n    function transfer(address _to, uint _value) external returns (bool success);\n}\n\n\ninterface SynthDepotInterface {\n      function exchangeEtherForSynths() external payable returns (uint256);\n      \n}\n\ncontract SynthProxyInterface{\n    function exchange(bytes32 sourceCurrencyKey, uint256 sourceAmount, bytes32 destinationCurrencyKey) external returns (bool);\n}\n\ncontract Invest2_sBTC is Ownable {\n    using SafeMath for uint;\n    \n    SynthDepotInterface public SynthDepotInterfaceContract = SynthDepotInterface(0x172E09691DfBbC035E37c73B62095caa16Ee2388);\n    SynthProxyInterface public SynthProxyInterfaceContract = SynthProxyInterface(0xC011A72400E58ecD99Ee497CF89E3775d4bd732F);\n    ERC20 public sBTCContract = ERC20(0xfE18be6b3Bd88A2D2A7f928d00292E7a9963CfC6);\n    \n    bytes32 USDbytes32= 0x7355534400000000000000000000000000000000000000000000000000000000;\n    bytes32 sBTCbytes32= 0x7342544300000000000000000000000000000000000000000000000000000000;\n    \n    event sUSDReceived(uint);\n    event sBTCReceived(uint);\n\n\n    // - variable for tracking the ETH balance of this contract\n    uint public balance;\n\n    // this function should be called should we ever want to change the Synthetix Depot address\n    function set_SynthDepotInterfaceContract(SynthDepotInterface _SynthDepotInterfaceContract) onlyOwner public {\n        SynthDepotInterfaceContract = _SynthDepotInterfaceContract;\n    }\n    \n    // this function should be called should we ever want to change the Synthetix Proxy address\n    function set_SynthProxyInterfaceContract(SynthProxyInterface _SynthProxyInterfaceContract) onlyOwner public {\n        SynthProxyInterfaceContract = _SynthProxyInterfaceContract;\n    }\n    \n    // this function should be called should we ever want to change the sBTC Contract address\n    function set_sBTCContract(ERC20 _sBTCContract) onlyOwner public {\n        sBTCContract = _sBTCContract;\n    }\n    \n    function LetsInvestin_sBTC(address payable _investor) public payable returns(uint) {\n        require(_investor != address(0));\n        uint invest_amt = msg.value;\n        require (msg.value > 100000000000000);\n        uint sUSDAmount = SynthDepotInterfaceContract.exchangeEtherForSynths.value(invest_amt)();\n        emit sUSDReceived(sUSDAmount);\n        SynthProxyInterfaceContract.exchange(USDbytes32, sUSDAmount, sBTCbytes32); \n        uint sBTCUnits = sBTCContract.balanceOf(address(this));\n        emit sBTCReceived(sBTCUnits);\n        sBTCContract.transfer(address(_investor),sBTCUnits);\n    }\n    \n    \n    \n    // fx in relation to ETH held by the contract sent by the owner\n    \n    // - this function lets you deposit ETH into this wallet\n    function depositETH() payable public onlyOwner returns (uint) {\n        balance += msg.value;\n    }\n    \n    // - fallback function let you / anyone send ETH to this wallet without the need to call any function\n    function() external payable {\n        if (msg.sender == owner) {\n            depositETH();\n        } else {\n            LetsInvestin_sBTC(msg.sender);\n        }\n    }\n    \n    // - to withdraw any ETH balance sitting in the contract\n    function withdraw() onlyOwner public{\n        owner.transfer(address(this).balance);\n    }\n    \n    \n \n}",
  "sourcePath": "/Users/dipeshsukhani/Desktop/Coding/DockerMounting/Python/allFolders/RemixSharedFolder/contracts/Invest2_sBTCv2.sol",
  "compiler": {
    "name": "solc",
    "version": "0.5.11+commit.c082d0b4.Emscripten.clang"
  },
  "schemaVersion": "3.0.1",
  "updatedAt": "2019-12-06T05:57:31.725Z",
  "devdoc": {
    "methods": {}
  },
  "userdoc": {
    "methods": {}
  }
}