{
  "contractName": "ServiceProvider_UniSwap_ETH_DAI_Zap",
  "abi": [
    {
      "constant": true,
      "inputs": [],
      "name": "serviceChargeInBasisPoints",
      "outputs": [
        {
          "internalType": "uint256",
          "name": "",
          "type": "uint256"
        }
      ],
      "payable": false,
      "stateMutability": "view",
      "type": "function"
    },
    {
      "constant": false,
      "inputs": [],
      "name": "renounceOwnership",
      "outputs": [],
      "payable": false,
      "stateMutability": "nonpayable",
      "type": "function"
    },
    {
      "constant": true,
      "inputs": [],
      "name": "DAI_TOKEN_ADDRESS",
      "outputs": [
        {
          "internalType": "contract IERC20",
          "name": "",
          "type": "address"
        }
      ],
      "payable": false,
      "stateMutability": "view",
      "type": "function"
    },
    {
      "constant": true,
      "inputs": [],
      "name": "owner",
      "outputs": [
        {
          "internalType": "address",
          "name": "",
          "type": "address"
        }
      ],
      "payable": false,
      "stateMutability": "view",
      "type": "function"
    },
    {
      "constant": true,
      "inputs": [],
      "name": "isOwner",
      "outputs": [
        {
          "internalType": "bool",
          "name": "",
          "type": "bool"
        }
      ],
      "payable": false,
      "stateMutability": "view",
      "type": "function"
    },
    {
      "constant": true,
      "inputs": [],
      "name": "UniSwapDAIContract",
      "outputs": [
        {
          "internalType": "contract IERC20",
          "name": "",
          "type": "address"
        }
      ],
      "payable": false,
      "stateMutability": "view",
      "type": "function"
    },
    {
      "constant": true,
      "inputs": [],
      "name": "_owner",
      "outputs": [
        {
          "internalType": "address payable",
          "name": "",
          "type": "address"
        }
      ],
      "payable": false,
      "stateMutability": "view",
      "type": "function"
    },
    {
      "constant": true,
      "inputs": [],
      "name": "balance",
      "outputs": [
        {
          "internalType": "uint256",
          "name": "",
          "type": "uint256"
        }
      ],
      "payable": false,
      "stateMutability": "view",
      "type": "function"
    },
    {
      "constant": true,
      "inputs": [],
      "name": "ServiceProviderAddress",
      "outputs": [
        {
          "internalType": "address",
          "name": "",
          "type": "address"
        }
      ],
      "payable": false,
      "stateMutability": "view",
      "type": "function"
    },
    {
      "constant": false,
      "inputs": [
        {
          "internalType": "address payable",
          "name": "newOwner",
          "type": "address"
        }
      ],
      "name": "transferOwnership",
      "outputs": [],
      "payable": false,
      "stateMutability": "nonpayable",
      "type": "function"
    },
    {
      "payable": true,
      "stateMutability": "payable",
      "type": "fallback"
    },
    {
      "anonymous": false,
      "inputs": [
        {
          "indexed": false,
          "internalType": "uint256",
          "name": "",
          "type": "uint256"
        }
      ],
      "name": "DAILiquidityTokensReceived",
      "type": "event"
    },
    {
      "anonymous": false,
      "inputs": [
        {
          "indexed": false,
          "internalType": "uint256",
          "name": "",
          "type": "uint256"
        }
      ],
      "name": "ServiceChargeTokensTransferred",
      "type": "event"
    },
    {
      "anonymous": false,
      "inputs": [
        {
          "indexed": false,
          "internalType": "uint256",
          "name": "",
          "type": "uint256"
        },
        {
          "indexed": false,
          "internalType": "uint256",
          "name": "",
          "type": "uint256"
        }
      ],
      "name": "TransferredToUser_liquidityTokens_residualDAI",
      "type": "event"
    },
    {
      "anonymous": false,
      "inputs": [
        {
          "indexed": true,
          "internalType": "address",
          "name": "previousOwner",
          "type": "address"
        },
        {
          "indexed": true,
          "internalType": "address",
          "name": "newOwner",
          "type": "address"
        }
      ],
      "name": "OwnershipTransferred",
      "type": "event"
    },
    {
      "constant": false,
      "inputs": [],
      "name": "toggleContractActive",
      "outputs": [],
      "payable": false,
      "stateMutability": "nonpayable",
      "type": "function"
    },
    {
      "constant": false,
      "inputs": [
        {
          "internalType": "contract UniSwapAddLiquidityZap",
          "name": "_new_UniDAILiquidityContract",
          "type": "address"
        }
      ],
      "name": "set_UniDAILiquidityContract",
      "outputs": [],
      "payable": false,
      "stateMutability": "nonpayable",
      "type": "function"
    },
    {
      "constant": false,
      "inputs": [
        {
          "internalType": "contract IERC20",
          "name": "_new_UniSwapDAIContract",
          "type": "address"
        }
      ],
      "name": "set_UniSwapDAIContract",
      "outputs": [],
      "payable": false,
      "stateMutability": "nonpayable",
      "type": "function"
    },
    {
      "constant": false,
      "inputs": [
        {
          "internalType": "contract IERC20",
          "name": "_new_DAI_TOKEN_ADDRESS",
          "type": "address"
        }
      ],
      "name": "set_DAI_TOKEN_ADDRESS",
      "outputs": [],
      "payable": false,
      "stateMutability": "nonpayable",
      "type": "function"
    },
    {
      "constant": false,
      "inputs": [
        {
          "internalType": "uint256",
          "name": "_new_serviceChargeInBasisPoints",
          "type": "uint256"
        }
      ],
      "name": "set_serviceChargeRate",
      "outputs": [],
      "payable": false,
      "stateMutability": "nonpayable",
      "type": "function"
    },
    {
      "constant": false,
      "inputs": [
        {
          "internalType": "address",
          "name": "_new_ServiceProviderAddress",
          "type": "address"
        }
      ],
      "name": "set_ServiceProviderAddress",
      "outputs": [],
      "payable": false,
      "stateMutability": "nonpayable",
      "type": "function"
    },
    {
      "constant": false,
      "inputs": [],
      "name": "LetsInvest",
      "outputs": [
        {
          "internalType": "bool",
          "name": "",
          "type": "bool"
        }
      ],
      "payable": true,
      "stateMutability": "payable",
      "type": "function"
    },
    {
      "constant": false,
      "inputs": [],
      "name": "withdrawDAI",
      "outputs": [],
      "payable": false,
      "stateMutability": "nonpayable",
      "type": "function"
    },
    {
      "constant": false,
      "inputs": [],
      "name": "withdrawDAILiquityTokens",
      "outputs": [],
      "payable": false,
      "stateMutability": "nonpayable",
      "type": "function"
    },
    {
      "constant": false,
      "inputs": [],
      "name": "depositETH",
      "outputs": [],
      "payable": true,
      "stateMutability": "payable",
      "type": "function"
    },
    {
      "constant": false,
      "inputs": [],
      "name": "withdraw",
      "outputs": [],
      "payable": false,
      "stateMutability": "nonpayable",
      "type": "function"
    }
  ],
  "bytecode": "0x6080604052735d389106ae7bb313d7ec39f71d8f825ed17d7ba1600160006101000a81548173ffffffffffffffffffffffffffffffffffffffff021916908373ffffffffffffffffffffffffffffffffffffffff160217905550732a1530c4c41db0b0b2bb646cb5eb1a67b7158667600260006101000a81548173ffffffffffffffffffffffffffffffffffffffff021916908373ffffffffffffffffffffffffffffffffffffffff160217905550736b175474e89094c44da98b954eedeac495271d0f600360006101000a81548173ffffffffffffffffffffffffffffffffffffffff021916908373ffffffffffffffffffffffffffffffffffffffff16021790555073a3f19470d3fc0c0f69bd82876bd573b592ca9597600460006101000a81548173ffffffffffffffffffffffffffffffffffffffff021916908373ffffffffffffffffffffffffffffffffffffffff1602179055503073ffffffffffffffffffffffffffffffffffffffff163160055560016006556000600760006101000a81548160ff02191690831515021790555060006101ac61026a640100000000026401000000009004565b9050806000806101000a81548173ffffffffffffffffffffffffffffffffffffffff021916908373ffffffffffffffffffffffffffffffffffffffff1602179055508073ffffffffffffffffffffffffffffffffffffffff16600073ffffffffffffffffffffffffffffffffffffffff167f8be0079c531659141344cd1fd0a4f28419497f9722a3daafe3b4186f6b6457e060405160405180910390a3506001600060146101000a81548160ff021916908315150217905550610272565b600033905090565b612652806102816000396000f3fe608060405260043610610147576000357c0100000000000000000000000000000000000000000000000000000000900480638f32d59b116100c8578063b69ef8a81161008c578063b69ef8a814610535578063c26b7c7c14610560578063db190f77146105b1578063e9e9ad4b14610602578063f2fde38b14610659578063f6326fb3146106aa57610147565b80638f32d59b146103b65780639272c341146103e5578063965d360d1461043c57806398d76d3c1461048d578063b2bdfa7b146104de57610147565b80633ccfd60b1161010f5780633ccfd60b146102c35780634c127866146102da578063715018a6146102f157806380ad3008146103085780638da5cb5b1461035f57610147565b8063020bcc9e1461020d57806302c48c3b14610224578063082fef451461025f5780631385d24c146102815780633a12d14c14610298575b6000809054906101000a900473ffffffffffffffffffffffffffffffffffffffff1673ffffffffffffffffffffffffffffffffffffffff163373ffffffffffffffffffffffffffffffffffffffff1614806101ef5750600460009054906101000a900473ffffffffffffffffffffffffffffffffffffffff1673ffffffffffffffffffffffffffffffffffffffff163373ffffffffffffffffffffffffffffffffffffffff16145b15610201576101fc6106b4565b61020b565b6102096107c3565b505b005b34801561021957600080fd5b50610222611137565b005b34801561023057600080fd5b5061025d6004803603602081101561024757600080fd5b81019080803590602001909291905050506113d0565b005b6102676107c3565b604051808215151515815260200191505060405180910390f35b34801561028d57600080fd5b50610296611480565b005b3480156102a457600080fd5b506102ad6115a9565b6040518082815260200191505060405180910390f35b3480156102cf57600080fd5b506102d86115af565b005b3480156102e657600080fd5b506102ef61172d565b005b3480156102fd57600080fd5b506103066119c6565b005b34801561031457600080fd5b5061031d611aff565b604051808273ffffffffffffffffffffffffffffffffffffffff1673ffffffffffffffffffffffffffffffffffffffff16815260200191505060405180910390f35b34801561036b57600080fd5b50610374611b25565b604051808273ffffffffffffffffffffffffffffffffffffffff1673ffffffffffffffffffffffffffffffffffffffff16815260200191505060405180910390f35b3480156103c257600080fd5b506103cb611b4e565b604051808215151515815260200191505060405180910390f35b3480156103f157600080fd5b506103fa611bac565b604051808273ffffffffffffffffffffffffffffffffffffffff1673ffffffffffffffffffffffffffffffffffffffff16815260200191505060405180910390f35b34801561044857600080fd5b5061048b6004803603602081101561045f57600080fd5b81019080803573ffffffffffffffffffffffffffffffffffffffff169060200190929190505050611bd2565b005b34801561049957600080fd5b506104dc600480360360208110156104b057600080fd5b81019080803573ffffffffffffffffffffffffffffffffffffffff169060200190929190505050611d13565b005b3480156104ea57600080fd5b506104f3611dfd565b604051808273ffffffffffffffffffffffffffffffffffffffff1673ffffffffffffffffffffffffffffffffffffffff16815260200191505060405180910390f35b34801561054157600080fd5b5061054a611e22565b6040518082815260200191505060405180910390f35b34801561056c57600080fd5b506105af6004803603602081101561058357600080fd5b81019080803573ffffffffffffffffffffffffffffffffffffffff169060200190929190505050611e28565b005b3480156105bd57600080fd5b50610600600480360360208110156105d457600080fd5b81019080803573ffffffffffffffffffffffffffffffffffffffff169060200190929190505050611f69565b005b34801561060e57600080fd5b506106176120aa565b604051808273ffffffffffffffffffffffffffffffffffffffff1673ffffffffffffffffffffffffffffffffffffffff16815260200191505060405180910390f35b34801561066557600080fd5b506106a86004803603602081101561067c57600080fd5b81019080803573ffffffffffffffffffffffffffffffffffffffff1690602001909291905050506120d0565b005b6106b26106b4565b005b6000809054906101000a900473ffffffffffffffffffffffffffffffffffffffff1673ffffffffffffffffffffffffffffffffffffffff163373ffffffffffffffffffffffffffffffffffffffff16148061075c5750600460009054906101000a900473ffffffffffffffffffffffffffffffffffffffff1673ffffffffffffffffffffffffffffffffffffffff163373ffffffffffffffffffffffffffffffffffffffff16145b6107b1576040517f08c379a00000000000000000000000000000000000000000000000000000000081526004018080602001828103825260248152602001806125436024913960400191505060405180910390fd5b34600560008282540192505081905550565b6000600760009054906101000a900460ff1661113457600060149054906101000a900460ff1661085b576040517f08c379a000000000000000000000000000000000000000000000000000000000815260040180806020018281038252601f8152602001807f5265656e7472616e637947756172643a207265656e7472616e742063616c6c0081525060200191505060405180910390fd5b60008060146101000a81548160ff021916908315150217905550660aa87bee53800034116108f1576040517f08c379a000000000000000000000000000000000000000000000000000000000815260040180806020018281038252601a8152602001807f546f20736d616c6c20616d6f756e742c2072657665727465642100000000000081525060200191505060405180910390fd5b600160009054906101000a900473ffffffffffffffffffffffffffffffffffffffff1673ffffffffffffffffffffffffffffffffffffffff1663082fef45346040518263ffffffff167c01000000000000000000000000000000000000000000000000000000000281526004016020604051808303818588803b15801561097757600080fd5b505af115801561098b573d6000803e3d6000fd5b50505050506040513d60208110156109a257600080fd5b8101908080519060200190929190505050610a25576040517f08c379a00000000000000000000000000000000000000000000000000000000081526004018080602001828103825260138152602001807f4164644c6971756964697479204661696c65640000000000000000000000000081525060200191505060405180910390fd5b6000600260009054906101000a900473ffffffffffffffffffffffffffffffffffffffff1673ffffffffffffffffffffffffffffffffffffffff166370a08231306040518263ffffffff167c0100000000000000000000000000000000000000000000000000000000028152600401808273ffffffffffffffffffffffffffffffffffffffff1673ffffffffffffffffffffffffffffffffffffffff16815260200191505060206040518083038186803b158015610ae257600080fd5b505afa158015610af6573d6000803e3d6000fd5b505050506040513d6020811015610b0c57600080fd5b810190808051906020019092919050505090507feb9f027461de95eca28423cfdb31a05d45fd93825d14164c6c027f15a003463c816040518082815260200191505060405180910390a16000600360009054906101000a900473ffffffffffffffffffffffffffffffffffffffff1673ffffffffffffffffffffffffffffffffffffffff166370a08231306040518263ffffffff167c0100000000000000000000000000000000000000000000000000000000028152600401808273ffffffffffffffffffffffffffffffffffffffff1673ffffffffffffffffffffffffffffffffffffffff16815260200191505060206040518083038186803b158015610c1357600080fd5b505afa158015610c27573d6000803e3d6000fd5b505050506040513d6020811015610c3d57600080fd5b810190808051906020019092919050505090506000610c69610c6184600654612156565b6127106121dc565b9050600260009054906101000a900473ffffffffffffffffffffffffffffffffffffffff1673ffffffffffffffffffffffffffffffffffffffff1663a9059cbb600460009054906101000a900473ffffffffffffffffffffffffffffffffffffffff16836040518363ffffffff167c0100000000000000000000000000000000000000000000000000000000028152600401808373ffffffffffffffffffffffffffffffffffffffff1673ffffffffffffffffffffffffffffffffffffffff16815260200182815260200192505050602060405180830381600087803b158015610d5257600080fd5b505af1158015610d66573d6000803e3d6000fd5b505050506040513d6020811015610d7c57600080fd5b8101908080519060200190929190505050610de2576040517f08c379a00000000000000000000000000000000000000000000000000000000081526004018080602001828103825260238152602001806125fb6023913960400191505060405180910390fd5b7fe1c9613b8ea03bf9b97e267900ab3ef5796b015b8473edf7e8f6f063ff56b030816040518082815260200191505060405180910390a16000610e258483612226565b9050600260009054906101000a900473ffffffffffffffffffffffffffffffffffffffff1673ffffffffffffffffffffffffffffffffffffffff1663a9059cbb33836040518363ffffffff167c0100000000000000000000000000000000000000000000000000000000028152600401808373ffffffffffffffffffffffffffffffffffffffff1673ffffffffffffffffffffffffffffffffffffffff16815260200182815260200192505050602060405180830381600087803b158015610eec57600080fd5b505af1158015610f00573d6000803e3d6000fd5b505050506040513d6020811015610f1657600080fd5b8101908080519060200190929190505050610f7c576040517f08c379a00000000000000000000000000000000000000000000000000000000081526004018080602001828103825260288152602001806125d36028913960400191505060405180910390fd5b600360009054906101000a900473ffffffffffffffffffffffffffffffffffffffff1673ffffffffffffffffffffffffffffffffffffffff1663a9059cbb33856040518363ffffffff167c0100000000000000000000000000000000000000000000000000000000028152600401808373ffffffffffffffffffffffffffffffffffffffff1673ffffffffffffffffffffffffffffffffffffffff16815260200182815260200192505050602060405180830381600087803b15801561104157600080fd5b505af1158015611055573d6000803e3d6000fd5b505050506040513d602081101561106b57600080fd5b81019080805190602001909291905050506110d1576040517f08c379a000000000000000000000000000000000000000000000000000000000815260040180806020018281038252602581526020018061258d6025913960400191505060405180910390fd5b7f9f12e5b133ebd8c797113837f68f668afc095c53779b5ca24c6fe08c0b81e3138184604051808381526020018281526020019250505060405180910390a160019450505050506001600060146101000a81548160ff0219169083151502179055505b90565b61113f611b4e565b6111b1576040517f08c379a00000000000000000000000000000000000000000000000000000000081526004018080602001828103825260208152602001807f4f776e61626c653a2063616c6c6572206973206e6f7420746865206f776e657281525060200191505060405180910390fd5b6000600360009054906101000a900473ffffffffffffffffffffffffffffffffffffffff1673ffffffffffffffffffffffffffffffffffffffff166370a08231306040518263ffffffff167c0100000000000000000000000000000000000000000000000000000000028152600401808273ffffffffffffffffffffffffffffffffffffffff1673ffffffffffffffffffffffffffffffffffffffff16815260200191505060206040518083038186803b15801561126e57600080fd5b505afa158015611282573d6000803e3d6000fd5b505050506040513d602081101561129857600080fd5b81019080805190602001909291905050509050600360009054906101000a900473ffffffffffffffffffffffffffffffffffffffff1673ffffffffffffffffffffffffffffffffffffffff1663a9059cbb6000809054906101000a900473ffffffffffffffffffffffffffffffffffffffff16836040518363ffffffff167c0100000000000000000000000000000000000000000000000000000000028152600401808373ffffffffffffffffffffffffffffffffffffffff1673ffffffffffffffffffffffffffffffffffffffff16815260200182815260200192505050602060405180830381600087803b15801561139157600080fd5b505af11580156113a5573d6000803e3d6000fd5b505050506040513d60208110156113bb57600080fd5b81019080805190602001909291905050505050565b600460009054906101000a900473ffffffffffffffffffffffffffffffffffffffff1673ffffffffffffffffffffffffffffffffffffffff163373ffffffffffffffffffffffffffffffffffffffff1614611476576040517f08c379a00000000000000000000000000000000000000000000000000000000081526004018080602001828103825260248152602001806125436024913960400191505060405180910390fd5b8060068190555050565b6000809054906101000a900473ffffffffffffffffffffffffffffffffffffffff1673ffffffffffffffffffffffffffffffffffffffff163373ffffffffffffffffffffffffffffffffffffffff1614806115285750600460009054906101000a900473ffffffffffffffffffffffffffffffffffffffff1673ffffffffffffffffffffffffffffffffffffffff163373ffffffffffffffffffffffffffffffffffffffff16145b61157d576040517f08c379a00000000000000000000000000000000000000000000000000000000081526004018080602001828103825260248152602001806125436024913960400191505060405180910390fd5b600760009054906101000a900460ff1615600760006101000a81548160ff021916908315150217905550565b60065481565b6000809054906101000a900473ffffffffffffffffffffffffffffffffffffffff1673ffffffffffffffffffffffffffffffffffffffff163373ffffffffffffffffffffffffffffffffffffffff1614806116575750600460009054906101000a900473ffffffffffffffffffffffffffffffffffffffff1673ffffffffffffffffffffffffffffffffffffffff163373ffffffffffffffffffffffffffffffffffffffff16145b6116ac576040517f08c379a00000000000000000000000000000000000000000000000000000000081526004018080602001828103825260248152602001806125436024913960400191505060405180910390fd5b6000809054906101000a900473ffffffffffffffffffffffffffffffffffffffff1673ffffffffffffffffffffffffffffffffffffffff166108fc3073ffffffffffffffffffffffffffffffffffffffff16319081150290604051600060405180830381858888f1935050505015801561172a573d6000803e3d6000fd5b50565b611735611b4e565b6117a7576040517f08c379a00000000000000000000000000000000000000000000000000000000081526004018080602001828103825260208152602001807f4f776e61626c653a2063616c6c6572206973206e6f7420746865206f776e657281525060200191505060405180910390fd5b6000600260009054906101000a900473ffffffffffffffffffffffffffffffffffffffff1673ffffffffffffffffffffffffffffffffffffffff166370a08231306040518263ffffffff167c0100000000000000000000000000000000000000000000000000000000028152600401808273ffffffffffffffffffffffffffffffffffffffff1673ffffffffffffffffffffffffffffffffffffffff16815260200191505060206040518083038186803b15801561186457600080fd5b505afa158015611878573d6000803e3d6000fd5b505050506040513d602081101561188e57600080fd5b81019080805190602001909291905050509050600260009054906101000a900473ffffffffffffffffffffffffffffffffffffffff1673ffffffffffffffffffffffffffffffffffffffff1663a9059cbb6000809054906101000a900473ffffffffffffffffffffffffffffffffffffffff16836040518363ffffffff167c0100000000000000000000000000000000000000000000000000000000028152600401808373ffffffffffffffffffffffffffffffffffffffff1673ffffffffffffffffffffffffffffffffffffffff16815260200182815260200192505050602060405180830381600087803b15801561198757600080fd5b505af115801561199b573d6000803e3d6000fd5b505050506040513d60208110156119b157600080fd5b81019080805190602001909291905050505050565b6119ce611b4e565b611a40576040517f08c379a00000000000000000000000000000000000000000000000000000000081526004018080602001828103825260208152602001807f4f776e61626c653a2063616c6c6572206973206e6f7420746865206f776e657281525060200191505060405180910390fd5b600073ffffffffffffffffffffffffffffffffffffffff166000809054906101000a900473ffffffffffffffffffffffffffffffffffffffff1673ffffffffffffffffffffffffffffffffffffffff167f8be0079c531659141344cd1fd0a4f28419497f9722a3daafe3b4186f6b6457e060405160405180910390a360008060006101000a81548173ffffffffffffffffffffffffffffffffffffffff021916908373ffffffffffffffffffffffffffffffffffffffff160217905550565b600360009054906101000a900473ffffffffffffffffffffffffffffffffffffffff1681565b60008060009054906101000a900473ffffffffffffffffffffffffffffffffffffffff16905090565b60008060009054906101000a900473ffffffffffffffffffffffffffffffffffffffff1673ffffffffffffffffffffffffffffffffffffffff16611b90612270565b73ffffffffffffffffffffffffffffffffffffffff1614905090565b600260009054906101000a900473ffffffffffffffffffffffffffffffffffffffff1681565b6000809054906101000a900473ffffffffffffffffffffffffffffffffffffffff1673ffffffffffffffffffffffffffffffffffffffff163373ffffffffffffffffffffffffffffffffffffffff161480611c7a5750600460009054906101000a900473ffffffffffffffffffffffffffffffffffffffff1673ffffffffffffffffffffffffffffffffffffffff163373ffffffffffffffffffffffffffffffffffffffff16145b611ccf576040517f08c379a00000000000000000000000000000000000000000000000000000000081526004018080602001828103825260248152602001806125436024913960400191505060405180910390fd5b80600160006101000a81548173ffffffffffffffffffffffffffffffffffffffff021916908373ffffffffffffffffffffffffffffffffffffffff16021790555050565b600460009054906101000a900473ffffffffffffffffffffffffffffffffffffffff1673ffffffffffffffffffffffffffffffffffffffff163373ffffffffffffffffffffffffffffffffffffffff1614611db9576040517f08c379a00000000000000000000000000000000000000000000000000000000081526004018080602001828103825260248152602001806125436024913960400191505060405180910390fd5b80600460006101000a81548173ffffffffffffffffffffffffffffffffffffffff021916908373ffffffffffffffffffffffffffffffffffffffff16021790555050565b6000809054906101000a900473ffffffffffffffffffffffffffffffffffffffff1681565b60055481565b6000809054906101000a900473ffffffffffffffffffffffffffffffffffffffff1673ffffffffffffffffffffffffffffffffffffffff163373ffffffffffffffffffffffffffffffffffffffff161480611ed05750600460009054906101000a900473ffffffffffffffffffffffffffffffffffffffff1673ffffffffffffffffffffffffffffffffffffffff163373ffffffffffffffffffffffffffffffffffffffff16145b611f25576040517f08c379a00000000000000000000000000000000000000000000000000000000081526004018080602001828103825260248152602001806125436024913960400191505060405180910390fd5b80600260006101000a81548173ffffffffffffffffffffffffffffffffffffffff021916908373ffffffffffffffffffffffffffffffffffffffff16021790555050565b6000809054906101000a900473ffffffffffffffffffffffffffffffffffffffff1673ffffffffffffffffffffffffffffffffffffffff163373ffffffffffffffffffffffffffffffffffffffff1614806120115750600460009054906101000a900473ffffffffffffffffffffffffffffffffffffffff1673ffffffffffffffffffffffffffffffffffffffff163373ffffffffffffffffffffffffffffffffffffffff16145b612066576040517f08c379a00000000000000000000000000000000000000000000000000000000081526004018080602001828103825260248152602001806125436024913960400191505060405180910390fd5b80600360006101000a81548173ffffffffffffffffffffffffffffffffffffffff021916908373ffffffffffffffffffffffffffffffffffffffff16021790555050565b600460009054906101000a900473ffffffffffffffffffffffffffffffffffffffff1681565b6120d8611b4e565b61214a576040517f08c379a00000000000000000000000000000000000000000000000000000000081526004018080602001828103825260208152602001807f4f776e61626c653a2063616c6c6572206973206e6f7420746865206f776e657281525060200191505060405180910390fd5b61215381612278565b50565b60008083141561216957600090506121d6565b600082840290508284828161217a57fe5b04146121d1576040517f08c379a00000000000000000000000000000000000000000000000000000000081526004018080602001828103825260218152602001806125b26021913960400191505060405180910390fd5b809150505b92915050565b600061221e83836040518060400160405280601a81526020017f536166654d6174683a206469766973696f6e206279207a65726f0000000000008152506123bc565b905092915050565b600061226883836040518060400160405280601e81526020017f536166654d6174683a207375627472616374696f6e206f766572666c6f770000815250612482565b905092915050565b600033905090565b600073ffffffffffffffffffffffffffffffffffffffff168173ffffffffffffffffffffffffffffffffffffffff1614156122fe576040517f08c379a00000000000000000000000000000000000000000000000000000000081526004018080602001828103825260268152602001806125676026913960400191505060405180910390fd5b8073ffffffffffffffffffffffffffffffffffffffff166000809054906101000a900473ffffffffffffffffffffffffffffffffffffffff1673ffffffffffffffffffffffffffffffffffffffff167f8be0079c531659141344cd1fd0a4f28419497f9722a3daafe3b4186f6b6457e060405160405180910390a3806000806101000a81548173ffffffffffffffffffffffffffffffffffffffff021916908373ffffffffffffffffffffffffffffffffffffffff16021790555050565b60008083118290612468576040517f08c379a00000000000000000000000000000000000000000000000000000000081526004018080602001828103825283818151815260200191508051906020019080838360005b8381101561242d578082015181840152602081019050612412565b50505050905090810190601f16801561245a5780820380516001836020036101000a031916815260200191505b509250505060405180910390fd5b50600083858161247457fe5b049050809150509392505050565b600083831115829061252f576040517f08c379a00000000000000000000000000000000000000000000000000000000081526004018080602001828103825283818151815260200191508051906020019080838360005b838110156124f45780820151818401526020810190506124d9565b50505050905090810190601f1680156125215780820380516001836020036101000a031916815260200191505b509250505060405180910390fd5b506000838503905080915050939250505056fe4e6f7420617574686f726973656420746f2063616c6c20746869732066756e6374696f6e4f776e61626c653a206e6577206f776e657220697320746865207a65726f20616464726573734661696c75726520746f2073656e6420726573696475616c2044414920686f6c64696e6773536166654d6174683a206d756c7469706c69636174696f6e206f766572666c6f774661696c75726520746f2073656e64204c697175696469747920546f6b656e7320746f20557365724661696c75726520746f2073656e642053657276696365436861726765546f6b656e73a265627a7a72315820615df487fcbbb5ac0392e70f937cb6ab05cb7a46f6ddae2a171f7c6224658c2464736f6c634300050b0032",
  "source": "pragma solidity ^0.5.0;\n\nimport './OpenZepplinOwnable.sol';\nimport './OpenZepplinSafeMath.sol';\nimport './OpenZepplinIERC20.sol';\nimport './OpenZepplinReentrancyGuard.sol';\n\n\n// Interface for ETH_DAI_Addliquidity\ninterface UniSwapAddLiquidityZap{\n    function LetsInvest() external payable returns (bool);\n}\n\n// Objectives\n// - PoolsFYI users should be able to send ETH to the ETH_DAI_ZAP contract and get the UniTokens and the residual DAI tokens\n// - PoolsFYI Wallet address should be able to provide a commission rate in percentage\n// - PoolsFYI should receive its commission from the incomimg UniTokens\n// - The commission tokens should be sent to PoolsFYI Wallet wallet address immediately \n\n\ncontract ServiceProvider_UniSwap_ETH_DAI_Zap is Ownable, ReentrancyGuard {\n    using SafeMath for uint;\n\n    UniSwapAddLiquidityZap UniDAILiquidityContract = UniSwapAddLiquidityZap(0x5d389106Ae7bB313d7eC39F71D8F825Ed17D7ba1);\n    IERC20 public UniSwapDAIContract = IERC20(0x2a1530C4C41db0B0b2bB646CB5Eb1A67b7158667);\n    IERC20 public DAI_TOKEN_ADDRESS = IERC20(0x6B175474E89094C44Da98b954EedeAC495271d0F);\n    address public ServiceProviderAddress = address(0xA3F19470d3Fc0c0F69bD82876bd573B592cA9597);\n\n    uint public balance = address(this).balance;\n    uint public serviceChargeInBasisPoints = 1;\n    \n    // - in relation to the emergency functioning of this contract\n    bool private stopped = false;\n\n    // circuit breaker modifiers\n    modifier stopInEmergency {if (!stopped) _;}\n    modifier OwnerOrServiceProvider {\n        require((msg.sender == _owner || msg.sender == ServiceProviderAddress), \"Not authorised to call this function\");\n        _;\n    }\n    modifier OnlyServiceProvider {\n        require((msg.sender == ServiceProviderAddress), \"Not authorised to call this function\");\n        _;\n    }\n\n    event DAILiquidityTokensReceived(uint);\n    event ServiceChargeTokensTransferred(uint);\n    event TransferredToUser_liquidityTokens_residualDAI(uint, uint);\n\n    function toggleContractActive() public OwnerOrServiceProvider {\n    stopped = !stopped;\n    }\n\n    \n    // should we ever want to change the address of UniDAILiquidityContract\n    function set_UniDAILiquidityContract(UniSwapAddLiquidityZap _new_UniDAILiquidityContract) public OwnerOrServiceProvider  {\n        UniDAILiquidityContract = _new_UniDAILiquidityContract;\n    }\n\n    // should we ever want to change the address of the UniSwapDAIContract\n    function set_UniSwapDAIContract (IERC20 _new_UniSwapDAIContract) public OwnerOrServiceProvider {\n        UniSwapDAIContract = _new_UniSwapDAIContract;\n    }\n    \n    // should we ever want to change the address of the DAI_TOKEN_ADDRESS Contract\n    function set_DAI_TOKEN_ADDRESS (IERC20 _new_DAI_TOKEN_ADDRESS) public OwnerOrServiceProvider {\n        DAI_TOKEN_ADDRESS = _new_DAI_TOKEN_ADDRESS;\n    }\n\n    // should the ServiceProvider ever want to change the Service Charge rate\n    function set_serviceChargeRate (uint _new_serviceChargeInBasisPoints) public OnlyServiceProvider {\n        serviceChargeInBasisPoints = _new_serviceChargeInBasisPoints;\n    }\n\n    // should the ServiceProvider ever want to change its wallet address\n    function set_ServiceProviderAddress (address _new_ServiceProviderAddress) public OnlyServiceProvider {\n        ServiceProviderAddress = _new_ServiceProviderAddress;\n    }\n\n\n    function LetsInvest() public payable stopInEmergency nonReentrant returns (bool) {\n        //some basic checks\n        require(msg.value > 0.003 ether, \"To small amount, reverted!\");\n        require(UniDAILiquidityContract.LetsInvest.value(msg.value)(), \"AddLiquidity Failed\");\n\n        // finding out the UniTokens received and the residual DAI Tokens Received\n        uint DAILiquidityTokens = UniSwapDAIContract.balanceOf(address(this));\n        emit DAILiquidityTokensReceived(DAILiquidityTokens);\n        uint residualDAIHoldings = DAI_TOKEN_ADDRESS.balanceOf(address(this));\n\n        // Adjusting for ServiceCharge\n        uint ServiceCharegeTokens = SafeMath.div(SafeMath.mul(DAILiquidityTokens,serviceChargeInBasisPoints),10000);\n        // Transfering of the ServiceChargeTokens\n        require(UniSwapDAIContract.transfer(ServiceProviderAddress, ServiceCharegeTokens), \"Failure to send ServiceChargeTokens\");\n        emit ServiceChargeTokensTransferred(ServiceCharegeTokens);\n\n        // Sending Back the Balance LiquityTokens and residual DAI Tokens to user\n        uint UserLiquidityTokens = SafeMath.sub(DAILiquidityTokens,ServiceCharegeTokens);\n        require(UniSwapDAIContract.transfer(msg.sender, UserLiquidityTokens), \"Failure to send Liquidity Tokens to User\");\n        require(DAI_TOKEN_ADDRESS.transfer(msg.sender, residualDAIHoldings), \"Failure to send residual DAI holdings\");\n        emit TransferredToUser_liquidityTokens_residualDAI(UserLiquidityTokens, residualDAIHoldings);\n        return true;\n    }\n\n    // incase of half-way error\n    function withdrawDAI() public onlyOwner {\n        uint StuckDAIHoldings = DAI_TOKEN_ADDRESS.balanceOf(address(this));\n        DAI_TOKEN_ADDRESS.transfer(_owner, StuckDAIHoldings);\n    }\n    \n    function withdrawDAILiquityTokens() public onlyOwner {\n        uint StuckDAILiquityTokens = UniSwapDAIContract.balanceOf(address(this));\n        UniSwapDAIContract.transfer(_owner, StuckDAILiquityTokens);\n    }\n\n    \n    // fx in relation to ETH held by the contract sent by the owner\n    \n    // - this function lets you deposit ETH into this wallet\n    function depositETH() public payable OwnerOrServiceProvider {\n        balance += msg.value;\n    }\n    \n    // - fallback function let you / anyone send ETH to this wallet without the need to call any function\n    function() external payable {\n        if (msg.sender == _owner || msg.sender == ServiceProviderAddress) {\n            depositETH();\n        } else {\n            LetsInvest();\n        }\n    }\n    \n    // - to withdraw any ETH balance sitting in the contract\n    function withdraw() public OwnerOrServiceProvider {\n        _owner.transfer(address(this).balance);\n    }\n\n\n}",
  "sourcePath": "/Users/dipeshsukhani/Desktop/Coding/DockerMounting/Python/allFolders/RemixSharedFolder/contracts/PoolsFYI_UniSwapPool_ETH_DAI.sol",
  "compiler": {
    "name": "solc",
    "version": "0.5.11+commit.c082d0b4.Emscripten.clang"
  },
  "schemaVersion": "3.0.1",
  "updatedAt": "2019-12-04T23:01:32.524Z",
  "devdoc": {
    "methods": {
      "isOwner()": {
        "details": "Returns true if the caller is the current owner."
      },
      "owner()": {
        "details": "Returns the address of the current owner."
      },
      "renounceOwnership()": {
        "details": "Leaves the contract without owner. It will not be possible to call `onlyOwner` functions anymore. Can only be called by the current owner.     * NOTE: Renouncing ownership will leave the contract without an owner, thereby removing any functionality that is only available to the owner."
      },
      "transferOwnership(address)": {
        "details": "Transfers ownership of the contract to a new account (`newOwner`). Can only be called by the current owner."
      }
    }
  },
  "userdoc": {
    "methods": {}
  }
}