{
  "contractName": "ServiceProvider_UniSwap_ETH_DAI_Zap",
  "abi": [
    {
      "constant": false,
      "inputs": [],
      "name": "renounceOwnership",
      "outputs": [],
      "payable": false,
      "stateMutability": "nonpayable",
      "type": "function"
    },
    {
      "constant": true,
      "inputs": [],
      "name": "DAI_TOKEN_ADDRESS",
      "outputs": [
        {
          "internalType": "contract IERC20",
          "name": "",
          "type": "address"
        }
      ],
      "payable": false,
      "stateMutability": "view",
      "type": "function"
    },
    {
      "constant": true,
      "inputs": [],
      "name": "owner",
      "outputs": [
        {
          "internalType": "address",
          "name": "",
          "type": "address"
        }
      ],
      "payable": false,
      "stateMutability": "view",
      "type": "function"
    },
    {
      "constant": true,
      "inputs": [],
      "name": "isOwner",
      "outputs": [
        {
          "internalType": "bool",
          "name": "",
          "type": "bool"
        }
      ],
      "payable": false,
      "stateMutability": "view",
      "type": "function"
    },
    {
      "constant": true,
      "inputs": [],
      "name": "UniSwapDAIContract",
      "outputs": [
        {
          "internalType": "contract IERC20",
          "name": "",
          "type": "address"
        }
      ],
      "payable": false,
      "stateMutability": "view",
      "type": "function"
    },
    {
      "constant": true,
      "inputs": [],
      "name": "_owner",
      "outputs": [
        {
          "internalType": "address payable",
          "name": "",
          "type": "address"
        }
      ],
      "payable": false,
      "stateMutability": "view",
      "type": "function"
    },
    {
      "constant": true,
      "inputs": [],
      "name": "balance",
      "outputs": [
        {
          "internalType": "uint256",
          "name": "",
          "type": "uint256"
        }
      ],
      "payable": false,
      "stateMutability": "view",
      "type": "function"
    },
    {
      "constant": true,
      "inputs": [],
      "name": "ServiceProviderAddress",
      "outputs": [
        {
          "internalType": "address",
          "name": "",
          "type": "address"
        }
      ],
      "payable": false,
      "stateMutability": "view",
      "type": "function"
    },
    {
      "constant": false,
      "inputs": [
        {
          "internalType": "address payable",
          "name": "newOwner",
          "type": "address"
        }
      ],
      "name": "transferOwnership",
      "outputs": [],
      "payable": false,
      "stateMutability": "nonpayable",
      "type": "function"
    },
    {
      "payable": true,
      "stateMutability": "payable",
      "type": "fallback"
    },
    {
      "anonymous": false,
      "inputs": [
        {
          "indexed": false,
          "internalType": "uint256",
          "name": "",
          "type": "uint256"
        }
      ],
      "name": "DAILiquidityTokensReceived",
      "type": "event"
    },
    {
      "anonymous": false,
      "inputs": [
        {
          "indexed": false,
          "internalType": "uint256",
          "name": "",
          "type": "uint256"
        }
      ],
      "name": "ServiceChargeTokensTransferred",
      "type": "event"
    },
    {
      "anonymous": false,
      "inputs": [
        {
          "indexed": false,
          "internalType": "uint256",
          "name": "",
          "type": "uint256"
        },
        {
          "indexed": false,
          "internalType": "uint256",
          "name": "",
          "type": "uint256"
        }
      ],
      "name": "TransferredToUser_liquidityTokens_residualDAI",
      "type": "event"
    },
    {
      "anonymous": false,
      "inputs": [
        {
          "indexed": true,
          "internalType": "address",
          "name": "previousOwner",
          "type": "address"
        },
        {
          "indexed": true,
          "internalType": "address",
          "name": "newOwner",
          "type": "address"
        }
      ],
      "name": "OwnershipTransferred",
      "type": "event"
    },
    {
      "constant": false,
      "inputs": [],
      "name": "toggleContractActive",
      "outputs": [],
      "payable": false,
      "stateMutability": "nonpayable",
      "type": "function"
    },
    {
      "constant": false,
      "inputs": [
        {
          "internalType": "contract UniSwapAddLiquidityZap",
          "name": "_new_UniDAILiquidityContract",
          "type": "address"
        }
      ],
      "name": "set_UniDAILiquidityContract",
      "outputs": [],
      "payable": false,
      "stateMutability": "nonpayable",
      "type": "function"
    },
    {
      "constant": false,
      "inputs": [
        {
          "internalType": "contract IERC20",
          "name": "_new_UniSwapDAIContract",
          "type": "address"
        }
      ],
      "name": "set_UniSwapDAIContract",
      "outputs": [],
      "payable": false,
      "stateMutability": "nonpayable",
      "type": "function"
    },
    {
      "constant": false,
      "inputs": [
        {
          "internalType": "contract IERC20",
          "name": "_new_DAI_TOKEN_ADDRESS",
          "type": "address"
        }
      ],
      "name": "set_DAI_TOKEN_ADDRESS",
      "outputs": [],
      "payable": false,
      "stateMutability": "nonpayable",
      "type": "function"
    },
    {
      "constant": false,
      "inputs": [],
      "name": "get_serviceChargeRate",
      "outputs": [
        {
          "internalType": "uint256",
          "name": "",
          "type": "uint256"
        }
      ],
      "payable": false,
      "stateMutability": "nonpayable",
      "type": "function"
    },
    {
      "constant": false,
      "inputs": [
        {
          "internalType": "uint256",
          "name": "_new_serviceChargeInBasisPoints",
          "type": "uint256"
        }
      ],
      "name": "set_serviceChargeRate",
      "outputs": [],
      "payable": false,
      "stateMutability": "nonpayable",
      "type": "function"
    },
    {
      "constant": false,
      "inputs": [
        {
          "internalType": "address",
          "name": "_new_ServiceProviderAddress",
          "type": "address"
        }
      ],
      "name": "set_ServiceProviderAddress",
      "outputs": [],
      "payable": false,
      "stateMutability": "nonpayable",
      "type": "function"
    },
    {
      "constant": false,
      "inputs": [],
      "name": "LetsInvest",
      "outputs": [
        {
          "internalType": "bool",
          "name": "",
          "type": "bool"
        }
      ],
      "payable": true,
      "stateMutability": "payable",
      "type": "function"
    },
    {
      "constant": false,
      "inputs": [],
      "name": "get_TotalServiceChargeTokens",
      "outputs": [
        {
          "internalType": "uint256",
          "name": "",
          "type": "uint256"
        }
      ],
      "payable": false,
      "stateMutability": "nonpayable",
      "type": "function"
    },
    {
      "constant": false,
      "inputs": [
        {
          "internalType": "uint256",
          "name": "_amountInUnits",
          "type": "uint256"
        }
      ],
      "name": "withdrawServiceChargeTokens",
      "outputs": [],
      "payable": false,
      "stateMutability": "nonpayable",
      "type": "function"
    },
    {
      "constant": false,
      "inputs": [
        {
          "internalType": "contract IERC20",
          "name": "_targetContractAddress",
          "type": "address"
        }
      ],
      "name": "withdrawAnyOtherERC20Token",
      "outputs": [],
      "payable": false,
      "stateMutability": "nonpayable",
      "type": "function"
    },
    {
      "constant": false,
      "inputs": [],
      "name": "withdrawDAI",
      "outputs": [],
      "payable": false,
      "stateMutability": "nonpayable",
      "type": "function"
    },
    {
      "constant": false,
      "inputs": [],
      "name": "withdrawDAILiquityTokens",
      "outputs": [],
      "payable": false,
      "stateMutability": "nonpayable",
      "type": "function"
    },
    {
      "constant": false,
      "inputs": [],
      "name": "depositETH",
      "outputs": [],
      "payable": true,
      "stateMutability": "payable",
      "type": "function"
    },
    {
      "constant": false,
      "inputs": [],
      "name": "withdraw",
      "outputs": [],
      "payable": false,
      "stateMutability": "nonpayable",
      "type": "function"
    }
  ],
  "bytecode": "0x6080604052735d389106ae7bb313d7ec39f71d8f825ed17d7ba1600160006101000a81548173ffffffffffffffffffffffffffffffffffffffff021916908373ffffffffffffffffffffffffffffffffffffffff160217905550732a1530c4c41db0b0b2bb646cb5eb1a67b7158667600260006101000a81548173ffffffffffffffffffffffffffffffffffffffff021916908373ffffffffffffffffffffffffffffffffffffffff160217905550736b175474e89094c44da98b954eedeac495271d0f600360006101000a81548173ffffffffffffffffffffffffffffffffffffffff021916908373ffffffffffffffffffffffffffffffffffffffff16021790555073a3f19470d3fc0c0f69bd82876bd573b592ca9597600460006101000a81548173ffffffffffffffffffffffffffffffffffffffff021916908373ffffffffffffffffffffffffffffffffffffffff1602179055503073ffffffffffffffffffffffffffffffffffffffff163160055560006007556000600860006101000a81548160ff02191690831515021790555060006101ac61026a640100000000026401000000009004565b9050806000806101000a81548173ffffffffffffffffffffffffffffffffffffffff021916908373ffffffffffffffffffffffffffffffffffffffff1602179055508073ffffffffffffffffffffffffffffffffffffffff16600073ffffffffffffffffffffffffffffffffffffffff167f8be0079c531659141344cd1fd0a4f28419497f9722a3daafe3b4186f6b6457e060405160405180910390a3506001600060146101000a81548160ff021916908315150217905550610272565b600033905090565b612735806102816000396000f3fe608060405260043610610168576000357c0100000000000000000000000000000000000000000000000000000000900480639272c341116100d3578063bb1f88fb1161008c578063bb1f88fb146105a5578063c26b7c7c146105e0578063db190f7714610631578063e9e9ad4b14610682578063f2fde38b146106d9578063f6326fb31461072a57610168565b80639272c341146103ff578063965d360d1461045657806398d76d3c146104a7578063a34cf319146104f8578063b2bdfa7b14610523578063b69ef8a81461057a57610168565b80634c127866116101255780634c127866146102a357806366d97c29146102ba578063715018a61461030b57806380ad3008146103225780638da5cb5b146103795780638f32d59b146103d057610168565b8063020bcc9e146101d657806302c48c3b146101ed578063082fef45146102285780631385d24c1461024a5780632a340dcf146102615780633ccfd60b1461028c575b6000809054906101000a900473ffffffffffffffffffffffffffffffffffffffff1673ffffffffffffffffffffffffffffffffffffffff163373ffffffffffffffffffffffffffffffffffffffff1614156101ca576101c5610734565b6101d4565b6101d26107c0565b505b005b3480156101e257600080fd5b506101eb610f15565b005b3480156101f957600080fd5b506102266004803603602081101561021057600080fd5b81019080803590602001909291905050506111ae565b005b6102306107c0565b604051808215151515815260200191505060405180910390f35b34801561025657600080fd5b5061025f611232565b005b34801561026d57600080fd5b506102766112d8565b6040518082815260200191505060405180910390f35b34801561029857600080fd5b506102a161135c565b005b3480156102af57600080fd5b506102b8611457565b005b3480156102c657600080fd5b50610309600480360360208110156102dd57600080fd5b81019080803573ffffffffffffffffffffffffffffffffffffffff1690602001909291905050506116f0565b005b34801561031757600080fd5b50610320611947565b005b34801561032e57600080fd5b50610337611a80565b604051808273ffffffffffffffffffffffffffffffffffffffff1673ffffffffffffffffffffffffffffffffffffffff16815260200191505060405180910390f35b34801561038557600080fd5b5061038e611aa6565b604051808273ffffffffffffffffffffffffffffffffffffffff1673ffffffffffffffffffffffffffffffffffffffff16815260200191505060405180910390f35b3480156103dc57600080fd5b506103e5611acf565b604051808215151515815260200191505060405180910390f35b34801561040b57600080fd5b50610414611b2d565b604051808273ffffffffffffffffffffffffffffffffffffffff1673ffffffffffffffffffffffffffffffffffffffff16815260200191505060405180910390f35b34801561046257600080fd5b506104a56004803603602081101561047957600080fd5b81019080803573ffffffffffffffffffffffffffffffffffffffff169060200190929190505050611b53565b005b3480156104b357600080fd5b506104f6600480360360208110156104ca57600080fd5b81019080803573ffffffffffffffffffffffffffffffffffffffff169060200190929190505050611c11565b005b34801561050457600080fd5b5061050d611ccf565b6040518082815260200191505060405180910390f35b34801561052f57600080fd5b50610538611d53565b604051808273ffffffffffffffffffffffffffffffffffffffff1673ffffffffffffffffffffffffffffffffffffffff16815260200191505060405180910390f35b34801561058657600080fd5b5061058f611d78565b6040518082815260200191505060405180910390f35b3480156105b157600080fd5b506105de600480360360208110156105c857600080fd5b8101908080359060200190929190505050611d7e565b005b3480156105ec57600080fd5b5061062f6004803603602081101561060357600080fd5b81019080803573ffffffffffffffffffffffffffffffffffffffff169060200190929190505050612004565b005b34801561063d57600080fd5b506106806004803603602081101561065457600080fd5b81019080803573ffffffffffffffffffffffffffffffffffffffff1690602001909291905050506120c2565b005b34801561068e57600080fd5b50610697612180565b604051808273ffffffffffffffffffffffffffffffffffffffff1673ffffffffffffffffffffffffffffffffffffffff16815260200191505060405180910390f35b3480156106e557600080fd5b50610728600480360360208110156106fc57600080fd5b81019080803573ffffffffffffffffffffffffffffffffffffffff1690602001909291905050506121a6565b005b610732610734565b005b61073c611acf565b6107ae576040517f08c379a00000000000000000000000000000000000000000000000000000000081526004018080602001828103825260208152602001807f4f776e61626c653a2063616c6c6572206973206e6f7420746865206f776e657281525060200191505060405180910390fd5b34600560008282540192505081905550565b6000600860009054906101000a900460ff16610f1257600060149054906101000a900460ff16610858576040517f08c379a000000000000000000000000000000000000000000000000000000000815260040180806020018281038252601f8152602001807f5265656e7472616e637947756172643a207265656e7472616e742063616c6c0081525060200191505060405180910390fd5b60008060146101000a81548160ff021916908315150217905550600160009054906101000a900473ffffffffffffffffffffffffffffffffffffffff1673ffffffffffffffffffffffffffffffffffffffff1663082fef45346040518263ffffffff167c01000000000000000000000000000000000000000000000000000000000281526004016020604051808303818588803b1580156108f857600080fd5b505af115801561090c573d6000803e3d6000fd5b50505050506040513d602081101561092357600080fd5b81019080805190602001909291905050506109a6576040517f08c379a00000000000000000000000000000000000000000000000000000000081526004018080602001828103825260138152602001807f4164644c6971756964697479204661696c65640000000000000000000000000081525060200191505060405180910390fd5b6000600260009054906101000a900473ffffffffffffffffffffffffffffffffffffffff1673ffffffffffffffffffffffffffffffffffffffff166370a08231306040518263ffffffff167c0100000000000000000000000000000000000000000000000000000000028152600401808273ffffffffffffffffffffffffffffffffffffffff1673ffffffffffffffffffffffffffffffffffffffff16815260200191505060206040518083038186803b158015610a6357600080fd5b505afa158015610a77573d6000803e3d6000fd5b505050506040513d6020811015610a8d57600080fd5b810190808051906020019092919050505090507feb9f027461de95eca28423cfdb31a05d45fd93825d14164c6c027f15a003463c816040518082815260200191505060405180910390a16000600360009054906101000a900473ffffffffffffffffffffffffffffffffffffffff1673ffffffffffffffffffffffffffffffffffffffff166370a08231306040518263ffffffff167c0100000000000000000000000000000000000000000000000000000000028152600401808273ffffffffffffffffffffffffffffffffffffffff1673ffffffffffffffffffffffffffffffffffffffff16815260200191505060206040518083038186803b158015610b9457600080fd5b505afa158015610ba8573d6000803e3d6000fd5b505050506040513d6020811015610bbe57600080fd5b810190808051906020019092919050505090506000610bea610be28460075461222c565b6127106122b2565b905080600654016006819055506000610c0384836122fc565b9050600260009054906101000a900473ffffffffffffffffffffffffffffffffffffffff1673ffffffffffffffffffffffffffffffffffffffff1663a9059cbb33836040518363ffffffff167c0100000000000000000000000000000000000000000000000000000000028152600401808373ffffffffffffffffffffffffffffffffffffffff1673ffffffffffffffffffffffffffffffffffffffff16815260200182815260200192505050602060405180830381600087803b158015610cca57600080fd5b505af1158015610cde573d6000803e3d6000fd5b505050506040513d6020811015610cf457600080fd5b8101908080519060200190929190505050610d5a576040517f08c379a00000000000000000000000000000000000000000000000000000000081526004018080602001828103825260288152602001806126b66028913960400191505060405180910390fd5b600360009054906101000a900473ffffffffffffffffffffffffffffffffffffffff1673ffffffffffffffffffffffffffffffffffffffff1663a9059cbb33856040518363ffffffff167c0100000000000000000000000000000000000000000000000000000000028152600401808373ffffffffffffffffffffffffffffffffffffffff1673ffffffffffffffffffffffffffffffffffffffff16815260200182815260200192505050602060405180830381600087803b158015610e1f57600080fd5b505af1158015610e33573d6000803e3d6000fd5b505050506040513d6020811015610e4957600080fd5b8101908080519060200190929190505050610eaf576040517f08c379a00000000000000000000000000000000000000000000000000000000081526004018080602001828103825260258152602001806126706025913960400191505060405180910390fd5b7f9f12e5b133ebd8c797113837f68f668afc095c53779b5ca24c6fe08c0b81e3138184604051808381526020018281526020019250505060405180910390a160019450505050506001600060146101000a81548160ff0219169083151502179055505b90565b610f1d611acf565b610f8f576040517f08c379a00000000000000000000000000000000000000000000000000000000081526004018080602001828103825260208152602001807f4f776e61626c653a2063616c6c6572206973206e6f7420746865206f776e657281525060200191505060405180910390fd5b6000600360009054906101000a900473ffffffffffffffffffffffffffffffffffffffff1673ffffffffffffffffffffffffffffffffffffffff166370a08231306040518263ffffffff167c0100000000000000000000000000000000000000000000000000000000028152600401808273ffffffffffffffffffffffffffffffffffffffff1673ffffffffffffffffffffffffffffffffffffffff16815260200191505060206040518083038186803b15801561104c57600080fd5b505afa158015611060573d6000803e3d6000fd5b505050506040513d602081101561107657600080fd5b81019080805190602001909291905050509050600360009054906101000a900473ffffffffffffffffffffffffffffffffffffffff1673ffffffffffffffffffffffffffffffffffffffff1663a9059cbb6000809054906101000a900473ffffffffffffffffffffffffffffffffffffffff16836040518363ffffffff167c0100000000000000000000000000000000000000000000000000000000028152600401808373ffffffffffffffffffffffffffffffffffffffff1673ffffffffffffffffffffffffffffffffffffffff16815260200182815260200192505050602060405180830381600087803b15801561116f57600080fd5b505af1158015611183573d6000803e3d6000fd5b505050506040513d602081101561119957600080fd5b81019080805190602001909291905050505050565b6111b6611acf565b611228576040517f08c379a00000000000000000000000000000000000000000000000000000000081526004018080602001828103825260208152602001807f4f776e61626c653a2063616c6c6572206973206e6f7420746865206f776e657281525060200191505060405180910390fd5b8060078190555050565b61123a611acf565b6112ac576040517f08c379a00000000000000000000000000000000000000000000000000000000081526004018080602001828103825260208152602001807f4f776e61626c653a2063616c6c6572206973206e6f7420746865206f776e657281525060200191505060405180910390fd5b600860009054906101000a900460ff1615600860006101000a81548160ff021916908315150217905550565b60006112e2611acf565b611354576040517f08c379a00000000000000000000000000000000000000000000000000000000081526004018080602001828103825260208152602001807f4f776e61626c653a2063616c6c6572206973206e6f7420746865206f776e657281525060200191505060405180910390fd5b600754905090565b611364611acf565b6113d6576040517f08c379a00000000000000000000000000000000000000000000000000000000081526004018080602001828103825260208152602001807f4f776e61626c653a2063616c6c6572206973206e6f7420746865206f776e657281525060200191505060405180910390fd5b6000809054906101000a900473ffffffffffffffffffffffffffffffffffffffff1673ffffffffffffffffffffffffffffffffffffffff166108fc3073ffffffffffffffffffffffffffffffffffffffff16319081150290604051600060405180830381858888f19350505050158015611454573d6000803e3d6000fd5b50565b61145f611acf565b6114d1576040517f08c379a00000000000000000000000000000000000000000000000000000000081526004018080602001828103825260208152602001807f4f776e61626c653a2063616c6c6572206973206e6f7420746865206f776e657281525060200191505060405180910390fd5b6000600260009054906101000a900473ffffffffffffffffffffffffffffffffffffffff1673ffffffffffffffffffffffffffffffffffffffff166370a08231306040518263ffffffff167c0100000000000000000000000000000000000000000000000000000000028152600401808273ffffffffffffffffffffffffffffffffffffffff1673ffffffffffffffffffffffffffffffffffffffff16815260200191505060206040518083038186803b15801561158e57600080fd5b505afa1580156115a2573d6000803e3d6000fd5b505050506040513d60208110156115b857600080fd5b81019080805190602001909291905050509050600260009054906101000a900473ffffffffffffffffffffffffffffffffffffffff1673ffffffffffffffffffffffffffffffffffffffff1663a9059cbb6000809054906101000a900473ffffffffffffffffffffffffffffffffffffffff16836040518363ffffffff167c0100000000000000000000000000000000000000000000000000000000028152600401808373ffffffffffffffffffffffffffffffffffffffff1673ffffffffffffffffffffffffffffffffffffffff16815260200182815260200192505050602060405180830381600087803b1580156116b157600080fd5b505af11580156116c5573d6000803e3d6000fd5b505050506040513d60208110156116db57600080fd5b81019080805190602001909291905050505050565b6116f8611acf565b61176a576040517f08c379a00000000000000000000000000000000000000000000000000000000081526004018080602001828103825260208152602001807f4f776e61626c653a2063616c6c6572206973206e6f7420746865206f776e657281525060200191505060405180910390fd5b60008173ffffffffffffffffffffffffffffffffffffffff166370a08231306040518263ffffffff167c0100000000000000000000000000000000000000000000000000000000028152600401808273ffffffffffffffffffffffffffffffffffffffff1673ffffffffffffffffffffffffffffffffffffffff16815260200191505060206040518083038186803b15801561180557600080fd5b505afa158015611819573d6000803e3d6000fd5b505050506040513d602081101561182f57600080fd5b810190808051906020019092919050505090508173ffffffffffffffffffffffffffffffffffffffff1663a9059cbb600460009054906101000a900473ffffffffffffffffffffffffffffffffffffffff16836040518363ffffffff167c0100000000000000000000000000000000000000000000000000000000028152600401808373ffffffffffffffffffffffffffffffffffffffff1673ffffffffffffffffffffffffffffffffffffffff16815260200182815260200192505050602060405180830381600087803b15801561190757600080fd5b505af115801561191b573d6000803e3d6000fd5b505050506040513d602081101561193157600080fd5b8101908080519060200190929190505050505050565b61194f611acf565b6119c1576040517f08c379a00000000000000000000000000000000000000000000000000000000081526004018080602001828103825260208152602001807f4f776e61626c653a2063616c6c6572206973206e6f7420746865206f776e657281525060200191505060405180910390fd5b600073ffffffffffffffffffffffffffffffffffffffff166000809054906101000a900473ffffffffffffffffffffffffffffffffffffffff1673ffffffffffffffffffffffffffffffffffffffff167f8be0079c531659141344cd1fd0a4f28419497f9722a3daafe3b4186f6b6457e060405160405180910390a360008060006101000a81548173ffffffffffffffffffffffffffffffffffffffff021916908373ffffffffffffffffffffffffffffffffffffffff160217905550565b600360009054906101000a900473ffffffffffffffffffffffffffffffffffffffff1681565b60008060009054906101000a900473ffffffffffffffffffffffffffffffffffffffff16905090565b60008060009054906101000a900473ffffffffffffffffffffffffffffffffffffffff1673ffffffffffffffffffffffffffffffffffffffff16611b11612346565b73ffffffffffffffffffffffffffffffffffffffff1614905090565b600260009054906101000a900473ffffffffffffffffffffffffffffffffffffffff1681565b611b5b611acf565b611bcd576040517f08c379a00000000000000000000000000000000000000000000000000000000081526004018080602001828103825260208152602001807f4f776e61626c653a2063616c6c6572206973206e6f7420746865206f776e657281525060200191505060405180910390fd5b80600160006101000a81548173ffffffffffffffffffffffffffffffffffffffff021916908373ffffffffffffffffffffffffffffffffffffffff16021790555050565b611c19611acf565b611c8b576040517f08c379a00000000000000000000000000000000000000000000000000000000081526004018080602001828103825260208152602001807f4f776e61626c653a2063616c6c6572206973206e6f7420746865206f776e657281525060200191505060405180910390fd5b80600460006101000a81548173ffffffffffffffffffffffffffffffffffffffff021916908373ffffffffffffffffffffffffffffffffffffffff16021790555050565b6000611cd9611acf565b611d4b576040517f08c379a00000000000000000000000000000000000000000000000000000000081526004018080602001828103825260208152602001807f4f776e61626c653a2063616c6c6572206973206e6f7420746865206f776e657281525060200191505060405180910390fd5b600654905090565b6000809054906101000a900473ffffffffffffffffffffffffffffffffffffffff1681565b60055481565b611d86611acf565b611df8576040517f08c379a00000000000000000000000000000000000000000000000000000000081526004018080602001828103825260208152602001807f4f776e61626c653a2063616c6c6572206973206e6f7420746865206f776e657281525060200191505060405180910390fd5b600654811015611e53576040517f08c379a000000000000000000000000000000000000000000000000000000000815260040180806020018281038252603181526020018061263f6031913960400191505060405180910390fd5b600260009054906101000a900473ffffffffffffffffffffffffffffffffffffffff1673ffffffffffffffffffffffffffffffffffffffff1663a9059cbb600460009054906101000a900473ffffffffffffffffffffffffffffffffffffffff16836040518363ffffffff167c0100000000000000000000000000000000000000000000000000000000028152600401808373ffffffffffffffffffffffffffffffffffffffff1673ffffffffffffffffffffffffffffffffffffffff16815260200182815260200192505050602060405180830381600087803b158015611f3a57600080fd5b505af1158015611f4e573d6000803e3d6000fd5b505050506040513d6020811015611f6457600080fd5b8101908080519060200190929190505050611fca576040517f08c379a00000000000000000000000000000000000000000000000000000000081526004018080602001828103825260238152602001806126de6023913960400191505060405180910390fd5b7fe1c9613b8ea03bf9b97e267900ab3ef5796b015b8473edf7e8f6f063ff56b030816040518082815260200191505060405180910390a150565b61200c611acf565b61207e576040517f08c379a00000000000000000000000000000000000000000000000000000000081526004018080602001828103825260208152602001807f4f776e61626c653a2063616c6c6572206973206e6f7420746865206f776e657281525060200191505060405180910390fd5b80600260006101000a81548173ffffffffffffffffffffffffffffffffffffffff021916908373ffffffffffffffffffffffffffffffffffffffff16021790555050565b6120ca611acf565b61213c576040517f08c379a00000000000000000000000000000000000000000000000000000000081526004018080602001828103825260208152602001807f4f776e61626c653a2063616c6c6572206973206e6f7420746865206f776e657281525060200191505060405180910390fd5b80600360006101000a81548173ffffffffffffffffffffffffffffffffffffffff021916908373ffffffffffffffffffffffffffffffffffffffff16021790555050565b600460009054906101000a900473ffffffffffffffffffffffffffffffffffffffff1681565b6121ae611acf565b612220576040517f08c379a00000000000000000000000000000000000000000000000000000000081526004018080602001828103825260208152602001807f4f776e61626c653a2063616c6c6572206973206e6f7420746865206f776e657281525060200191505060405180910390fd5b6122298161234e565b50565b60008083141561223f57600090506122ac565b600082840290508284828161225057fe5b04146122a7576040517f08c379a00000000000000000000000000000000000000000000000000000000081526004018080602001828103825260218152602001806126956021913960400191505060405180910390fd5b809150505b92915050565b60006122f483836040518060400160405280601a81526020017f536166654d6174683a206469766973696f6e206279207a65726f000000000000815250612492565b905092915050565b600061233e83836040518060400160405280601e81526020017f536166654d6174683a207375627472616374696f6e206f766572666c6f770000815250612558565b905092915050565b600033905090565b600073ffffffffffffffffffffffffffffffffffffffff168173ffffffffffffffffffffffffffffffffffffffff1614156123d4576040517f08c379a00000000000000000000000000000000000000000000000000000000081526004018080602001828103825260268152602001806126196026913960400191505060405180910390fd5b8073ffffffffffffffffffffffffffffffffffffffff166000809054906101000a900473ffffffffffffffffffffffffffffffffffffffff1673ffffffffffffffffffffffffffffffffffffffff167f8be0079c531659141344cd1fd0a4f28419497f9722a3daafe3b4186f6b6457e060405160405180910390a3806000806101000a81548173ffffffffffffffffffffffffffffffffffffffff021916908373ffffffffffffffffffffffffffffffffffffffff16021790555050565b6000808311829061253e576040517f08c379a00000000000000000000000000000000000000000000000000000000081526004018080602001828103825283818151815260200191508051906020019080838360005b838110156125035780820151818401526020810190506124e8565b50505050905090810190601f1680156125305780820380516001836020036101000a031916815260200191505b509250505060405180910390fd5b50600083858161254a57fe5b049050809150509392505050565b6000838311158290612605576040517f08c379a00000000000000000000000000000000000000000000000000000000081526004018080602001828103825283818151815260200191508051906020019080838360005b838110156125ca5780820151818401526020810190506125af565b50505050905090810190601f1680156125f75780820380516001836020036101000a031916815260200191505b509250505060405180910390fd5b506000838503905080915050939250505056fe4f776e61626c653a206e6577206f776e657220697320746865207a65726f2061646472657373596f75206172652061736b696e6720666f72206d6f7265207468616e207768617420796f752068617665206561726e65644661696c75726520746f2073656e6420726573696475616c2044414920686f6c64696e6773536166654d6174683a206d756c7469706c69636174696f6e206f766572666c6f774661696c75726520746f2073656e64204c697175696469747920546f6b656e7320746f20557365724661696c75726520746f2073656e642053657276696365436861726765546f6b656e73a265627a7a7231582083dd9d082ba121253fbb5b89975e8ca211556bde16fe108ec5e56cae76a9db9d64736f6c634300050b0032",
  "source": "pragma solidity ^0.5.0;\n\nimport './OpenZepplinOwnable.sol';\nimport './OpenZepplinSafeMath.sol';\nimport './OpenZepplinIERC20.sol';\nimport './OpenZepplinReentrancyGuard.sol';\n\n\n// Interface for ETH_DAI_Addliquidity\ninterface UniSwapAddLiquidityZap{\n    function LetsInvest() external payable returns (bool);\n}\n\n// Objectives\n// - PoolsFYI users should be able to send ETH to the ETH_DAI_ZAP contract and get the UniTokens and the residual DAI tokens\n// - PoolsFYI Wallet address should be able to provide a commission rate in percentage\n// - PoolsFYI should receive its commission from the incomimg UniTokens\n// - The commission tokens should be sent to PoolsFYI Wallet wallet address immediately \n\n\ncontract ServiceProvider_UniSwap_ETH_DAI_Zap is Ownable, ReentrancyGuard {\n    using SafeMath for uint;\n\n    UniSwapAddLiquidityZap UniDAILiquidityContract = UniSwapAddLiquidityZap(0x5d389106Ae7bB313d7eC39F71D8F825Ed17D7ba1);\n    IERC20 public UniSwapDAIContract = IERC20(0x2a1530C4C41db0B0b2bB646CB5Eb1A67b7158667);\n    IERC20 public DAI_TOKEN_ADDRESS = IERC20(0x6B175474E89094C44Da98b954EedeAC495271d0F);\n    address public ServiceProviderAddress = address(0xA3F19470d3Fc0c0F69bD82876bd573B592cA9597);\n\n    uint public balance = address(this).balance;\n    uint private TotalServiceChargeTokens;\n    uint private serviceChargeInBasisPoints = 0;\n    \n    // - in relation to the emergency functioning of this contract\n    bool private stopped = false;\n\n    // circuit breaker modifiers\n    modifier stopInEmergency {if (!stopped) _;}\n\n    event DAILiquidityTokensReceived(uint);\n    event ServiceChargeTokensTransferred(uint);\n    event TransferredToUser_liquidityTokens_residualDAI(uint, uint);\n\n    function toggleContractActive() public onlyOwner {\n    stopped = !stopped;\n    }\n\n    \n    // should we ever want to change the address of UniDAILiquidityContract\n    function set_UniDAILiquidityContract(UniSwapAddLiquidityZap _new_UniDAILiquidityContract) public onlyOwner  {\n        UniDAILiquidityContract = _new_UniDAILiquidityContract;\n    }\n\n    // should we ever want to change the address of the UniSwapDAIContract\n    function set_UniSwapDAIContract (IERC20 _new_UniSwapDAIContract) public onlyOwner {\n        UniSwapDAIContract = _new_UniSwapDAIContract;\n    }\n    \n    // should we ever want to change the address of the DAI_TOKEN_ADDRESS Contract\n    function set_DAI_TOKEN_ADDRESS (IERC20 _new_DAI_TOKEN_ADDRESS) public onlyOwner {\n        DAI_TOKEN_ADDRESS = _new_DAI_TOKEN_ADDRESS;\n    }\n\n    // to find out the serviceChargeRate, only the Owner can call this fx\n    function get_serviceChargeRate () public onlyOwner returns (uint) {\n        return serviceChargeInBasisPoints;\n    }\n\n    // should the ServiceProvider ever want to change the Service Charge rate\n    function set_serviceChargeRate (uint _new_serviceChargeInBasisPoints) public onlyOwner {\n        serviceChargeInBasisPoints = _new_serviceChargeInBasisPoints;\n    }\n\n    // should the ServiceProvider ever want to change its wallet address\n    function set_ServiceProviderAddress (address _new_ServiceProviderAddress) public onlyOwner {\n        ServiceProviderAddress = _new_ServiceProviderAddress;\n    }\n\n\n    function LetsInvest() public payable stopInEmergency nonReentrant returns (bool) {\n        //some basic checks\n        require(UniDAILiquidityContract.LetsInvest.value(msg.value)(), \"AddLiquidity Failed\");\n\n        // finding out the UniTokens received and the residual DAI Tokens Received\n        uint DAILiquidityTokens = UniSwapDAIContract.balanceOf(address(this));\n        emit DAILiquidityTokensReceived(DAILiquidityTokens);\n        uint residualDAIHoldings = DAI_TOKEN_ADDRESS.balanceOf(address(this));\n\n        // Adjusting for ServiceCharge\n        uint ServiceChargeTokens = SafeMath.div(SafeMath.mul(DAILiquidityTokens,serviceChargeInBasisPoints),10000);\n        TotalServiceChargeTokens = TotalServiceChargeTokens + ServiceChargeTokens;\n        // Transfering of the ServiceChargeTokens\n        \n\n        // Sending Back the Balance LiquityTokens and residual DAI Tokens to user\n        uint UserLiquidityTokens = SafeMath.sub(DAILiquidityTokens,ServiceChargeTokens);\n        require(UniSwapDAIContract.transfer(msg.sender, UserLiquidityTokens), \"Failure to send Liquidity Tokens to User\");\n        require(DAI_TOKEN_ADDRESS.transfer(msg.sender, residualDAIHoldings), \"Failure to send residual DAI holdings\");\n        emit TransferredToUser_liquidityTokens_residualDAI(UserLiquidityTokens, residualDAIHoldings);\n        return true;\n    }\n\n    // to find out the serviceChargeRate, only the Owner can call this fx\n    function get_TotalServiceChargeTokens() public onlyOwner returns (uint) {\n        return TotalServiceChargeTokens;\n    }\n    \n    \n    function withdrawServiceChargeTokens(uint _amountInUnits) public onlyOwner {\n        require (_amountInUnits >= TotalServiceChargeTokens, \"You are asking for more than what you have earned\");\n        require(UniSwapDAIContract.transfer(ServiceProviderAddress, _amountInUnits), \"Failure to send ServiceChargeTokens\");\n        emit ServiceChargeTokensTransferred(_amountInUnits);\n    }\n\n\n    // Should there be a need to withdraw any other ERC20 token\n    function withdrawAnyOtherERC20Token(IERC20 _targetContractAddress) public onlyOwner {\n        uint OtherTokenBalance = _targetContractAddress.balanceOf(address(this));\n        _targetContractAddress.transfer(ServiceProviderAddress, OtherTokenBalance);\n    }\n    \n\n    // incase of half-way error\n    function withdrawDAI() public onlyOwner {\n        uint StuckDAIHoldings = DAI_TOKEN_ADDRESS.balanceOf(address(this));\n        DAI_TOKEN_ADDRESS.transfer(_owner, StuckDAIHoldings);\n    }\n    \n    function withdrawDAILiquityTokens() public onlyOwner {\n        uint StuckDAILiquityTokens = UniSwapDAIContract.balanceOf(address(this));\n        UniSwapDAIContract.transfer(_owner, StuckDAILiquityTokens);\n    }\n\n    \n    // fx in relation to ETH held by the contract sent by the owner\n    \n    // - this function lets you deposit ETH into this wallet\n    function depositETH() public payable onlyOwner {\n        balance += msg.value;\n    }\n    \n    // - fallback function let you / anyone send ETH to this wallet without the need to call any function\n    function() external payable {\n        if (msg.sender == _owner) {\n            depositETH();\n        } else {\n            LetsInvest();\n        }\n    }\n    \n    // - to withdraw any ETH balance sitting in the contract\n    function withdraw() public onlyOwner {\n        _owner.transfer(address(this).balance);\n    }\n\n\n}",
  "sourcePath": "/Users/dipeshsukhani/Desktop/Coding/DockerMounting/Python/allFolders/RemixSharedFolder/contracts/PoolsFYI_UniSwapPool_ETH_DAI.sol",
  "compiler": {
    "name": "solc",
    "version": "0.5.11+commit.c082d0b4.Emscripten.clang"
  },
  "schemaVersion": "3.0.1",
  "updatedAt": "2019-12-08T12:43:45.353Z",
  "devdoc": {
    "methods": {
      "isOwner()": {
        "details": "Returns true if the caller is the current owner."
      },
      "owner()": {
        "details": "Returns the address of the current owner."
      },
      "renounceOwnership()": {
        "details": "Leaves the contract without owner. It will not be possible to call `onlyOwner` functions anymore. Can only be called by the current owner.     * NOTE: Renouncing ownership will leave the contract without an owner, thereby removing any functionality that is only available to the owner."
      },
      "transferOwnership(address)": {
        "details": "Transfers ownership of the contract to a new account (`newOwner`). Can only be called by the current owner."
      }
    }
  },
  "userdoc": {
    "methods": {}
  }
}