{
  "contractName": "SuperSaverZap",
  "abi": [
    {
      "constant": true,
      "inputs": [],
      "name": "cDAIPercentage",
      "outputs": [
        {
          "internalType": "uint256",
          "name": "",
          "type": "uint256"
        }
      ],
      "payable": false,
      "stateMutability": "view",
      "type": "function"
    },
    {
      "constant": true,
      "inputs": [],
      "name": "owner",
      "outputs": [
        {
          "internalType": "address payable",
          "name": "",
          "type": "address"
        }
      ],
      "payable": false,
      "stateMutability": "view",
      "type": "function"
    },
    {
      "constant": true,
      "inputs": [],
      "name": "balance",
      "outputs": [
        {
          "internalType": "uint256",
          "name": "",
          "type": "uint256"
        }
      ],
      "payable": false,
      "stateMutability": "view",
      "type": "function"
    },
    {
      "constant": true,
      "inputs": [],
      "name": "Invest2FulcrumiDAIContract",
      "outputs": [
        {
          "internalType": "contract Invest2FulcrumiDAI",
          "name": "",
          "type": "address"
        }
      ],
      "payable": false,
      "stateMutability": "view",
      "type": "function"
    },
    {
      "constant": false,
      "inputs": [
        {
          "internalType": "address payable",
          "name": "newOwner",
          "type": "address"
        }
      ],
      "name": "transferOwnership",
      "outputs": [],
      "payable": false,
      "stateMutability": "nonpayable",
      "type": "function"
    },
    {
      "constant": true,
      "inputs": [],
      "name": "Invest2cDAIContract",
      "outputs": [
        {
          "internalType": "contract Invest2cDAI",
          "name": "",
          "type": "address"
        }
      ],
      "payable": false,
      "stateMutability": "view",
      "type": "function"
    },
    {
      "payable": true,
      "stateMutability": "payable",
      "type": "fallback"
    },
    {
      "constant": false,
      "inputs": [
        {
          "internalType": "contract Invest2FulcrumiDAI",
          "name": "_Invest2FulcrumiDAIContract",
          "type": "address"
        }
      ],
      "name": "set_Invest2FulcrumiDAIContract",
      "outputs": [],
      "payable": false,
      "stateMutability": "nonpayable",
      "type": "function"
    },
    {
      "constant": false,
      "inputs": [
        {
          "internalType": "contract Invest2cDAI",
          "name": "_Invest2cDAIContract",
          "type": "address"
        }
      ],
      "name": "set_Invest2cDAIContract",
      "outputs": [],
      "payable": false,
      "stateMutability": "nonpayable",
      "type": "function"
    },
    {
      "constant": false,
      "inputs": [
        {
          "internalType": "uint256",
          "name": "_numberPercentageValue",
          "type": "uint256"
        }
      ],
      "name": "change_cDAIAllocation",
      "outputs": [],
      "payable": false,
      "stateMutability": "nonpayable",
      "type": "function"
    },
    {
      "constant": false,
      "inputs": [],
      "name": "LetsInvest",
      "outputs": [
        {
          "internalType": "uint256",
          "name": "",
          "type": "uint256"
        }
      ],
      "payable": true,
      "stateMutability": "payable",
      "type": "function"
    },
    {
      "constant": false,
      "inputs": [],
      "name": "depositETH",
      "outputs": [
        {
          "internalType": "uint256",
          "name": "",
          "type": "uint256"
        }
      ],
      "payable": true,
      "stateMutability": "payable",
      "type": "function"
    },
    {
      "constant": false,
      "inputs": [],
      "name": "withdraw",
      "outputs": [],
      "payable": false,
      "stateMutability": "nonpayable",
      "type": "function"
    }
  ],
  "bytecode": "0x6080604052603260025573275413360ae1b2e27c0061712d42875f8d2ac0df600360006101000a81548173ffffffffffffffffffffffffffffffffffffffff021916908373ffffffffffffffffffffffffffffffffffffffff16021790555073f84a6794649a99a12887d20bce9c5952e49ba190600460006101000a81548173ffffffffffffffffffffffffffffffffffffffff021916908373ffffffffffffffffffffffffffffffffffffffff1602179055503073ffffffffffffffffffffffffffffffffffffffff16316005556000600660006101000a81548160ff021916908315150217905550336000806101000a81548173ffffffffffffffffffffffffffffffffffffffff021916908373ffffffffffffffffffffffffffffffffffffffff16021790555060018081905550610cd78061013f6000396000f3fe6080604052600436106100c4576000357c010000000000000000000000000000000000000000000000000000000090048063b69ef8a811610081578063b69ef8a814610276578063f0aaa470146102a1578063f2fde38b146102f8578063f302e33f14610349578063f6326fb31461039a578063fd140ffe146103b8576100c4565b8063082fef45146101335780631bd0585a146101515780632b4b05cf146101a25780633ccfd60b146101dd57806360b6c8e7146101f45780638da5cb5b1461021f575b6000809054906101000a900473ffffffffffffffffffffffffffffffffffffffff1673ffffffffffffffffffffffffffffffffffffffff163373ffffffffffffffffffffffffffffffffffffffff1614156101275761012161040f565b50610131565b61012f61047d565b505b005b61013b61047d565b6040518082815260200191505060405180910390f35b34801561015d57600080fd5b506101a06004803603602081101561017457600080fd5b81019080803573ffffffffffffffffffffffffffffffffffffffff1690602001909291905050506106cf565b005b3480156101ae57600080fd5b506101db600480360360208110156101c557600080fd5b810190808035906020019092919050505061076c565b005b3480156101e957600080fd5b506101f26107cf565b005b34801561020057600080fd5b506102096108a9565b6040518082815260200191505060405180910390f35b34801561022b57600080fd5b506102346108af565b604051808273ffffffffffffffffffffffffffffffffffffffff1673ffffffffffffffffffffffffffffffffffffffff16815260200191505060405180910390f35b34801561028257600080fd5b5061028b6108d4565b6040518082815260200191505060405180910390f35b3480156102ad57600080fd5b506102b66108da565b604051808273ffffffffffffffffffffffffffffffffffffffff1673ffffffffffffffffffffffffffffffffffffffff16815260200191505060405180910390f35b34801561030457600080fd5b506103476004803603602081101561031b57600080fd5b81019080803573ffffffffffffffffffffffffffffffffffffffff169060200190929190505050610900565b005b34801561035557600080fd5b506103986004803603602081101561036c57600080fd5b81019080803573ffffffffffffffffffffffffffffffffffffffff1690602001909291905050506109d6565b005b6103a261040f565b6040518082815260200191505060405180910390f35b3480156103c457600080fd5b506103cd610a35565b604051808273ffffffffffffffffffffffffffffffffffffffff1673ffffffffffffffffffffffffffffffffffffffff16815260200191505060405180910390f35b60008060009054906101000a900473ffffffffffffffffffffffffffffffffffffffff1673ffffffffffffffffffffffffffffffffffffffff163373ffffffffffffffffffffffffffffffffffffffff161461046a57600080fd5b3460056000828254019250508190555090565b6000655af3107a4000341161049157600080fd5b600073ffffffffffffffffffffffffffffffffffffffff163373ffffffffffffffffffffffffffffffffffffffff1614156104cb57600080fd5b6000349050600033905060006104ed6104e684600254610a5b565b6064610ae1565b905060006104fb8483610b70565b905060006105128561050d8585610bf9565b610b70565b1461051c57600080fd5b600360009054906101000a900473ffffffffffffffffffffffffffffffffffffffff1673ffffffffffffffffffffffffffffffffffffffff166318dfa21083856040518363ffffffff167c0100000000000000000000000000000000000000000000000000000000028152600401808273ffffffffffffffffffffffffffffffffffffffff1673ffffffffffffffffffffffffffffffffffffffff1681526020019150506000604051808303818588803b1580156105d957600080fd5b505af11580156105ed573d6000803e3d6000fd5b5050505050600460009054906101000a900473ffffffffffffffffffffffffffffffffffffffff1673ffffffffffffffffffffffffffffffffffffffff166315bfee1b82856040518363ffffffff167c0100000000000000000000000000000000000000000000000000000000028152600401808273ffffffffffffffffffffffffffffffffffffffff1673ffffffffffffffffffffffffffffffffffffffff1681526020019150506000604051808303818588803b1580156106af57600080fd5b505af11580156106c3573d6000803e3d6000fd5b50505050505050505090565b6000809054906101000a900473ffffffffffffffffffffffffffffffffffffffff1673ffffffffffffffffffffffffffffffffffffffff163373ffffffffffffffffffffffffffffffffffffffff161461072857600080fd5b80600460006101000a81548173ffffffffffffffffffffffffffffffffffffffff021916908373ffffffffffffffffffffffffffffffffffffffff16021790555050565b6000809054906101000a900473ffffffffffffffffffffffffffffffffffffffff1673ffffffffffffffffffffffffffffffffffffffff163373ffffffffffffffffffffffffffffffffffffffff16146107c557600080fd5b8060028190555050565b6000809054906101000a900473ffffffffffffffffffffffffffffffffffffffff1673ffffffffffffffffffffffffffffffffffffffff163373ffffffffffffffffffffffffffffffffffffffff161461082857600080fd5b6000809054906101000a900473ffffffffffffffffffffffffffffffffffffffff1673ffffffffffffffffffffffffffffffffffffffff166108fc3073ffffffffffffffffffffffffffffffffffffffff16319081150290604051600060405180830381858888f193505050501580156108a6573d6000803e3d6000fd5b50565b60025481565b6000809054906101000a900473ffffffffffffffffffffffffffffffffffffffff1681565b60055481565b600460009054906101000a900473ffffffffffffffffffffffffffffffffffffffff1681565b6000809054906101000a900473ffffffffffffffffffffffffffffffffffffffff1673ffffffffffffffffffffffffffffffffffffffff163373ffffffffffffffffffffffffffffffffffffffff161461095957600080fd5b600073ffffffffffffffffffffffffffffffffffffffff168173ffffffffffffffffffffffffffffffffffffffff16141561099357600080fd5b806000806101000a81548173ffffffffffffffffffffffffffffffffffffffff021916908373ffffffffffffffffffffffffffffffffffffffff16021790555050565b6000809054906101000a900473ffffffffffffffffffffffffffffffffffffffff1673ffffffffffffffffffffffffffffffffffffffff163373ffffffffffffffffffffffffffffffffffffffff1614610a2f57600080fd5b80905050565b600360009054906101000a900473ffffffffffffffffffffffffffffffffffffffff1681565b600080831415610a6e5760009050610adb565b6000828402905082848281610a7f57fe5b0414610ad6576040517f08c379a0000000000000000000000000000000000000000000000000000000008152600401808060200182810382526021815260200180610c826021913960400191505060405180910390fd5b809150505b92915050565b6000808211610b58576040517f08c379a000000000000000000000000000000000000000000000000000000000815260040180806020018281038252601a8152602001807f536166654d6174683a206469766973696f6e206279207a65726f00000000000081525060200191505060405180910390fd5b6000828481610b6357fe5b0490508091505092915050565b600082821115610be8576040517f08c379a000000000000000000000000000000000000000000000000000000000815260040180806020018281038252601e8152602001807f536166654d6174683a207375627472616374696f6e206f766572666c6f77000081525060200191505060405180910390fd5b600082840390508091505092915050565b600080828401905083811015610c77576040517f08c379a000000000000000000000000000000000000000000000000000000000815260040180806020018281038252601b8152602001807f536166654d6174683a206164646974696f6e206f766572666c6f77000000000081525060200191505060405180910390fd5b809150509291505056fe536166654d6174683a206d756c7469706c69636174696f6e206f766572666c6f77a265627a7a72315820690fb7094469d21602a7f1fa8097bbe8e3d0d74eb9cd44cd376663edab58cdd064736f6c634300050b0032",
  "source": "pragma solidity ^0.5.0;\n\nimport \"./Ownable.sol\";\nimport \"./ReentrancyGuard.sol\";\nimport \"./SafeMath.sol\";\n\n\ninterface Invest2FulcrumiDAI {\n    function LetsInvest2FulcrumiDAI(address _towhomtoissue) external payable;\n}\n\ninterface Invest2cDAI {\n    function letsGetSomeDAI(address _towhomtoissue) external payable;\n}\n\n// through this contract we are putting 50% allocation to 2xLongETH and 50% to 2xLongBTC\ncontract SuperSaverZap is Ownable, ReentrancyGuard {\n    using SafeMath for uint;\n    // state variables\n    \n    \n    // - variables in relation to the percentages\n    uint public cDAIPercentage = 50;\n    Invest2cDAI public Invest2cDAIContract = Invest2cDAI(0x275413360ae1B2E27C0061712d42875F8D2AC0DF);\n    Invest2FulcrumiDAI public Invest2FulcrumiDAIContract = Invest2FulcrumiDAI(0xf84a6794649a99a12887D20bCE9C5952E49bA190);\n\n    \n    // - in relation to the ETH held by this contract\n    uint public balance = address(this).balance;\n    \n    // - in relation to the emergency functioning of this contract\n    bool private stopped = false;\n\n    \n    // circuit breaker modifiers\n    modifier stopInEmergency {if (!stopped) _;}\n    modifier onlyInEmergency {if (stopped) _;}\n    \n \n\n    // this function should be called should we ever want to change the underlying Fulcrum Long ETHContract address\n    function set_Invest2FulcrumiDAIContract (Invest2FulcrumiDAI _Invest2FulcrumiDAIContract) onlyOwner public {\n        Invest2FulcrumiDAIContract = _Invest2FulcrumiDAIContract;\n    }\n    \n    // this function should be called should we ever want to change the underlying Fulcrum Long ETHContract address\n    function set_Invest2cDAIContract (Invest2cDAI _Invest2cDAIContract) onlyOwner public {\n        _Invest2cDAIContract = _Invest2cDAIContract;\n    }\n    \n    // this function should be called should we ever want to change the portion to be invested in cDAI\n    function change_cDAIAllocation(uint _numberPercentageValue) public onlyOwner {\n        cDAIPercentage = _numberPercentageValue;\n    }\n    \n    // main function which will make the investments\n    function LetsInvest() public payable returns(uint) {\n        require (msg.value > 100000000000000);\n        require (msg.sender != address(0));\n        uint invest_amt = msg.value;\n        address payable investor = address(msg.sender);\n        uint cDAIPortion = SafeMath.div(SafeMath.mul(invest_amt,cDAIPercentage),100);\n        uint iDAIPortion = SafeMath.sub(invest_amt, cDAIPortion);\n        require (SafeMath.sub(invest_amt, SafeMath.add(cDAIPortion, iDAIPortion)) ==0 );\n        Invest2cDAIContract.letsGetSomeDAI.value(cDAIPortion)(investor);\n        Invest2FulcrumiDAIContract.LetsInvest2FulcrumiDAI.value(iDAIPortion)(investor);\n    }\n    \n    \n    \n    // fx in relation to ETH held by the contract sent by the owner\n    \n    // - this function lets you deposit ETH into this wallet\n    function depositETH() payable public onlyOwner returns (uint) {\n        balance += msg.value;\n    }\n    \n    // - fallback function let you / anyone send ETH to this wallet without the need to call any function\n    function() external payable {\n        if (msg.sender == owner) {\n            depositETH();\n        } else {\n            LetsInvest();\n        }\n    }\n    \n    // - to withdraw any ETH balance sitting in the contract\n    function withdraw() onlyOwner public{\n        owner.transfer(address(this).balance);\n    }\n    \n}",
  "sourcePath": "/Users/dipeshsukhani/Desktop/Coding/DockerMounting/Python/allFolders/RemixSharedFolder/contracts/SuperSaverZap.sol",
  "compiler": {
    "name": "solc",
    "version": "0.5.11+commit.c082d0b4.Emscripten.clang"
  },
  "schemaVersion": "3.0.1",
  "updatedAt": "2019-12-08T12:43:45.233Z",
  "devdoc": {
    "methods": {}
  },
  "userdoc": {
    "methods": {}
  }
}