{
  "contractName": "SuperSaverZapV2",
  "abi": [
    {
      "constant": true,
      "inputs": [],
      "name": "cDAI_NEWPercentage",
      "outputs": [
        {
          "internalType": "uint256",
          "name": "",
          "type": "uint256"
        }
      ],
      "payable": false,
      "stateMutability": "view",
      "type": "function"
    },
    {
      "constant": false,
      "inputs": [],
      "name": "renounceOwnership",
      "outputs": [],
      "payable": false,
      "stateMutability": "nonpayable",
      "type": "function"
    },
    {
      "constant": true,
      "inputs": [],
      "name": "owner",
      "outputs": [
        {
          "internalType": "address",
          "name": "",
          "type": "address"
        }
      ],
      "payable": false,
      "stateMutability": "view",
      "type": "function"
    },
    {
      "constant": true,
      "inputs": [],
      "name": "isOwner",
      "outputs": [
        {
          "internalType": "bool",
          "name": "",
          "type": "bool"
        }
      ],
      "payable": false,
      "stateMutability": "view",
      "type": "function"
    },
    {
      "constant": true,
      "inputs": [],
      "name": "_owner",
      "outputs": [
        {
          "internalType": "address payable",
          "name": "",
          "type": "address"
        }
      ],
      "payable": false,
      "stateMutability": "view",
      "type": "function"
    },
    {
      "constant": true,
      "inputs": [],
      "name": "balance",
      "outputs": [
        {
          "internalType": "uint256",
          "name": "",
          "type": "uint256"
        }
      ],
      "payable": false,
      "stateMutability": "view",
      "type": "function"
    },
    {
      "constant": true,
      "inputs": [],
      "name": "Invest2FulcrumiDAI_NEWContract",
      "outputs": [
        {
          "internalType": "contract Invest2FulcrumiDAI_NEW",
          "name": "",
          "type": "address"
        }
      ],
      "payable": false,
      "stateMutability": "view",
      "type": "function"
    },
    {
      "constant": true,
      "inputs": [],
      "name": "Invest2cDAI_NEWContract",
      "outputs": [
        {
          "internalType": "contract Invest2cDAI_NEW",
          "name": "",
          "type": "address"
        }
      ],
      "payable": false,
      "stateMutability": "view",
      "type": "function"
    },
    {
      "constant": false,
      "inputs": [
        {
          "internalType": "address payable",
          "name": "newOwner",
          "type": "address"
        }
      ],
      "name": "transferOwnership",
      "outputs": [],
      "payable": false,
      "stateMutability": "nonpayable",
      "type": "function"
    },
    {
      "payable": true,
      "stateMutability": "payable",
      "type": "fallback"
    },
    {
      "anonymous": false,
      "inputs": [
        {
          "indexed": true,
          "internalType": "address",
          "name": "previousOwner",
          "type": "address"
        },
        {
          "indexed": true,
          "internalType": "address",
          "name": "newOwner",
          "type": "address"
        }
      ],
      "name": "OwnershipTransferred",
      "type": "event"
    },
    {
      "constant": false,
      "inputs": [
        {
          "internalType": "contract Invest2FulcrumiDAI_NEW",
          "name": "_Invest2FulcrumiDAI_NEWContract",
          "type": "address"
        }
      ],
      "name": "set_Invest2FulcrumiDAI_NEWContract",
      "outputs": [],
      "payable": false,
      "stateMutability": "nonpayable",
      "type": "function"
    },
    {
      "constant": false,
      "inputs": [
        {
          "internalType": "contract Invest2cDAI_NEW",
          "name": "_Invest2cDAI_NEWContract",
          "type": "address"
        }
      ],
      "name": "set_Invest2cDAI_NEWContract",
      "outputs": [],
      "payable": false,
      "stateMutability": "nonpayable",
      "type": "function"
    },
    {
      "constant": false,
      "inputs": [
        {
          "internalType": "uint256",
          "name": "_allocationToCDAI_new",
          "type": "uint256"
        }
      ],
      "name": "LetsInvest",
      "outputs": [
        {
          "internalType": "bool",
          "name": "",
          "type": "bool"
        }
      ],
      "payable": true,
      "stateMutability": "payable",
      "type": "function"
    },
    {
      "constant": false,
      "inputs": [],
      "name": "depositETH",
      "outputs": [
        {
          "internalType": "uint256",
          "name": "",
          "type": "uint256"
        }
      ],
      "payable": true,
      "stateMutability": "payable",
      "type": "function"
    },
    {
      "constant": false,
      "inputs": [],
      "name": "withdraw",
      "outputs": [],
      "payable": false,
      "stateMutability": "nonpayable",
      "type": "function"
    }
  ],
  "bytecode": "0x6080604052731fe91b5d531620643cadcacc9c3ba83097c1b698600260006101000a81548173ffffffffffffffffffffffffffffffffffffffff021916908373ffffffffffffffffffffffffffffffffffffffff1602179055507384759d8e263cc1aa9042ff316f0fd148a7c5cb12600360006101000a81548173ffffffffffffffffffffffffffffffffffffffff021916908373ffffffffffffffffffffffffffffffffffffffff1602179055503073ffffffffffffffffffffffffffffffffffffffff16316004556000600560006101000a81548160ff02191690831515021790555060006100fd6101bb640100000000026401000000009004565b9050806000806101000a81548173ffffffffffffffffffffffffffffffffffffffff021916908373ffffffffffffffffffffffffffffffffffffffff1602179055508073ffffffffffffffffffffffffffffffffffffffff16600073ffffffffffffffffffffffffffffffffffffffff167f8be0079c531659141344cd1fd0a4f28419497f9722a3daafe3b4186f6b6457e060405160405180910390a3506001600060146101000a81548160ff0219169083151502179055506101c3565b600033905090565b61126c806101d26000396000f3fe6080604052600436106100fa576000357c010000000000000000000000000000000000000000000000000000000090048063b2bdfa7b1161009c578063d3c2567811610076578063d3c25678146103ba578063d769cd821461040b578063f2fde38b14610462578063f6326fb3146104b3576100fa565b8063b2bdfa7b146102e1578063b69ef8a814610338578063be9448f514610363576100fa565b8063715018a6116100d8578063715018a6146101f35780638da5cb5b1461020a5780638f32d59b14610261578063af53499614610290576100fa565b80633ccfd60b1461016b578063422f961d14610182578063427d4cfe146101ad575b6000809054906101000a900473ffffffffffffffffffffffffffffffffffffffff1673ffffffffffffffffffffffffffffffffffffffff163373ffffffffffffffffffffffffffffffffffffffff16141561015d576101576104d1565b50610169565b6101676032610560565b505b005b34801561017757600080fd5b50610180610842565b005b34801561018e57600080fd5b5061019761093d565b6040518082815260200191505060405180910390f35b6101d9600480360360208110156101c357600080fd5b8101908080359060200190929190505050610560565b604051808215151515815260200191505060405180910390f35b3480156101ff57600080fd5b50610208610943565b005b34801561021657600080fd5b5061021f610a7c565b604051808273ffffffffffffffffffffffffffffffffffffffff1673ffffffffffffffffffffffffffffffffffffffff16815260200191505060405180910390f35b34801561026d57600080fd5b50610276610aa5565b604051808215151515815260200191505060405180910390f35b34801561029c57600080fd5b506102df600480360360208110156102b357600080fd5b81019080803573ffffffffffffffffffffffffffffffffffffffff169060200190929190505050610b03565b005b3480156102ed57600080fd5b506102f6610bc1565b604051808273ffffffffffffffffffffffffffffffffffffffff1673ffffffffffffffffffffffffffffffffffffffff16815260200191505060405180910390f35b34801561034457600080fd5b5061034d610be6565b6040518082815260200191505060405180910390f35b34801561036f57600080fd5b50610378610bec565b604051808273ffffffffffffffffffffffffffffffffffffffff1673ffffffffffffffffffffffffffffffffffffffff16815260200191505060405180910390f35b3480156103c657600080fd5b50610409600480360360208110156103dd57600080fd5b81019080803573ffffffffffffffffffffffffffffffffffffffff169060200190929190505050610c12565b005b34801561041757600080fd5b50610420610cd0565b604051808273ffffffffffffffffffffffffffffffffffffffff1673ffffffffffffffffffffffffffffffffffffffff16815260200191505060405180910390f35b34801561046e57600080fd5b506104b16004803603602081101561048557600080fd5b81019080803573ffffffffffffffffffffffffffffffffffffffff169060200190929190505050610cf6565b005b6104bb6104d1565b6040518082815260200191505060405180910390f35b60006104db610aa5565b61054d576040517f08c379a00000000000000000000000000000000000000000000000000000000081526004018080602001828103825260208152602001807f4f776e61626c653a2063616c6c6572206973206e6f7420746865206f776e657281525060200191505060405180910390fd5b3460046000828254019250508190555090565b6000600560009054906101000a900460ff1661083d57600060149054906101000a900460ff166105f8576040517f08c379a000000000000000000000000000000000000000000000000000000000815260040180806020018281038252601f8152602001807f5265656e7472616e637947756172643a207265656e7472616e742063616c6c0081525060200191505060405180910390fd5b60008060146101000a81548160ff021916908315150217905550655af3107a4000341161062457600080fd5b6000349050600061063f6106388386610d7c565b6064610e02565b9050600061064d8383610e4c565b905060006106648461065f8585610e96565b610e4c565b1461066e57600080fd5b600260009054906101000a900473ffffffffffffffffffffffffffffffffffffffff1673ffffffffffffffffffffffffffffffffffffffff1663b356c18183336040518363ffffffff167c0100000000000000000000000000000000000000000000000000000000028152600401808273ffffffffffffffffffffffffffffffffffffffff1673ffffffffffffffffffffffffffffffffffffffff1681526020019150506000604051808303818588803b15801561072b57600080fd5b505af115801561073f573d6000803e3d6000fd5b5050505050600360009054906101000a900473ffffffffffffffffffffffffffffffffffffffff1673ffffffffffffffffffffffffffffffffffffffff1663b356c18182336040518363ffffffff167c0100000000000000000000000000000000000000000000000000000000028152600401808273ffffffffffffffffffffffffffffffffffffffff1673ffffffffffffffffffffffffffffffffffffffff1681526020019150506000604051808303818588803b15801561080157600080fd5b505af1158015610815573d6000803e3d6000fd5b5050505050600193505050506001600060146101000a81548160ff0219169083151502179055505b919050565b61084a610aa5565b6108bc576040517f08c379a00000000000000000000000000000000000000000000000000000000081526004018080602001828103825260208152602001807f4f776e61626c653a2063616c6c6572206973206e6f7420746865206f776e657281525060200191505060405180910390fd5b6000809054906101000a900473ffffffffffffffffffffffffffffffffffffffff1673ffffffffffffffffffffffffffffffffffffffff166108fc3073ffffffffffffffffffffffffffffffffffffffff16319081150290604051600060405180830381858888f1935050505015801561093a573d6000803e3d6000fd5b50565b60015481565b61094b610aa5565b6109bd576040517f08c379a00000000000000000000000000000000000000000000000000000000081526004018080602001828103825260208152602001807f4f776e61626c653a2063616c6c6572206973206e6f7420746865206f776e657281525060200191505060405180910390fd5b600073ffffffffffffffffffffffffffffffffffffffff166000809054906101000a900473ffffffffffffffffffffffffffffffffffffffff1673ffffffffffffffffffffffffffffffffffffffff167f8be0079c531659141344cd1fd0a4f28419497f9722a3daafe3b4186f6b6457e060405160405180910390a360008060006101000a81548173ffffffffffffffffffffffffffffffffffffffff021916908373ffffffffffffffffffffffffffffffffffffffff160217905550565b60008060009054906101000a900473ffffffffffffffffffffffffffffffffffffffff16905090565b60008060009054906101000a900473ffffffffffffffffffffffffffffffffffffffff1673ffffffffffffffffffffffffffffffffffffffff16610ae7610f1e565b73ffffffffffffffffffffffffffffffffffffffff1614905090565b610b0b610aa5565b610b7d576040517f08c379a00000000000000000000000000000000000000000000000000000000081526004018080602001828103825260208152602001807f4f776e61626c653a2063616c6c6572206973206e6f7420746865206f776e657281525060200191505060405180910390fd5b80600260006101000a81548173ffffffffffffffffffffffffffffffffffffffff021916908373ffffffffffffffffffffffffffffffffffffffff16021790555050565b6000809054906101000a900473ffffffffffffffffffffffffffffffffffffffff1681565b60045481565b600360009054906101000a900473ffffffffffffffffffffffffffffffffffffffff1681565b610c1a610aa5565b610c8c576040517f08c379a00000000000000000000000000000000000000000000000000000000081526004018080602001828103825260208152602001807f4f776e61626c653a2063616c6c6572206973206e6f7420746865206f776e657281525060200191505060405180910390fd5b80600360006101000a81548173ffffffffffffffffffffffffffffffffffffffff021916908373ffffffffffffffffffffffffffffffffffffffff16021790555050565b600260009054906101000a900473ffffffffffffffffffffffffffffffffffffffff1681565b610cfe610aa5565b610d70576040517f08c379a00000000000000000000000000000000000000000000000000000000081526004018080602001828103825260208152602001807f4f776e61626c653a2063616c6c6572206973206e6f7420746865206f776e657281525060200191505060405180910390fd5b610d7981610f26565b50565b600080831415610d8f5760009050610dfc565b6000828402905082848281610da057fe5b0414610df7576040517f08c379a00000000000000000000000000000000000000000000000000000000081526004018080602001828103825260218152602001806112176021913960400191505060405180910390fd5b809150505b92915050565b6000610e4483836040518060400160405280601a81526020017f536166654d6174683a206469766973696f6e206279207a65726f00000000000081525061106a565b905092915050565b6000610e8e83836040518060400160405280601e81526020017f536166654d6174683a207375627472616374696f6e206f766572666c6f770000815250611130565b905092915050565b600080828401905083811015610f14576040517f08c379a000000000000000000000000000000000000000000000000000000000815260040180806020018281038252601b8152602001807f536166654d6174683a206164646974696f6e206f766572666c6f77000000000081525060200191505060405180910390fd5b8091505092915050565b600033905090565b600073ffffffffffffffffffffffffffffffffffffffff168173ffffffffffffffffffffffffffffffffffffffff161415610fac576040517f08c379a00000000000000000000000000000000000000000000000000000000081526004018080602001828103825260268152602001806111f16026913960400191505060405180910390fd5b8073ffffffffffffffffffffffffffffffffffffffff166000809054906101000a900473ffffffffffffffffffffffffffffffffffffffff1673ffffffffffffffffffffffffffffffffffffffff167f8be0079c531659141344cd1fd0a4f28419497f9722a3daafe3b4186f6b6457e060405160405180910390a3806000806101000a81548173ffffffffffffffffffffffffffffffffffffffff021916908373ffffffffffffffffffffffffffffffffffffffff16021790555050565b60008083118290611116576040517f08c379a00000000000000000000000000000000000000000000000000000000081526004018080602001828103825283818151815260200191508051906020019080838360005b838110156110db5780820151818401526020810190506110c0565b50505050905090810190601f1680156111085780820380516001836020036101000a031916815260200191505b509250505060405180910390fd5b50600083858161112257fe5b049050809150509392505050565b60008383111582906111dd576040517f08c379a00000000000000000000000000000000000000000000000000000000081526004018080602001828103825283818151815260200191508051906020019080838360005b838110156111a2578082015181840152602081019050611187565b50505050905090810190601f1680156111cf5780820380516001836020036101000a031916815260200191505b509250505060405180910390fd5b506000838503905080915050939250505056fe4f776e61626c653a206e6577206f776e657220697320746865207a65726f2061646472657373536166654d6174683a206d756c7469706c69636174696f6e206f766572666c6f77a265627a7a72315820fc2f9c7df4f2a8e3e1e298662f50c218a7259378bf9268c2c99a54ae0c822a5264736f6c634300050b0032",
  "source": "pragma solidity ^0.5.0;\n\nimport \"./OpenZepplinOwnable.sol\";\nimport \"./OpenZepplinReentrancyGuard.sol\";\nimport \"./OpenZepplinSafeMath.sol\";\n\n\ninterface Invest2FulcrumiDAI_NEW {\n    function LetsInvest(address _towhomtoissue) external payable;\n}\n\ninterface Invest2cDAI_NEW {\n    function LetsInvest(address _towhomtoissue) external payable;\n}\n\ncontract SuperSaverZapV2 is Ownable, ReentrancyGuard {\n    using SafeMath for uint;\n\n    // - variables in relation to the percentages\n    uint public cDAI_NEWPercentage;\n    Invest2cDAI_NEW public Invest2cDAI_NEWContract = Invest2cDAI_NEW(0x1FE91B5D531620643cADcAcc9C3bA83097c1B698);\n    Invest2FulcrumiDAI_NEW public Invest2FulcrumiDAI_NEWContract = Invest2FulcrumiDAI_NEW(0x84759d8e263cc1Aa9042ff316F0fD148A7C5cb12);\n\n    \n    // - in relation to the ETH held by this contract\n    uint public balance = address(this).balance;\n    \n    // - in relation to the emergency functioning of this contract\n    bool private stopped = false;\n\n    \n    // circuit breaker modifiers\n    modifier stopInEmergency {if (!stopped) _;}\n    modifier onlyInEmergency {if (stopped) _;}\n    \n \n\n    // this function should be called should we ever want to change the underlying Fulcrum Long ETHContract address\n    function set_Invest2FulcrumiDAI_NEWContract (Invest2FulcrumiDAI_NEW _Invest2FulcrumiDAI_NEWContract) onlyOwner public {\n        Invest2FulcrumiDAI_NEWContract = _Invest2FulcrumiDAI_NEWContract;\n    }\n    \n    // this function should be called should we ever want to change the underlying Fulcrum Long ETHContract address\n    function set_Invest2cDAI_NEWContract (Invest2cDAI_NEW _Invest2cDAI_NEWContract) onlyOwner public {\n        Invest2cDAI_NEWContract = _Invest2cDAI_NEWContract;\n    }\n    \n    // main function which will make the investments\n    function LetsInvest(uint _allocationToCDAI_new) stopInEmergency nonReentrant payable public returns (bool) {\n        require (msg.value > 100000000000000);\n        uint invest_amt = msg.value;\n        uint cDAI_NEWPortion = SafeMath.div(SafeMath.mul(invest_amt,_allocationToCDAI_new),100);\n        uint iDAI_NEWPortion = SafeMath.sub(invest_amt, cDAI_NEWPortion);\n        require (SafeMath.sub(invest_amt, SafeMath.add(cDAI_NEWPortion, iDAI_NEWPortion)) ==0 );\n        Invest2cDAI_NEWContract.LetsInvest.value(cDAI_NEWPortion)(msg.sender);\n        Invest2FulcrumiDAI_NEWContract.LetsInvest.value(iDAI_NEWPortion)(msg.sender);\n        return true;\n    }\n    \n    // fx in relation to ETH held by the contract sent by the owner\n    \n    // - this function lets you deposit ETH into this wallet\n    function depositETH() payable public onlyOwner returns (uint) {\n        balance += msg.value;\n    }\n    \n    // - fallback function let you / anyone send ETH to this wallet without the need to call any function\n    function() external payable {\n        if (msg.sender == _owner) {\n            depositETH();\n        } else {\n            LetsInvest(50);\n        }\n    }\n    \n    // - to withdraw any ETH balance sitting in the contract\n    function withdraw() onlyOwner public{\n        _owner.transfer(address(this).balance);\n    }\n    \n}",
  "sourcePath": "/Users/dipeshsukhani/Desktop/Coding/DockerMounting/Python/allFolders/RemixSharedFolder/contracts/SuperSaverZapV2_NewDAI.sol",
  "compiler": {
    "name": "solc",
    "version": "0.5.11+commit.c082d0b4.Emscripten.clang"
  },
  "schemaVersion": "3.0.1",
  "updatedAt": "2019-12-06T05:57:31.705Z",
  "devdoc": {
    "methods": {
      "isOwner()": {
        "details": "Returns true if the caller is the current owner."
      },
      "owner()": {
        "details": "Returns the address of the current owner."
      },
      "renounceOwnership()": {
        "details": "Leaves the contract without owner. It will not be possible to call `onlyOwner` functions anymore. Can only be called by the current owner.     * NOTE: Renouncing ownership will leave the contract without an owner, thereby removing any functionality that is only available to the owner."
      },
      "transferOwnership(address)": {
        "details": "Transfers ownership of the contract to a new account (`newOwner`). Can only be called by the current owner."
      }
    }
  },
  "userdoc": {
    "methods": {}
  }
}