{
  "contractName": "uniswapLiquidityProviderZAP",
  "abi": [
    {
      "constant": true,
      "inputs": [],
      "name": "NEW_DAI_TOKEN_ADDRESS",
      "outputs": [
        {
          "internalType": "contract IERC20",
          "name": "",
          "type": "address"
        }
      ],
      "payable": false,
      "stateMutability": "view",
      "type": "function"
    },
    {
      "constant": true,
      "inputs": [],
      "name": "uniswapExchangeContract_forBalance",
      "outputs": [
        {
          "internalType": "address",
          "name": "",
          "type": "address"
        }
      ],
      "payable": false,
      "stateMutability": "view",
      "type": "function"
    },
    {
      "constant": true,
      "inputs": [],
      "name": "USKIContract",
      "outputs": [
        {
          "internalType": "contract IUSKI",
          "name": "",
          "type": "address"
        }
      ],
      "payable": false,
      "stateMutability": "view",
      "type": "function"
    },
    {
      "constant": false,
      "inputs": [],
      "name": "renounceOwnership",
      "outputs": [],
      "payable": false,
      "stateMutability": "nonpayable",
      "type": "function"
    },
    {
      "constant": true,
      "inputs": [],
      "name": "owner",
      "outputs": [
        {
          "internalType": "address",
          "name": "",
          "type": "address"
        }
      ],
      "payable": false,
      "stateMutability": "view",
      "type": "function"
    },
    {
      "constant": true,
      "inputs": [],
      "name": "isOwner",
      "outputs": [
        {
          "internalType": "bool",
          "name": "",
          "type": "bool"
        }
      ],
      "payable": false,
      "stateMutability": "view",
      "type": "function"
    },
    {
      "constant": true,
      "inputs": [],
      "name": "price",
      "outputs": [
        {
          "internalType": "uint256",
          "name": "",
          "type": "uint256"
        }
      ],
      "payable": false,
      "stateMutability": "view",
      "type": "function"
    },
    {
      "constant": true,
      "inputs": [],
      "name": "_owner",
      "outputs": [
        {
          "internalType": "address payable",
          "name": "",
          "type": "address"
        }
      ],
      "payable": false,
      "stateMutability": "view",
      "type": "function"
    },
    {
      "constant": true,
      "inputs": [],
      "name": "balance",
      "outputs": [
        {
          "internalType": "uint256",
          "name": "",
          "type": "uint256"
        }
      ],
      "payable": false,
      "stateMutability": "view",
      "type": "function"
    },
    {
      "constant": true,
      "inputs": [],
      "name": "uniswapExchangeExecutionContract",
      "outputs": [
        {
          "internalType": "contract IuniswapExchangeExecution",
          "name": "",
          "type": "address"
        }
      ],
      "payable": false,
      "stateMutability": "view",
      "type": "function"
    },
    {
      "constant": false,
      "inputs": [
        {
          "internalType": "address payable",
          "name": "newOwner",
          "type": "address"
        }
      ],
      "name": "transferOwnership",
      "outputs": [],
      "payable": false,
      "stateMutability": "nonpayable",
      "type": "function"
    },
    {
      "inputs": [],
      "payable": false,
      "stateMutability": "nonpayable",
      "type": "constructor"
    },
    {
      "payable": true,
      "stateMutability": "payable",
      "type": "fallback"
    },
    {
      "anonymous": false,
      "inputs": [
        {
          "indexed": false,
          "internalType": "uint256",
          "name": "",
          "type": "uint256"
        }
      ],
      "name": "DaiReceived",
      "type": "event"
    },
    {
      "anonymous": false,
      "inputs": [
        {
          "indexed": false,
          "internalType": "uint256",
          "name": "",
          "type": "uint256"
        }
      ],
      "name": "LiquidityTokens",
      "type": "event"
    },
    {
      "anonymous": false,
      "inputs": [
        {
          "indexed": true,
          "internalType": "address",
          "name": "previousOwner",
          "type": "address"
        },
        {
          "indexed": true,
          "internalType": "address",
          "name": "newOwner",
          "type": "address"
        }
      ],
      "name": "OwnershipTransferred",
      "type": "event"
    },
    {
      "constant": false,
      "inputs": [
        {
          "internalType": "contract IuniswapExchange",
          "name": "_new_uniswapExchangeContract",
          "type": "address"
        }
      ],
      "name": "set_uniswapExchangeContract",
      "outputs": [],
      "payable": false,
      "stateMutability": "nonpayable",
      "type": "function"
    },
    {
      "constant": false,
      "inputs": [
        {
          "internalType": "contract IuniswapExchangeExecution",
          "name": "_new_uniswapExchangeExecutionContract",
          "type": "address"
        }
      ],
      "name": "set_uniswapExchangeExecutionContract",
      "outputs": [],
      "payable": false,
      "stateMutability": "nonpayable",
      "type": "function"
    },
    {
      "constant": false,
      "inputs": [
        {
          "internalType": "contract IUSKI",
          "name": "_new_USKIContract",
          "type": "address"
        }
      ],
      "name": "set_USKIContract",
      "outputs": [],
      "payable": false,
      "stateMutability": "nonpayable",
      "type": "function"
    },
    {
      "constant": false,
      "inputs": [
        {
          "internalType": "contract IERC20",
          "name": "_new_NEW_DAI_TOKEN_ADDRESS",
          "type": "address"
        }
      ],
      "name": "set_NEW_DAI_TOKEN_ADDRESS",
      "outputs": [],
      "payable": false,
      "stateMutability": "nonpayable",
      "type": "function"
    },
    {
      "constant": false,
      "inputs": [],
      "name": "LetsInvest",
      "outputs": [
        {
          "internalType": "bool",
          "name": "",
          "type": "bool"
        }
      ],
      "payable": true,
      "stateMutability": "payable",
      "type": "function"
    },
    {
      "constant": false,
      "inputs": [],
      "name": "withdrawDAI",
      "outputs": [],
      "payable": false,
      "stateMutability": "nonpayable",
      "type": "function"
    },
    {
      "constant": false,
      "inputs": [],
      "name": "depositETH",
      "outputs": [],
      "payable": true,
      "stateMutability": "payable",
      "type": "function"
    },
    {
      "constant": false,
      "inputs": [],
      "name": "withdraw",
      "outputs": [],
      "payable": false,
      "stateMutability": "nonpayable",
      "type": "function"
    }
  ],
  "bytecode": "0x60806040523073ffffffffffffffffffffffffffffffffffffffff16316002556000600360006101000a81548160ff021916908315150217905550732a1530c4c41db0b0b2bb646cb5eb1a67b7158667600360016101000a81548173ffffffffffffffffffffffffffffffffffffffff021916908373ffffffffffffffffffffffffffffffffffffffff16021790555073995a332bfcebe3068c1b7b0cc6959fecf73c56ac600460006101000a81548173ffffffffffffffffffffffffffffffffffffffff021916908373ffffffffffffffffffffffffffffffffffffffff160217905550736b175474e89094c44da98b954eedeac495271d0f600560006101000a81548173ffffffffffffffffffffffffffffffffffffffff021916908373ffffffffffffffffffffffffffffffffffffffff1602179055507385d57c13436df73d2248c535b5cde41dc8b63f27600660006101000a81548173ffffffffffffffffffffffffffffffffffffffff021916908373ffffffffffffffffffffffffffffffffffffffff160217905550600360019054906101000a900473ffffffffffffffffffffffffffffffffffffffff16600760006101000a81548173ffffffffffffffffffffffffffffffffffffffff021916908373ffffffffffffffffffffffffffffffffffffffff160217905550348015620001fe57600080fd5b5060006200021a620002d7640100000000026401000000009004565b9050806000806101000a81548173ffffffffffffffffffffffffffffffffffffffff021916908373ffffffffffffffffffffffffffffffffffffffff1602179055508073ffffffffffffffffffffffffffffffffffffffff16600073ffffffffffffffffffffffffffffffffffffffff167f8be0079c531659141344cd1fd0a4f28419497f9722a3daafe3b4186f6b6457e060405160405180910390a350620002d1620002df640100000000026401000000009004565b6200050f565b600033905090565b620002f8620004a0640100000000026401000000009004565b6200036b576040517f08c379a00000000000000000000000000000000000000000000000000000000081526004018080602001828103825260208152602001807f4f776e61626c653a2063616c6c6572206973206e6f7420746865206f776e657281525060200191505060405180910390fd5b600560009054906101000a900473ffffffffffffffffffffffffffffffffffffffff1673ffffffffffffffffffffffffffffffffffffffff1663095ea7b3600360019054906101000a900473ffffffffffffffffffffffffffffffffffffffff166c01431e0fae6d7217caa00000006040518363ffffffff167c0100000000000000000000000000000000000000000000000000000000028152600401808373ffffffffffffffffffffffffffffffffffffffff1673ffffffffffffffffffffffffffffffffffffffff16815260200182815260200192505050602060405180830381600087803b1580156200046057600080fd5b505af115801562000475573d6000803e3d6000fd5b505050506040513d60208110156200048c57600080fd5b810190808051906020019092919050505050565b60008060009054906101000a900473ffffffffffffffffffffffffffffffffffffffff1673ffffffffffffffffffffffffffffffffffffffff16620004f3620002d7640100000000026401000000009004565b73ffffffffffffffffffffffffffffffffffffffff1614905090565b611d57806200051f6000396000f3fe608060405260043610610131576000357c0100000000000000000000000000000000000000000000000000000000900480638f32d59b116100bd578063bd45126d11610081578063bd45126d146104e0578063d13efc3814610537578063e0bfc46d14610588578063f2fde38b146105d9578063f6326fb31461062a57610131565b80638f32d59b146103b3578063a035b1fe146103e2578063a38c55721461040d578063b2bdfa7b1461045e578063b69ef8a8146104b557610131565b80634ae7cd03116101045780634ae7cd0314610246578063588dc6141461029d5780636dc6e6b9146102ee578063715018a6146103455780638da5cb5b1461035c57610131565b8063020bcc9e1461019f578063082fef45146101b65780633ccfd60b146101d85780634137156c146101ef575b6000809054906101000a900473ffffffffffffffffffffffffffffffffffffffff1673ffffffffffffffffffffffffffffffffffffffff163373ffffffffffffffffffffffffffffffffffffffff1614156101935761018e610634565b61019d565b61019b6106c0565b505b005b3480156101ab57600080fd5b506101b4610ecc565b005b6101be6106c0565b604051808215151515815260200191505060405180910390f35b3480156101e457600080fd5b506101ed611165565b005b3480156101fb57600080fd5b50610204611260565b604051808273ffffffffffffffffffffffffffffffffffffffff1673ffffffffffffffffffffffffffffffffffffffff16815260200191505060405180910390f35b34801561025257600080fd5b5061025b611286565b604051808273ffffffffffffffffffffffffffffffffffffffff1673ffffffffffffffffffffffffffffffffffffffff16815260200191505060405180910390f35b3480156102a957600080fd5b506102ec600480360360208110156102c057600080fd5b81019080803573ffffffffffffffffffffffffffffffffffffffff1690602001909291905050506112ac565b005b3480156102fa57600080fd5b5061030361136a565b604051808273ffffffffffffffffffffffffffffffffffffffff1673ffffffffffffffffffffffffffffffffffffffff16815260200191505060405180910390f35b34801561035157600080fd5b5061035a611390565b005b34801561036857600080fd5b506103716114c9565b604051808273ffffffffffffffffffffffffffffffffffffffff1673ffffffffffffffffffffffffffffffffffffffff16815260200191505060405180910390f35b3480156103bf57600080fd5b506103c86114f2565b604051808215151515815260200191505060405180910390f35b3480156103ee57600080fd5b506103f7611550565b6040518082815260200191505060405180910390f35b34801561041957600080fd5b5061045c6004803603602081101561043057600080fd5b81019080803573ffffffffffffffffffffffffffffffffffffffff169060200190929190505050611556565b005b34801561046a57600080fd5b50610473611614565b604051808273ffffffffffffffffffffffffffffffffffffffff1673ffffffffffffffffffffffffffffffffffffffff16815260200191505060405180910390f35b3480156104c157600080fd5b506104ca611639565b6040518082815260200191505060405180910390f35b3480156104ec57600080fd5b506104f561163f565b604051808273ffffffffffffffffffffffffffffffffffffffff1673ffffffffffffffffffffffffffffffffffffffff16815260200191505060405180910390f35b34801561054357600080fd5b506105866004803603602081101561055a57600080fd5b81019080803573ffffffffffffffffffffffffffffffffffffffff169060200190929190505050611665565b005b34801561059457600080fd5b506105d7600480360360208110156105ab57600080fd5b81019080803573ffffffffffffffffffffffffffffffffffffffff169060200190929190505050611723565b005b3480156105e557600080fd5b50610628600480360360208110156105fc57600080fd5b81019080803573ffffffffffffffffffffffffffffffffffffffff1690602001909291905050506117e1565b005b610632610634565b005b61063c6114f2565b6106ae576040517f08c379a00000000000000000000000000000000000000000000000000000000081526004018080602001828103825260208152602001807f4f776e61626c653a2063616c6c6572206973206e6f7420746865206f776e657281525060200191505060405180910390fd5b34600260008282540192505081905550565b6000600360009054906101000a900460ff16610ec95766038d7ea4c6800034116106e957600080fd5b60006107026106fa346101f9611867565b6103e86118ed565b905060006107103483611937565b90506000600460009054906101000a900473ffffffffffffffffffffffffffffffffffffffff1673ffffffffffffffffffffffffffffffffffffffff16639b7c248e846040518263ffffffff167c01000000000000000000000000000000000000000000000000000000000281526004016020604051808303818588803b15801561079a57600080fd5b505af11580156107ae573d6000803e3d6000fd5b50505050506040513d60208110156107c557600080fd5b810190808051906020019092919050505090507f687721a79812a8b5d691a694a133a94b90db5f137f6c59e9c3f6a2159d2fb4fd816040518082815260200191505060405180910390a1600660009054906101000a900473ffffffffffffffffffffffffffffffffffffffff1673ffffffffffffffffffffffffffffffffffffffff16636294f462836040518263ffffffff167c010000000000000000000000000000000000000000000000000000000002815260040180828152602001915050602060405180830381600087803b1580156108a057600080fd5b505af11580156108b4573d6000803e3d6000fd5b505050506040513d60208110156108ca57600080fd5b8101908080519060200190929190505050506000600660009054906101000a900473ffffffffffffffffffffffffffffffffffffffff1673ffffffffffffffffffffffffffffffffffffffff166354572e096040518163ffffffff167c0100000000000000000000000000000000000000000000000000000000028152600401602060405180830381600087803b15801561096457600080fd5b505af1158015610978573d6000803e3d6000fd5b505050506040513d602081101561098e57600080fd5b8101908080519060200190929190505050905060006109af42610708611981565b9050600360019054906101000a900473ffffffffffffffffffffffffffffffffffffffff1673ffffffffffffffffffffffffffffffffffffffff1663422f104385600185856040518563ffffffff167c01000000000000000000000000000000000000000000000000000000000281526004018084815260200183815260200182815260200193505050506020604051808303818588803b158015610a5357600080fd5b505af1158015610a67573d6000803e3d6000fd5b50505050506040513d6020811015610a7e57600080fd5b8101908080519060200190929190505050506000600360019054906101000a900473ffffffffffffffffffffffffffffffffffffffff1673ffffffffffffffffffffffffffffffffffffffff166370a08231306040518263ffffffff167c0100000000000000000000000000000000000000000000000000000000028152600401808273ffffffffffffffffffffffffffffffffffffffff1673ffffffffffffffffffffffffffffffffffffffff16815260200191505060206040518083038186803b158015610b4d57600080fd5b505afa158015610b61573d6000803e3d6000fd5b505050506040513d6020811015610b7757600080fd5b810190808051906020019092919050505090507ff5c05964d6de51616cafa30b23fd7dde709b1dead4389f0e4dc6ae103ef97dff816040518082815260200191505060405180910390a1600360019054906101000a900473ffffffffffffffffffffffffffffffffffffffff1673ffffffffffffffffffffffffffffffffffffffff1663a9059cbb33836040518363ffffffff167c0100000000000000000000000000000000000000000000000000000000028152600401808373ffffffffffffffffffffffffffffffffffffffff1673ffffffffffffffffffffffffffffffffffffffff16815260200182815260200192505050602060405180830381600087803b158015610c8657600080fd5b505af1158015610c9a573d6000803e3d6000fd5b505050506040513d6020811015610cb057600080fd5b8101908080519060200190929190505050506000600560009054906101000a900473ffffffffffffffffffffffffffffffffffffffff1673ffffffffffffffffffffffffffffffffffffffff166370a08231306040518263ffffffff167c0100000000000000000000000000000000000000000000000000000000028152600401808273ffffffffffffffffffffffffffffffffffffffff1673ffffffffffffffffffffffffffffffffffffffff16815260200191505060206040518083038186803b158015610d7f57600080fd5b505afa158015610d93573d6000803e3d6000fd5b505050506040513d6020811015610da957600080fd5b81019080805190602001909291905050509050600560009054906101000a900473ffffffffffffffffffffffffffffffffffffffff1673ffffffffffffffffffffffffffffffffffffffff1663a9059cbb33836040518363ffffffff167c0100000000000000000000000000000000000000000000000000000000028152600401808373ffffffffffffffffffffffffffffffffffffffff1673ffffffffffffffffffffffffffffffffffffffff16815260200182815260200192505050602060405180830381600087803b158015610e8157600080fd5b505af1158015610e95573d6000803e3d6000fd5b505050506040513d6020811015610eab57600080fd5b81019080805190602001909291905050505060019750505050505050505b90565b610ed46114f2565b610f46576040517f08c379a00000000000000000000000000000000000000000000000000000000081526004018080602001828103825260208152602001807f4f776e61626c653a2063616c6c6572206973206e6f7420746865206f776e657281525060200191505060405180910390fd5b6000600560009054906101000a900473ffffffffffffffffffffffffffffffffffffffff1673ffffffffffffffffffffffffffffffffffffffff166370a08231306040518263ffffffff167c0100000000000000000000000000000000000000000000000000000000028152600401808273ffffffffffffffffffffffffffffffffffffffff1673ffffffffffffffffffffffffffffffffffffffff16815260200191505060206040518083038186803b15801561100357600080fd5b505afa158015611017573d6000803e3d6000fd5b505050506040513d602081101561102d57600080fd5b81019080805190602001909291905050509050600560009054906101000a900473ffffffffffffffffffffffffffffffffffffffff1673ffffffffffffffffffffffffffffffffffffffff1663a9059cbb6000809054906101000a900473ffffffffffffffffffffffffffffffffffffffff16836040518363ffffffff167c0100000000000000000000000000000000000000000000000000000000028152600401808373ffffffffffffffffffffffffffffffffffffffff1673ffffffffffffffffffffffffffffffffffffffff16815260200182815260200192505050602060405180830381600087803b15801561112657600080fd5b505af115801561113a573d6000803e3d6000fd5b505050506040513d602081101561115057600080fd5b81019080805190602001909291905050505050565b61116d6114f2565b6111df576040517f08c379a00000000000000000000000000000000000000000000000000000000081526004018080602001828103825260208152602001807f4f776e61626c653a2063616c6c6572206973206e6f7420746865206f776e657281525060200191505060405180910390fd5b6000809054906101000a900473ffffffffffffffffffffffffffffffffffffffff1673ffffffffffffffffffffffffffffffffffffffff166108fc3073ffffffffffffffffffffffffffffffffffffffff16319081150290604051600060405180830381858888f1935050505015801561125d573d6000803e3d6000fd5b50565b600560009054906101000a900473ffffffffffffffffffffffffffffffffffffffff1681565b600760009054906101000a900473ffffffffffffffffffffffffffffffffffffffff1681565b6112b46114f2565b611326576040517f08c379a00000000000000000000000000000000000000000000000000000000081526004018080602001828103825260208152602001807f4f776e61626c653a2063616c6c6572206973206e6f7420746865206f776e657281525060200191505060405180910390fd5b80600560006101000a81548173ffffffffffffffffffffffffffffffffffffffff021916908373ffffffffffffffffffffffffffffffffffffffff16021790555050565b600660009054906101000a900473ffffffffffffffffffffffffffffffffffffffff1681565b6113986114f2565b61140a576040517f08c379a00000000000000000000000000000000000000000000000000000000081526004018080602001828103825260208152602001807f4f776e61626c653a2063616c6c6572206973206e6f7420746865206f776e657281525060200191505060405180910390fd5b600073ffffffffffffffffffffffffffffffffffffffff166000809054906101000a900473ffffffffffffffffffffffffffffffffffffffff1673ffffffffffffffffffffffffffffffffffffffff167f8be0079c531659141344cd1fd0a4f28419497f9722a3daafe3b4186f6b6457e060405160405180910390a360008060006101000a81548173ffffffffffffffffffffffffffffffffffffffff021916908373ffffffffffffffffffffffffffffffffffffffff160217905550565b60008060009054906101000a900473ffffffffffffffffffffffffffffffffffffffff16905090565b60008060009054906101000a900473ffffffffffffffffffffffffffffffffffffffff1673ffffffffffffffffffffffffffffffffffffffff16611534611a09565b73ffffffffffffffffffffffffffffffffffffffff1614905090565b60015481565b61155e6114f2565b6115d0576040517f08c379a00000000000000000000000000000000000000000000000000000000081526004018080602001828103825260208152602001807f4f776e61626c653a2063616c6c6572206973206e6f7420746865206f776e657281525060200191505060405180910390fd5b80600360016101000a81548173ffffffffffffffffffffffffffffffffffffffff021916908373ffffffffffffffffffffffffffffffffffffffff16021790555050565b6000809054906101000a900473ffffffffffffffffffffffffffffffffffffffff1681565b60025481565b600460009054906101000a900473ffffffffffffffffffffffffffffffffffffffff1681565b61166d6114f2565b6116df576040517f08c379a00000000000000000000000000000000000000000000000000000000081526004018080602001828103825260208152602001807f4f776e61626c653a2063616c6c6572206973206e6f7420746865206f776e657281525060200191505060405180910390fd5b80600460006101000a81548173ffffffffffffffffffffffffffffffffffffffff021916908373ffffffffffffffffffffffffffffffffffffffff16021790555050565b61172b6114f2565b61179d576040517f08c379a00000000000000000000000000000000000000000000000000000000081526004018080602001828103825260208152602001807f4f776e61626c653a2063616c6c6572206973206e6f7420746865206f776e657281525060200191505060405180910390fd5b80600660006101000a81548173ffffffffffffffffffffffffffffffffffffffff021916908373ffffffffffffffffffffffffffffffffffffffff16021790555050565b6117e96114f2565b61185b576040517f08c379a00000000000000000000000000000000000000000000000000000000081526004018080602001828103825260208152602001807f4f776e61626c653a2063616c6c6572206973206e6f7420746865206f776e657281525060200191505060405180910390fd5b61186481611a11565b50565b60008083141561187a57600090506118e7565b600082840290508284828161188b57fe5b04146118e2576040517f08c379a0000000000000000000000000000000000000000000000000000000008152600401808060200182810382526021815260200180611d026021913960400191505060405180910390fd5b809150505b92915050565b600061192f83836040518060400160405280601a81526020017f536166654d6174683a206469766973696f6e206279207a65726f000000000000815250611b55565b905092915050565b600061197983836040518060400160405280601e81526020017f536166654d6174683a207375627472616374696f6e206f766572666c6f770000815250611c1b565b905092915050565b6000808284019050838110156119ff576040517f08c379a000000000000000000000000000000000000000000000000000000000815260040180806020018281038252601b8152602001807f536166654d6174683a206164646974696f6e206f766572666c6f77000000000081525060200191505060405180910390fd5b8091505092915050565b600033905090565b600073ffffffffffffffffffffffffffffffffffffffff168173ffffffffffffffffffffffffffffffffffffffff161415611a97576040517f08c379a0000000000000000000000000000000000000000000000000000000008152600401808060200182810382526026815260200180611cdc6026913960400191505060405180910390fd5b8073ffffffffffffffffffffffffffffffffffffffff166000809054906101000a900473ffffffffffffffffffffffffffffffffffffffff1673ffffffffffffffffffffffffffffffffffffffff167f8be0079c531659141344cd1fd0a4f28419497f9722a3daafe3b4186f6b6457e060405160405180910390a3806000806101000a81548173ffffffffffffffffffffffffffffffffffffffff021916908373ffffffffffffffffffffffffffffffffffffffff16021790555050565b60008083118290611c01576040517f08c379a00000000000000000000000000000000000000000000000000000000081526004018080602001828103825283818151815260200191508051906020019080838360005b83811015611bc6578082015181840152602081019050611bab565b50505050905090810190601f168015611bf35780820380516001836020036101000a031916815260200191505b509250505060405180910390fd5b506000838581611c0d57fe5b049050809150509392505050565b6000838311158290611cc8576040517f08c379a00000000000000000000000000000000000000000000000000000000081526004018080602001828103825283818151815260200191508051906020019080838360005b83811015611c8d578082015181840152602081019050611c72565b50505050905090810190601f168015611cba5780820380516001836020036101000a031916815260200191505b509250505060405180910390fd5b506000838503905080915050939250505056fe4f776e61626c653a206e6577206f776e657220697320746865207a65726f2061646472657373536166654d6174683a206d756c7469706c69636174696f6e206f766572666c6f77a265627a7a7231582062c6867f5b2c6c454114d45af078a9bc8b982545e9daa1888e1b0a8050d97ddd64736f6c634300050b0032",
  "source": "pragma solidity ^0.5.0;\n\nimport './OpenZepplinOwnable.sol';\nimport './OpenZepplinSafeMath.sol';\nimport './OpenZepplinIERC20.sol';\n\n// the objective of this contract is only to get the exchange price of the assets from the uniswap indexed\n\ninterface IuniswapExchange {\n    function getEthToTokenInputPrice(uint256 eth_sold) external view returns (uint256 tokens_bought);\n    function ethToTokenSwapInput(uint256 min_tokens, uint256 deadline) external payable returns (uint256  tokens_bought);\n    function balanceOf(address _owner) external view returns (uint256);\n    function transfer(address _to, uint256 _value) external returns (bool);\n    function addLiquidity(uint256 min_liquidity, uint256 max_tokens, uint256 deadline) external payable returns (uint256);\n    function totalSupply() external view returns (uint256);\n}\n\n\ninterface IuniswapExchangeExecution {\n    function ConvertETH2NEWDai() payable external returns (uint);\n}\n\n\ninterface IUSKI {\n    function getKeyInfo(uint value) external returns(bool);\n    function max_tokens() external returns(uint);\n    function min_liquidity() external returns(uint);\n}\n\ncontract uniswapLiquidityProviderZAP is Ownable {\n    using SafeMath for uint;\n    \n    // events\n    event DaiReceived(uint);\n    event LiquidityTokens(uint);\n    \n    // state variables\n    uint256 public price;\n    uint public balance = address(this).balance;\n    \n    // - in relation to the emergency functioning of this contract\n    bool private stopped = false;\n\n    \n    // circuit breaker modifiers\n    modifier stopInEmergency {if (!stopped) _;}\n    modifier onlyInEmergency {if (stopped) _;}\n    \n    // - this is address of the ETH to NewDAI contract in uniswapExchange\n    IuniswapExchange uniswapExchangeContract = IuniswapExchange(0x2a1530C4C41db0B0b2bB646CB5Eb1A67b7158667);\n    IuniswapExchangeExecution public uniswapExchangeExecutionContract = IuniswapExchangeExecution(0x995A332bfCeBE3068C1B7B0cC6959FecF73c56Ac);\n    IERC20 public NEW_DAI_TOKEN_ADDRESS = IERC20(0x6B175474E89094C44Da98b954EedeAC495271d0F);\n    IUSKI public USKIContract = IUSKI(0x85d57c13436DF73d2248C535b5CdE41Dc8B63F27);  \n    \n    address public uniswapExchangeContract_forBalance = address(uniswapExchangeContract);\n    \n    \n    constructor() public {\n        initialRun();\n    }\n    \n    function initialRun() onlyOwner internal {\n        NEW_DAI_TOKEN_ADDRESS.approve(address(uniswapExchangeContract),100000000000000000000000000000);\n    }\n    \n    \n    // should we ever want to change the address of the UniSwapExchangeContract\n    function set_uniswapExchangeContract(IuniswapExchange _new_uniswapExchangeContract) onlyOwner public {\n        uniswapExchangeContract = _new_uniswapExchangeContract;\n    }\n    \n    // should we ever want to change the address of the uniswapExchangeExecutionContract\n    function set_uniswapExchangeExecutionContract (IuniswapExchangeExecution _new_uniswapExchangeExecutionContract) onlyOwner public {\n        uniswapExchangeExecutionContract = _new_uniswapExchangeExecutionContract;\n    }\n    \n    \n    // should we ever want to change the address of the NEW_DAI_TOKEN_ADDRESS\n    function set_USKIContract (IUSKI _new_USKIContract) onlyOwner public {\n        USKIContract = _new_USKIContract;\n    }\n    \n    // should we ever want to change the address of the KeyInfo Contract\n    function set_NEW_DAI_TOKEN_ADDRESS (IERC20 _new_NEW_DAI_TOKEN_ADDRESS) onlyOwner public {\n        NEW_DAI_TOKEN_ADDRESS = _new_NEW_DAI_TOKEN_ADDRESS;\n    }\n    \n    \n    function LetsInvest() payable stopInEmergency public returns (bool) {\n        //some basic checks\n        require (msg.value > 0.001 ether);\n        \n        uint conversionPortion = SafeMath.div(SafeMath.mul(msg.value, 505), 1000);\n        uint non_conversionPortion = SafeMath.sub(msg.value,conversionPortion);\n        \n        // converting half of the ETH to new DAI\n        uint DaiReceivedAmt = uniswapExchangeExecutionContract.ConvertETH2NEWDai.value(conversionPortion)();\n        emit DaiReceived(DaiReceivedAmt);\n        \n        \n        // adding Liquidity\n        USKIContract.getKeyInfo(non_conversionPortion);\n        // uint min_liquidity_ans = USKI.min_liquidity();\n        uint max_tokens_ans = USKIContract.max_tokens();\n        uint deadLineToAddLiquidity = SafeMath.add(now,1800);\n        uniswapExchangeContract.addLiquidity.value(non_conversionPortion)(1,max_tokens_ans,deadLineToAddLiquidity);\n\n        // transferring Liquidity\n        uint holdings = uniswapExchangeContract.balanceOf(address(this));\n        emit LiquidityTokens(holdings);\n        uniswapExchangeContract.transfer(msg.sender, holdings);\n        uint residualDaiHoldings = NEW_DAI_TOKEN_ADDRESS.balanceOf(address(this));\n        NEW_DAI_TOKEN_ADDRESS.transfer(msg.sender, residualDaiHoldings);\n        return true;\n    }\n    \n    // incase of half-way error\n    function withdrawDAI() public onlyOwner {\n        uint StuckDaiHoldings = NEW_DAI_TOKEN_ADDRESS.balanceOf(address(this));\n        NEW_DAI_TOKEN_ADDRESS.transfer(_owner, StuckDaiHoldings);\n    }\n    \n    \n    // fx in relation to ETH held by the contract sent by the owner\n    \n    // - this function lets you deposit ETH into this wallet\n    function depositETH() payable public onlyOwner {\n        balance += msg.value;\n    }\n    \n    // - fallback function let you / anyone send ETH to this wallet without the need to call any function\n    function() external payable {\n        if (msg.sender == _owner) {\n            depositETH();\n        } else {\n            LetsInvest();\n        }\n    }\n    \n    // - to withdraw any ETH balance sitting in the contract\n    function withdraw() onlyOwner public{\n        _owner.transfer(address(this).balance);\n    }\n    \n}",
  "sourcePath": "/Users/dipeshsukhani/Desktop/Coding/DockerMounting/Python/allFolders/RemixSharedFolder/contracts/UniSwapAddLiquidity.sol",
  "compiler": {
    "name": "solc",
    "version": "0.5.11+commit.c082d0b4.Emscripten.clang"
  },
  "schemaVersion": "3.0.1",
  "updatedAt": "2019-12-04T23:08:35.121Z",
  "devdoc": {
    "methods": {
      "isOwner()": {
        "details": "Returns true if the caller is the current owner."
      },
      "owner()": {
        "details": "Returns the address of the current owner."
      },
      "renounceOwnership()": {
        "details": "Leaves the contract without owner. It will not be possible to call `onlyOwner` functions anymore. Can only be called by the current owner.     * NOTE: Renouncing ownership will leave the contract without an owner, thereby removing any functionality that is only available to the owner."
      },
      "transferOwnership(address)": {
        "details": "Transfers ownership of the contract to a new account (`newOwner`). Can only be called by the current owner."
      }
    }
  },
  "userdoc": {
    "methods": {}
  }
}