{
  "contractName": "UniSwap_SNX_DAI_ZAP",
  "abi": [
    {
      "constant": true,
      "inputs": [],
      "name": "UniSwapMKRContract",
      "outputs": [
        {
          "internalType": "contract IERC20",
          "name": "",
          "type": "address"
        }
      ],
      "payable": false,
      "stateMutability": "view",
      "type": "function"
    },
    {
      "constant": true,
      "inputs": [],
      "name": "SNX_TOKEN_ADDRESS",
      "outputs": [
        {
          "internalType": "contract IERC20",
          "name": "",
          "type": "address"
        }
      ],
      "payable": false,
      "stateMutability": "view",
      "type": "function"
    },
    {
      "constant": true,
      "inputs": [],
      "name": "UniSwapSNXContract",
      "outputs": [
        {
          "internalType": "contract IERC20",
          "name": "",
          "type": "address"
        }
      ],
      "payable": false,
      "stateMutability": "view",
      "type": "function"
    },
    {
      "constant": false,
      "inputs": [],
      "name": "renounceOwnership",
      "outputs": [],
      "payable": false,
      "stateMutability": "nonpayable",
      "type": "function"
    },
    {
      "constant": true,
      "inputs": [],
      "name": "owner",
      "outputs": [
        {
          "internalType": "address",
          "name": "",
          "type": "address"
        }
      ],
      "payable": false,
      "stateMutability": "view",
      "type": "function"
    },
    {
      "constant": true,
      "inputs": [],
      "name": "isOwner",
      "outputs": [
        {
          "internalType": "bool",
          "name": "",
          "type": "bool"
        }
      ],
      "payable": false,
      "stateMutability": "view",
      "type": "function"
    },
    {
      "constant": true,
      "inputs": [],
      "name": "MKR_TOKEN_ADDRESS",
      "outputs": [
        {
          "internalType": "contract IERC20",
          "name": "",
          "type": "address"
        }
      ],
      "payable": false,
      "stateMutability": "view",
      "type": "function"
    },
    {
      "constant": true,
      "inputs": [],
      "name": "_owner",
      "outputs": [
        {
          "internalType": "address payable",
          "name": "",
          "type": "address"
        }
      ],
      "payable": false,
      "stateMutability": "view",
      "type": "function"
    },
    {
      "constant": true,
      "inputs": [],
      "name": "balance",
      "outputs": [
        {
          "internalType": "uint256",
          "name": "",
          "type": "uint256"
        }
      ],
      "payable": false,
      "stateMutability": "view",
      "type": "function"
    },
    {
      "constant": false,
      "inputs": [
        {
          "internalType": "address payable",
          "name": "newOwner",
          "type": "address"
        }
      ],
      "name": "transferOwnership",
      "outputs": [],
      "payable": false,
      "stateMutability": "nonpayable",
      "type": "function"
    },
    {
      "payable": true,
      "stateMutability": "payable",
      "type": "fallback"
    },
    {
      "anonymous": false,
      "inputs": [
        {
          "indexed": true,
          "internalType": "address",
          "name": "previousOwner",
          "type": "address"
        },
        {
          "indexed": true,
          "internalType": "address",
          "name": "newOwner",
          "type": "address"
        }
      ],
      "name": "OwnershipTransferred",
      "type": "event"
    },
    {
      "constant": false,
      "inputs": [
        {
          "internalType": "contract UniSwapAddLiquidityZap",
          "name": "_new_UniSNXLiquidityContract",
          "type": "address"
        }
      ],
      "name": "set_UniSNXLiquidityContract",
      "outputs": [],
      "payable": false,
      "stateMutability": "nonpayable",
      "type": "function"
    },
    {
      "constant": false,
      "inputs": [
        {
          "internalType": "contract UniSwapAddLiquidityZap",
          "name": "_new_UniMKRLiquidityContract",
          "type": "address"
        }
      ],
      "name": "set_UniMKRLiquidityContract",
      "outputs": [],
      "payable": false,
      "stateMutability": "nonpayable",
      "type": "function"
    },
    {
      "constant": false,
      "inputs": [
        {
          "internalType": "contract IERC20",
          "name": "_new_SNX_TOKEN_ADDRESS",
          "type": "address"
        }
      ],
      "name": "set_SNX_TOKEN_ADDRESS",
      "outputs": [],
      "payable": false,
      "stateMutability": "nonpayable",
      "type": "function"
    },
    {
      "constant": false,
      "inputs": [
        {
          "internalType": "contract IERC20",
          "name": "_new_MKR_TOKEN_ADDRESS",
          "type": "address"
        }
      ],
      "name": "set_MKR_TOKEN_ADDRESS",
      "outputs": [],
      "payable": false,
      "stateMutability": "nonpayable",
      "type": "function"
    },
    {
      "constant": false,
      "inputs": [
        {
          "internalType": "contract IERC20",
          "name": "_new_UniSwapMKRContract",
          "type": "address"
        }
      ],
      "name": "set_UniSwapMKRContract",
      "outputs": [],
      "payable": false,
      "stateMutability": "nonpayable",
      "type": "function"
    },
    {
      "constant": false,
      "inputs": [
        {
          "internalType": "contract IERC20",
          "name": "_new_UniSwapSNXContract",
          "type": "address"
        }
      ],
      "name": "set_UniSwapSNXContract",
      "outputs": [],
      "payable": false,
      "stateMutability": "nonpayable",
      "type": "function"
    },
    {
      "constant": false,
      "inputs": [],
      "name": "LetsInvest",
      "outputs": [
        {
          "internalType": "bool",
          "name": "",
          "type": "bool"
        }
      ],
      "payable": true,
      "stateMutability": "payable",
      "type": "function"
    },
    {
      "constant": false,
      "inputs": [],
      "name": "withdrawMKR",
      "outputs": [],
      "payable": false,
      "stateMutability": "nonpayable",
      "type": "function"
    },
    {
      "constant": false,
      "inputs": [],
      "name": "withdrawSNX",
      "outputs": [],
      "payable": false,
      "stateMutability": "nonpayable",
      "type": "function"
    },
    {
      "constant": false,
      "inputs": [],
      "name": "withdrawMKRLiquityTokens",
      "outputs": [],
      "payable": false,
      "stateMutability": "nonpayable",
      "type": "function"
    },
    {
      "constant": false,
      "inputs": [],
      "name": "withdrawSNXLiquityTokens",
      "outputs": [],
      "payable": false,
      "stateMutability": "nonpayable",
      "type": "function"
    },
    {
      "constant": false,
      "inputs": [],
      "name": "depositETH",
      "outputs": [],
      "payable": true,
      "stateMutability": "payable",
      "type": "function"
    },
    {
      "constant": false,
      "inputs": [],
      "name": "withdraw",
      "outputs": [],
      "payable": false,
      "stateMutability": "nonpayable",
      "type": "function"
    }
  ],
  "bytecode": "0x608060405273d5320f3757c7db376f9f09ba7e05ba37c2bdd0cb600160006101000a81548173ffffffffffffffffffffffffffffffffffffffff021916908373ffffffffffffffffffffffffffffffffffffffff16021790555073c54df9fbe4212289ccb4d08546ba928cec7f9426600260006101000a81548173ffffffffffffffffffffffffffffffffffffffff021916908373ffffffffffffffffffffffffffffffffffffffff16021790555073c011a73ee8576fb46f5e1c5751ca3b9fe0af2a6f600360006101000a81548173ffffffffffffffffffffffffffffffffffffffff021916908373ffffffffffffffffffffffffffffffffffffffff160217905550739f8f72aa9304c8b593d555f12ef6589cc3a579a2600460006101000a81548173ffffffffffffffffffffffffffffffffffffffff021916908373ffffffffffffffffffffffffffffffffffffffff160217905550732c4bd064b998838076fa341a83d007fc2fa50957600560006101000a81548173ffffffffffffffffffffffffffffffffffffffff021916908373ffffffffffffffffffffffffffffffffffffffff160217905550733958b4ec427f8fa24eb60f42821760e88d485f7f600660006101000a81548173ffffffffffffffffffffffffffffffffffffffff021916908373ffffffffffffffffffffffffffffffffffffffff1602179055503073ffffffffffffffffffffffffffffffffffffffff16316007556000600860006101000a81548160ff02191690831515021790555060006102516102f4640100000000026401000000009004565b9050806000806101000a81548173ffffffffffffffffffffffffffffffffffffffff021916908373ffffffffffffffffffffffffffffffffffffffff1602179055508073ffffffffffffffffffffffffffffffffffffffff16600073ffffffffffffffffffffffffffffffffffffffff167f8be0079c531659141344cd1fd0a4f28419497f9722a3daafe3b4186f6b6457e060405160405180910390a3506102fc565b600033905090565b61299e8061030b6000396000f3fe60806040526004361061015d576000357c0100000000000000000000000000000000000000000000000000000000900480637361b1b2116100d3578063b69ef8a81161008c578063b69ef8a814610651578063bc0403e41461067c578063d1b409d214610693578063da6035ca146106aa578063f2fde38b146106c1578063f6326fb3146107125761015d565b80637361b1b2146104b55780638da5cb5b146104cc5780638f32d59b14610523578063ac19694e14610552578063acf4cac4146105a3578063b2bdfa7b146105fa5761015d565b80633dc03105116101255780633dc03105146102fd57806346a463eb1461034e57806353f865f31461039f5780635da8825e146103f657806363d7036e14610447578063715018a61461049e5761015d565b806304fae9cf146101cb578063082fef45146102225780630aa9a227146102445780632521509a146102955780633ccfd60b146102e6575b6000809054906101000a900473ffffffffffffffffffffffffffffffffffffffff1673ffffffffffffffffffffffffffffffffffffffff163373ffffffffffffffffffffffffffffffffffffffff1614156101bf576101ba61071c565b6101c9565b6101c76107a8565b505b005b3480156101d757600080fd5b506101e061125a565b604051808273ffffffffffffffffffffffffffffffffffffffff1673ffffffffffffffffffffffffffffffffffffffff16815260200191505060405180910390f35b61022a6107a8565b604051808215151515815260200191505060405180910390f35b34801561025057600080fd5b506102936004803603602081101561026757600080fd5b81019080803573ffffffffffffffffffffffffffffffffffffffff169060200190929190505050611280565b005b3480156102a157600080fd5b506102e4600480360360208110156102b857600080fd5b81019080803573ffffffffffffffffffffffffffffffffffffffff16906020019092919050505061133e565b005b3480156102f257600080fd5b506102fb6113fc565b005b34801561030957600080fd5b5061034c6004803603602081101561032057600080fd5b81019080803573ffffffffffffffffffffffffffffffffffffffff1690602001909291905050506114f7565b005b34801561035a57600080fd5b5061039d6004803603602081101561037157600080fd5b81019080803573ffffffffffffffffffffffffffffffffffffffff1690602001909291905050506115b5565b005b3480156103ab57600080fd5b506103b4611673565b604051808273ffffffffffffffffffffffffffffffffffffffff1673ffffffffffffffffffffffffffffffffffffffff16815260200191505060405180910390f35b34801561040257600080fd5b506104456004803603602081101561041957600080fd5b81019080803573ffffffffffffffffffffffffffffffffffffffff169060200190929190505050611699565b005b34801561045357600080fd5b5061045c611757565b604051808273ffffffffffffffffffffffffffffffffffffffff1673ffffffffffffffffffffffffffffffffffffffff16815260200191505060405180910390f35b3480156104aa57600080fd5b506104b361177d565b005b3480156104c157600080fd5b506104ca6118b6565b005b3480156104d857600080fd5b506104e1611b4f565b604051808273ffffffffffffffffffffffffffffffffffffffff1673ffffffffffffffffffffffffffffffffffffffff16815260200191505060405180910390f35b34801561052f57600080fd5b50610538611b78565b604051808215151515815260200191505060405180910390f35b34801561055e57600080fd5b506105a16004803603602081101561057557600080fd5b81019080803573ffffffffffffffffffffffffffffffffffffffff169060200190929190505050611bd6565b005b3480156105af57600080fd5b506105b8611c94565b604051808273ffffffffffffffffffffffffffffffffffffffff1673ffffffffffffffffffffffffffffffffffffffff16815260200191505060405180910390f35b34801561060657600080fd5b5061060f611cba565b604051808273ffffffffffffffffffffffffffffffffffffffff1673ffffffffffffffffffffffffffffffffffffffff16815260200191505060405180910390f35b34801561065d57600080fd5b50610666611cdf565b6040518082815260200191505060405180910390f35b34801561068857600080fd5b50610691611ce5565b005b34801561069f57600080fd5b506106a8611f7e565b005b3480156106b657600080fd5b506106bf612217565b005b3480156106cd57600080fd5b50610710600480360360208110156106e457600080fd5b81019080803573ffffffffffffffffffffffffffffffffffffffff1690602001909291905050506124b0565b005b61071a61071c565b005b610724611b78565b610796576040517f08c379a00000000000000000000000000000000000000000000000000000000081526004018080602001828103825260208152602001807f4f776e61626c653a2063616c6c6572206973206e6f7420746865206f776e657281525060200191505060405180910390fd5b34600760008282540192505081905550565b6000600860009054906101000a900460ff1661125757660aa87bee53800034116107d157600080fd5b60006107e86107e1346032612536565b60646125bc565b905060006107f63483612606565b9050600260009054906101000a900473ffffffffffffffffffffffffffffffffffffffff1673ffffffffffffffffffffffffffffffffffffffff1663082fef45836040518263ffffffff167c01000000000000000000000000000000000000000000000000000000000281526004016020604051808303818588803b15801561087e57600080fd5b505af1158015610892573d6000803e3d6000fd5b50505050506040513d60208110156108a957600080fd5b810190808051906020019092919050505061092c576040517f08c379a00000000000000000000000000000000000000000000000000000000081526004018080602001828103825260178152602001807f4164644c6971756964697479204d4b52204661696c656400000000000000000081525060200191505060405180910390fd5b600160009054906101000a900473ffffffffffffffffffffffffffffffffffffffff1673ffffffffffffffffffffffffffffffffffffffff1663082fef45826040518263ffffffff167c01000000000000000000000000000000000000000000000000000000000281526004016020604051808303818588803b1580156109b257600080fd5b505af11580156109c6573d6000803e3d6000fd5b50505050506040513d60208110156109dd57600080fd5b8101908080519060200190929190505050610a60576040517f08c379a00000000000000000000000000000000000000000000000000000000081526004018080602001828103825260178152602001807f4164644c697175696469747920534e58204661696c656400000000000000000081525060200191505060405180910390fd5b6000600560009054906101000a900473ffffffffffffffffffffffffffffffffffffffff1673ffffffffffffffffffffffffffffffffffffffff166370a08231306040518263ffffffff167c0100000000000000000000000000000000000000000000000000000000028152600401808273ffffffffffffffffffffffffffffffffffffffff1673ffffffffffffffffffffffffffffffffffffffff16815260200191505060206040518083038186803b158015610b1d57600080fd5b505afa158015610b31573d6000803e3d6000fd5b505050506040513d6020811015610b4757600080fd5b81019080805190602001909291905050509050600560009054906101000a900473ffffffffffffffffffffffffffffffffffffffff1673ffffffffffffffffffffffffffffffffffffffff1663a9059cbb33836040518363ffffffff167c0100000000000000000000000000000000000000000000000000000000028152600401808373ffffffffffffffffffffffffffffffffffffffff1673ffffffffffffffffffffffffffffffffffffffff16815260200182815260200192505050602060405180830381600087803b158015610c1f57600080fd5b505af1158015610c33573d6000803e3d6000fd5b505050506040513d6020811015610c4957600080fd5b8101908080519060200190929190505050506000600660009054906101000a900473ffffffffffffffffffffffffffffffffffffffff1673ffffffffffffffffffffffffffffffffffffffff166370a08231306040518263ffffffff167c0100000000000000000000000000000000000000000000000000000000028152600401808273ffffffffffffffffffffffffffffffffffffffff1673ffffffffffffffffffffffffffffffffffffffff16815260200191505060206040518083038186803b158015610d1857600080fd5b505afa158015610d2c573d6000803e3d6000fd5b505050506040513d6020811015610d4257600080fd5b81019080805190602001909291905050509050600660009054906101000a900473ffffffffffffffffffffffffffffffffffffffff1673ffffffffffffffffffffffffffffffffffffffff1663a9059cbb33836040518363ffffffff167c0100000000000000000000000000000000000000000000000000000000028152600401808373ffffffffffffffffffffffffffffffffffffffff1673ffffffffffffffffffffffffffffffffffffffff16815260200182815260200192505050602060405180830381600087803b158015610e1a57600080fd5b505af1158015610e2e573d6000803e3d6000fd5b505050506040513d6020811015610e4457600080fd5b8101908080519060200190929190505050506000600460009054906101000a900473ffffffffffffffffffffffffffffffffffffffff1673ffffffffffffffffffffffffffffffffffffffff166370a08231306040518263ffffffff167c0100000000000000000000000000000000000000000000000000000000028152600401808273ffffffffffffffffffffffffffffffffffffffff1673ffffffffffffffffffffffffffffffffffffffff16815260200191505060206040518083038186803b158015610f1357600080fd5b505afa158015610f27573d6000803e3d6000fd5b505050506040513d6020811015610f3d57600080fd5b81019080805190602001909291905050509050600460009054906101000a900473ffffffffffffffffffffffffffffffffffffffff1673ffffffffffffffffffffffffffffffffffffffff1663a9059cbb33836040518363ffffffff167c0100000000000000000000000000000000000000000000000000000000028152600401808373ffffffffffffffffffffffffffffffffffffffff1673ffffffffffffffffffffffffffffffffffffffff16815260200182815260200192505050602060405180830381600087803b15801561101557600080fd5b505af1158015611029573d6000803e3d6000fd5b505050506040513d602081101561103f57600080fd5b8101908080519060200190929190505050506000600360009054906101000a900473ffffffffffffffffffffffffffffffffffffffff1673ffffffffffffffffffffffffffffffffffffffff166370a08231306040518263ffffffff167c0100000000000000000000000000000000000000000000000000000000028152600401808273ffffffffffffffffffffffffffffffffffffffff1673ffffffffffffffffffffffffffffffffffffffff16815260200191505060206040518083038186803b15801561110e57600080fd5b505afa158015611122573d6000803e3d6000fd5b505050506040513d602081101561113857600080fd5b81019080805190602001909291905050509050600360009054906101000a900473ffffffffffffffffffffffffffffffffffffffff1673ffffffffffffffffffffffffffffffffffffffff1663a9059cbb33836040518363ffffffff167c0100000000000000000000000000000000000000000000000000000000028152600401808373ffffffffffffffffffffffffffffffffffffffff1673ffffffffffffffffffffffffffffffffffffffff16815260200182815260200192505050602060405180830381600087803b15801561121057600080fd5b505af1158015611224573d6000803e3d6000fd5b505050506040513d602081101561123a57600080fd5b810190808051906020019092919050505050600196505050505050505b90565b600560009054906101000a900473ffffffffffffffffffffffffffffffffffffffff1681565b611288611b78565b6112fa576040517f08c379a00000000000000000000000000000000000000000000000000000000081526004018080602001828103825260208152602001807f4f776e61626c653a2063616c6c6572206973206e6f7420746865206f776e657281525060200191505060405180910390fd5b80600160006101000a81548173ffffffffffffffffffffffffffffffffffffffff021916908373ffffffffffffffffffffffffffffffffffffffff16021790555050565b611346611b78565b6113b8576040517f08c379a00000000000000000000000000000000000000000000000000000000081526004018080602001828103825260208152602001807f4f776e61626c653a2063616c6c6572206973206e6f7420746865206f776e657281525060200191505060405180910390fd5b80600360006101000a81548173ffffffffffffffffffffffffffffffffffffffff021916908373ffffffffffffffffffffffffffffffffffffffff16021790555050565b611404611b78565b611476576040517f08c379a00000000000000000000000000000000000000000000000000000000081526004018080602001828103825260208152602001807f4f776e61626c653a2063616c6c6572206973206e6f7420746865206f776e657281525060200191505060405180910390fd5b6000809054906101000a900473ffffffffffffffffffffffffffffffffffffffff1673ffffffffffffffffffffffffffffffffffffffff166108fc3073ffffffffffffffffffffffffffffffffffffffff16319081150290604051600060405180830381858888f193505050501580156114f4573d6000803e3d6000fd5b50565b6114ff611b78565b611571576040517f08c379a00000000000000000000000000000000000000000000000000000000081526004018080602001828103825260208152602001807f4f776e61626c653a2063616c6c6572206973206e6f7420746865206f776e657281525060200191505060405180910390fd5b80600560006101000a81548173ffffffffffffffffffffffffffffffffffffffff021916908373ffffffffffffffffffffffffffffffffffffffff16021790555050565b6115bd611b78565b61162f576040517f08c379a00000000000000000000000000000000000000000000000000000000081526004018080602001828103825260208152602001807f4f776e61626c653a2063616c6c6572206973206e6f7420746865206f776e657281525060200191505060405180910390fd5b80600660006101000a81548173ffffffffffffffffffffffffffffffffffffffff021916908373ffffffffffffffffffffffffffffffffffffffff16021790555050565b600360009054906101000a900473ffffffffffffffffffffffffffffffffffffffff1681565b6116a1611b78565b611713576040517f08c379a00000000000000000000000000000000000000000000000000000000081526004018080602001828103825260208152602001807f4f776e61626c653a2063616c6c6572206973206e6f7420746865206f776e657281525060200191505060405180910390fd5b80600260006101000a81548173ffffffffffffffffffffffffffffffffffffffff021916908373ffffffffffffffffffffffffffffffffffffffff16021790555050565b600660009054906101000a900473ffffffffffffffffffffffffffffffffffffffff1681565b611785611b78565b6117f7576040517f08c379a00000000000000000000000000000000000000000000000000000000081526004018080602001828103825260208152602001807f4f776e61626c653a2063616c6c6572206973206e6f7420746865206f776e657281525060200191505060405180910390fd5b600073ffffffffffffffffffffffffffffffffffffffff166000809054906101000a900473ffffffffffffffffffffffffffffffffffffffff1673ffffffffffffffffffffffffffffffffffffffff167f8be0079c531659141344cd1fd0a4f28419497f9722a3daafe3b4186f6b6457e060405160405180910390a360008060006101000a81548173ffffffffffffffffffffffffffffffffffffffff021916908373ffffffffffffffffffffffffffffffffffffffff160217905550565b6118be611b78565b611930576040517f08c379a00000000000000000000000000000000000000000000000000000000081526004018080602001828103825260208152602001807f4f776e61626c653a2063616c6c6572206973206e6f7420746865206f776e657281525060200191505060405180910390fd5b6000600660009054906101000a900473ffffffffffffffffffffffffffffffffffffffff1673ffffffffffffffffffffffffffffffffffffffff166370a08231306040518263ffffffff167c0100000000000000000000000000000000000000000000000000000000028152600401808273ffffffffffffffffffffffffffffffffffffffff1673ffffffffffffffffffffffffffffffffffffffff16815260200191505060206040518083038186803b1580156119ed57600080fd5b505afa158015611a01573d6000803e3d6000fd5b505050506040513d6020811015611a1757600080fd5b81019080805190602001909291905050509050600660009054906101000a900473ffffffffffffffffffffffffffffffffffffffff1673ffffffffffffffffffffffffffffffffffffffff1663a9059cbb6000809054906101000a900473ffffffffffffffffffffffffffffffffffffffff16836040518363ffffffff167c0100000000000000000000000000000000000000000000000000000000028152600401808373ffffffffffffffffffffffffffffffffffffffff1673ffffffffffffffffffffffffffffffffffffffff16815260200182815260200192505050602060405180830381600087803b158015611b1057600080fd5b505af1158015611b24573d6000803e3d6000fd5b505050506040513d6020811015611b3a57600080fd5b81019080805190602001909291905050505050565b60008060009054906101000a900473ffffffffffffffffffffffffffffffffffffffff16905090565b60008060009054906101000a900473ffffffffffffffffffffffffffffffffffffffff1673ffffffffffffffffffffffffffffffffffffffff16611bba612650565b73ffffffffffffffffffffffffffffffffffffffff1614905090565b611bde611b78565b611c50576040517f08c379a00000000000000000000000000000000000000000000000000000000081526004018080602001828103825260208152602001807f4f776e61626c653a2063616c6c6572206973206e6f7420746865206f776e657281525060200191505060405180910390fd5b80600460006101000a81548173ffffffffffffffffffffffffffffffffffffffff021916908373ffffffffffffffffffffffffffffffffffffffff16021790555050565b600460009054906101000a900473ffffffffffffffffffffffffffffffffffffffff1681565b6000809054906101000a900473ffffffffffffffffffffffffffffffffffffffff1681565b60075481565b611ced611b78565b611d5f576040517f08c379a00000000000000000000000000000000000000000000000000000000081526004018080602001828103825260208152602001807f4f776e61626c653a2063616c6c6572206973206e6f7420746865206f776e657281525060200191505060405180910390fd5b6000600360009054906101000a900473ffffffffffffffffffffffffffffffffffffffff1673ffffffffffffffffffffffffffffffffffffffff166370a08231306040518263ffffffff167c0100000000000000000000000000000000000000000000000000000000028152600401808273ffffffffffffffffffffffffffffffffffffffff1673ffffffffffffffffffffffffffffffffffffffff16815260200191505060206040518083038186803b158015611e1c57600080fd5b505afa158015611e30573d6000803e3d6000fd5b505050506040513d6020811015611e4657600080fd5b81019080805190602001909291905050509050600360009054906101000a900473ffffffffffffffffffffffffffffffffffffffff1673ffffffffffffffffffffffffffffffffffffffff1663a9059cbb6000809054906101000a900473ffffffffffffffffffffffffffffffffffffffff16836040518363ffffffff167c0100000000000000000000000000000000000000000000000000000000028152600401808373ffffffffffffffffffffffffffffffffffffffff1673ffffffffffffffffffffffffffffffffffffffff16815260200182815260200192505050602060405180830381600087803b158015611f3f57600080fd5b505af1158015611f53573d6000803e3d6000fd5b505050506040513d6020811015611f6957600080fd5b81019080805190602001909291905050505050565b611f86611b78565b611ff8576040517f08c379a00000000000000000000000000000000000000000000000000000000081526004018080602001828103825260208152602001807f4f776e61626c653a2063616c6c6572206973206e6f7420746865206f776e657281525060200191505060405180910390fd5b6000600460009054906101000a900473ffffffffffffffffffffffffffffffffffffffff1673ffffffffffffffffffffffffffffffffffffffff166370a08231306040518263ffffffff167c0100000000000000000000000000000000000000000000000000000000028152600401808273ffffffffffffffffffffffffffffffffffffffff1673ffffffffffffffffffffffffffffffffffffffff16815260200191505060206040518083038186803b1580156120b557600080fd5b505afa1580156120c9573d6000803e3d6000fd5b505050506040513d60208110156120df57600080fd5b81019080805190602001909291905050509050600460009054906101000a900473ffffffffffffffffffffffffffffffffffffffff1673ffffffffffffffffffffffffffffffffffffffff1663a9059cbb6000809054906101000a900473ffffffffffffffffffffffffffffffffffffffff16836040518363ffffffff167c0100000000000000000000000000000000000000000000000000000000028152600401808373ffffffffffffffffffffffffffffffffffffffff1673ffffffffffffffffffffffffffffffffffffffff16815260200182815260200192505050602060405180830381600087803b1580156121d857600080fd5b505af11580156121ec573d6000803e3d6000fd5b505050506040513d602081101561220257600080fd5b81019080805190602001909291905050505050565b61221f611b78565b612291576040517f08c379a00000000000000000000000000000000000000000000000000000000081526004018080602001828103825260208152602001807f4f776e61626c653a2063616c6c6572206973206e6f7420746865206f776e657281525060200191505060405180910390fd5b6000600560009054906101000a900473ffffffffffffffffffffffffffffffffffffffff1673ffffffffffffffffffffffffffffffffffffffff166370a08231306040518263ffffffff167c0100000000000000000000000000000000000000000000000000000000028152600401808273ffffffffffffffffffffffffffffffffffffffff1673ffffffffffffffffffffffffffffffffffffffff16815260200191505060206040518083038186803b15801561234e57600080fd5b505afa158015612362573d6000803e3d6000fd5b505050506040513d602081101561237857600080fd5b81019080805190602001909291905050509050600560009054906101000a900473ffffffffffffffffffffffffffffffffffffffff1673ffffffffffffffffffffffffffffffffffffffff1663a9059cbb6000809054906101000a900473ffffffffffffffffffffffffffffffffffffffff16836040518363ffffffff167c0100000000000000000000000000000000000000000000000000000000028152600401808373ffffffffffffffffffffffffffffffffffffffff1673ffffffffffffffffffffffffffffffffffffffff16815260200182815260200192505050602060405180830381600087803b15801561247157600080fd5b505af1158015612485573d6000803e3d6000fd5b505050506040513d602081101561249b57600080fd5b81019080805190602001909291905050505050565b6124b8611b78565b61252a576040517f08c379a00000000000000000000000000000000000000000000000000000000081526004018080602001828103825260208152602001807f4f776e61626c653a2063616c6c6572206973206e6f7420746865206f776e657281525060200191505060405180910390fd5b61253381612658565b50565b60008083141561254957600090506125b6565b600082840290508284828161255a57fe5b04146125b1576040517f08c379a00000000000000000000000000000000000000000000000000000000081526004018080602001828103825260218152602001806129496021913960400191505060405180910390fd5b809150505b92915050565b60006125fe83836040518060400160405280601a81526020017f536166654d6174683a206469766973696f6e206279207a65726f00000000000081525061279c565b905092915050565b600061264883836040518060400160405280601e81526020017f536166654d6174683a207375627472616374696f6e206f766572666c6f770000815250612862565b905092915050565b600033905090565b600073ffffffffffffffffffffffffffffffffffffffff168173ffffffffffffffffffffffffffffffffffffffff1614156126de576040517f08c379a00000000000000000000000000000000000000000000000000000000081526004018080602001828103825260268152602001806129236026913960400191505060405180910390fd5b8073ffffffffffffffffffffffffffffffffffffffff166000809054906101000a900473ffffffffffffffffffffffffffffffffffffffff1673ffffffffffffffffffffffffffffffffffffffff167f8be0079c531659141344cd1fd0a4f28419497f9722a3daafe3b4186f6b6457e060405160405180910390a3806000806101000a81548173ffffffffffffffffffffffffffffffffffffffff021916908373ffffffffffffffffffffffffffffffffffffffff16021790555050565b60008083118290612848576040517f08c379a00000000000000000000000000000000000000000000000000000000081526004018080602001828103825283818151815260200191508051906020019080838360005b8381101561280d5780820151818401526020810190506127f2565b50505050905090810190601f16801561283a5780820380516001836020036101000a031916815260200191505b509250505060405180910390fd5b50600083858161285457fe5b049050809150509392505050565b600083831115829061290f576040517f08c379a00000000000000000000000000000000000000000000000000000000081526004018080602001828103825283818151815260200191508051906020019080838360005b838110156128d45780820151818401526020810190506128b9565b50505050905090810190601f1680156129015780820380516001836020036101000a031916815260200191505b509250505060405180910390fd5b506000838503905080915050939250505056fe4f776e61626c653a206e6577206f776e657220697320746865207a65726f2061646472657373536166654d6174683a206d756c7469706c69636174696f6e206f766572666c6f77a265627a7a723158203c48bc161ce2cb9c1509e3ca00cbd3dad5841fc71df1d657fd290a189e64051764736f6c634300050b0032",
  "source": "pragma solidity ^0.5.0;\n\nimport './OpenZepplinOwnable.sol';\nimport './OpenZepplinSafeMath.sol';\nimport './OpenZepplinIERC20.sol';\n\ninterface UniSwapAddLiquidityZap{\n    function LetsInvest() external payable returns (bool);\n}\n\ncontract UniSwap_SNX_DAI_ZAP is Ownable {\n    using SafeMath for uint;\n\n    UniSwapAddLiquidityZap UniSNXLiquidityContract = UniSwapAddLiquidityZap(0xD5320F3757C7db376f9f09BA7e05BA37C2BdD0Cb);\n    UniSwapAddLiquidityZap UniMKRLiquidityContract = UniSwapAddLiquidityZap(0xC54dF9FBE4212289ccb4D08546BA928Cec7F9426);\n    IERC20 public SNX_TOKEN_ADDRESS = IERC20(0xC011a73ee8576Fb46F5E1c5751cA3B9Fe0af2a6F);\n    IERC20 public MKR_TOKEN_ADDRESS = IERC20(0x9f8F72aA9304c8B593d555F12eF6589cC3A579A2);\n    IERC20 public UniSwapMKRContract = IERC20(0x2C4Bd064b998838076fa341A83d007FC2FA50957);\n    IERC20 public UniSwapSNXContract = IERC20(0x3958B4eC427F8fa24eB60F42821760e88d485f7F);\n\n\n    uint public balance = address(this).balance;\n    \n    // - in relation to the emergency functioning of this contract\n    bool private stopped = false;\n\n    // circuit breaker modifiers\n    modifier stopInEmergency {if (!stopped) _;}\n    modifier onlyInEmergency {if (stopped) _;}\n\n    // should we ever want to change the address of UniSNXLiquidityContract\n    function set_UniSNXLiquidityContract(UniSwapAddLiquidityZap _new_UniSNXLiquidityContract) public onlyOwner {\n        UniSNXLiquidityContract = _new_UniSNXLiquidityContract;\n    }\n\n    // should we ever want to change the address of UniMKRLiquidityContract\n    function set_UniMKRLiquidityContract(UniSwapAddLiquidityZap _new_UniMKRLiquidityContract) public onlyOwner {\n        UniMKRLiquidityContract = _new_UniMKRLiquidityContract;\n    }\n\n    // should we ever want to change the address of the SNX_TOKEN_ADDRESS\n    function set_SNX_TOKEN_ADDRESS (IERC20 _new_SNX_TOKEN_ADDRESS) public onlyOwner {\n        SNX_TOKEN_ADDRESS = _new_SNX_TOKEN_ADDRESS;\n    }\n\n    // should we ever want to change the address of the MKR_TOKEN_ADDRESS\n    function set_MKR_TOKEN_ADDRESS (IERC20 _new_MKR_TOKEN_ADDRESS) public onlyOwner {\n        MKR_TOKEN_ADDRESS = _new_MKR_TOKEN_ADDRESS;\n    }\n\n\n    // should we ever want to change the address of the UniSwapMKRContract\n    function set_UniSwapMKRContract (IERC20 _new_UniSwapMKRContract) public onlyOwner {\n        UniSwapMKRContract = _new_UniSwapMKRContract;\n    }\n\n    // should we ever want to change the address of the UniSwapSNXContract\n    function set_UniSwapSNXContract (IERC20 _new_UniSwapSNXContract) public onlyOwner {\n        UniSwapSNXContract = _new_UniSwapSNXContract;\n    }\n\n    function LetsInvest() payable stopInEmergency public returns (bool) {\n        //some basic checks\n        require (msg.value > 0.003 ether);\n        \n        uint MKRPortion = SafeMath.div(SafeMath.mul(msg.value, 50), 100);\n        uint SNXPortion = SafeMath.sub(msg.value,MKRPortion);\n\n        require(UniMKRLiquidityContract.LetsInvest.value(MKRPortion)(), \"AddLiquidity MKR Failed\");\n        require(UniSNXLiquidityContract.LetsInvest.value(SNXPortion)(), \"AddLiquidity SNX Failed\");\n\n        uint MKRLiquidityTokens = UniSwapMKRContract.balanceOf(address(this));\n        UniSwapMKRContract.transfer(msg.sender, MKRLiquidityTokens);\n\n        uint SNXLiquidityTokens = UniSwapSNXContract.balanceOf(address(this));\n        UniSwapSNXContract.transfer(msg.sender, SNXLiquidityTokens);\n\n        uint residualMKRHoldings = MKR_TOKEN_ADDRESS.balanceOf(address(this));\n        MKR_TOKEN_ADDRESS.transfer(msg.sender, residualMKRHoldings);\n\n        uint residualSNXHoldings = SNX_TOKEN_ADDRESS.balanceOf(address(this));\n        SNX_TOKEN_ADDRESS.transfer(msg.sender, residualSNXHoldings);\n        return true;\n    }\n\n    // incase of half-way error\n    function withdrawMKR() public onlyOwner {\n        uint StuckMKRHoldings = MKR_TOKEN_ADDRESS.balanceOf(address(this));\n        MKR_TOKEN_ADDRESS.transfer(_owner, StuckMKRHoldings);\n    }\n\n    function withdrawSNX() public onlyOwner {\n        uint StuckSNXHoldings = SNX_TOKEN_ADDRESS.balanceOf(address(this));\n        SNX_TOKEN_ADDRESS.transfer(_owner, StuckSNXHoldings);\n    }\n    \n    function withdrawMKRLiquityTokens() public onlyOwner {\n        uint StuckMKRLiquityTokens = UniSwapMKRContract.balanceOf(address(this));\n        UniSwapMKRContract.transfer(_owner, StuckMKRLiquityTokens);\n    }\n\n   function withdrawSNXLiquityTokens() public onlyOwner {\n        uint StuckSNXLiquityTokens = UniSwapSNXContract.balanceOf(address(this));\n        UniSwapSNXContract.transfer(_owner, StuckSNXLiquityTokens);\n    }\n\n    \n    // fx in relation to ETH held by the contract sent by the owner\n    \n    // - this function lets you deposit ETH into this wallet\n    function depositETH() payable public onlyOwner {\n        balance += msg.value;\n    }\n    \n    // - fallback function let you / anyone send ETH to this wallet without the need to call any function\n    function() external payable {\n        if (msg.sender == _owner) {\n            depositETH();\n        } else {\n            LetsInvest();\n        }\n    }\n    \n    // - to withdraw any ETH balance sitting in the contract\n    function withdraw() onlyOwner public{\n        _owner.transfer(address(this).balance);\n    }\n}\n",
  "sourcePath": "/Users/dipeshsukhani/Desktop/Coding/DockerMounting/Python/allFolders/RemixSharedFolder/contracts/UniSwap_SNX_MKRZap.sol",
  "compiler": {
    "name": "solc",
    "version": "0.5.11+commit.c082d0b4.Emscripten.clang"
  },
  "schemaVersion": "3.0.1",
  "updatedAt": "2019-12-08T12:43:45.368Z",
  "devdoc": {
    "methods": {
      "isOwner()": {
        "details": "Returns true if the caller is the current owner."
      },
      "owner()": {
        "details": "Returns the address of the current owner."
      },
      "renounceOwnership()": {
        "details": "Leaves the contract without owner. It will not be possible to call `onlyOwner` functions anymore. Can only be called by the current owner.     * NOTE: Renouncing ownership will leave the contract without an owner, thereby removing any functionality that is only available to the owner."
      },
      "transferOwnership(address)": {
        "details": "Transfers ownership of the contract to a new account (`newOwner`). Can only be called by the current owner."
      }
    }
  },
  "userdoc": {
    "methods": {}
  }
}