{
  "contractName": "uniswapLiquidityProviderZAP",
  "abi": [
    {
      "constant": true,
      "inputs": [],
      "name": "NEW_DAI_TOKEN_ADDRESS",
      "outputs": [
        {
          "internalType": "contract IERC20",
          "name": "",
          "type": "address"
        }
      ],
      "payable": false,
      "stateMutability": "view",
      "type": "function"
    },
    {
      "constant": true,
      "inputs": [],
      "name": "uniswapExchangeContract_forBalance",
      "outputs": [
        {
          "internalType": "address",
          "name": "",
          "type": "address"
        }
      ],
      "payable": false,
      "stateMutability": "view",
      "type": "function"
    },
    {
      "constant": true,
      "inputs": [],
      "name": "USKIContract",
      "outputs": [
        {
          "internalType": "contract IUSKI",
          "name": "",
          "type": "address"
        }
      ],
      "payable": false,
      "stateMutability": "view",
      "type": "function"
    },
    {
      "constant": false,
      "inputs": [],
      "name": "renounceOwnership",
      "outputs": [],
      "payable": false,
      "stateMutability": "nonpayable",
      "type": "function"
    },
    {
      "constant": true,
      "inputs": [],
      "name": "owner",
      "outputs": [
        {
          "internalType": "address",
          "name": "",
          "type": "address"
        }
      ],
      "payable": false,
      "stateMutability": "view",
      "type": "function"
    },
    {
      "constant": true,
      "inputs": [],
      "name": "isOwner",
      "outputs": [
        {
          "internalType": "bool",
          "name": "",
          "type": "bool"
        }
      ],
      "payable": false,
      "stateMutability": "view",
      "type": "function"
    },
    {
      "constant": true,
      "inputs": [],
      "name": "price",
      "outputs": [
        {
          "internalType": "uint256",
          "name": "",
          "type": "uint256"
        }
      ],
      "payable": false,
      "stateMutability": "view",
      "type": "function"
    },
    {
      "constant": true,
      "inputs": [],
      "name": "_owner",
      "outputs": [
        {
          "internalType": "address payable",
          "name": "",
          "type": "address"
        }
      ],
      "payable": false,
      "stateMutability": "view",
      "type": "function"
    },
    {
      "constant": true,
      "inputs": [],
      "name": "balance",
      "outputs": [
        {
          "internalType": "uint256",
          "name": "",
          "type": "uint256"
        }
      ],
      "payable": false,
      "stateMutability": "view",
      "type": "function"
    },
    {
      "constant": true,
      "inputs": [],
      "name": "uniswapExchangeExecutionContract",
      "outputs": [
        {
          "internalType": "contract IuniswapExchangeExecution",
          "name": "",
          "type": "address"
        }
      ],
      "payable": false,
      "stateMutability": "view",
      "type": "function"
    },
    {
      "constant": false,
      "inputs": [
        {
          "internalType": "address payable",
          "name": "newOwner",
          "type": "address"
        }
      ],
      "name": "transferOwnership",
      "outputs": [],
      "payable": false,
      "stateMutability": "nonpayable",
      "type": "function"
    },
    {
      "inputs": [],
      "payable": false,
      "stateMutability": "nonpayable",
      "type": "constructor"
    },
    {
      "anonymous": false,
      "inputs": [
        {
          "indexed": false,
          "internalType": "uint256",
          "name": "",
          "type": "uint256"
        }
      ],
      "name": "DaiReceived",
      "type": "event"
    },
    {
      "anonymous": false,
      "inputs": [
        {
          "indexed": false,
          "internalType": "uint256",
          "name": "",
          "type": "uint256"
        }
      ],
      "name": "LiquidityTokens",
      "type": "event"
    },
    {
      "anonymous": false,
      "inputs": [
        {
          "indexed": false,
          "internalType": "uint256",
          "name": "",
          "type": "uint256"
        }
      ],
      "name": "ResidualTokens",
      "type": "event"
    },
    {
      "anonymous": false,
      "inputs": [
        {
          "indexed": false,
          "internalType": "uint256",
          "name": "",
          "type": "uint256"
        },
        {
          "indexed": false,
          "internalType": "uint256",
          "name": "",
          "type": "uint256"
        },
        {
          "indexed": false,
          "internalType": "uint256",
          "name": "",
          "type": "uint256"
        },
        {
          "indexed": false,
          "internalType": "uint256",
          "name": "",
          "type": "uint256"
        }
      ],
      "name": "Everything",
      "type": "event"
    },
    {
      "anonymous": false,
      "inputs": [
        {
          "indexed": true,
          "internalType": "address",
          "name": "previousOwner",
          "type": "address"
        },
        {
          "indexed": true,
          "internalType": "address",
          "name": "newOwner",
          "type": "address"
        }
      ],
      "name": "OwnershipTransferred",
      "type": "event"
    },
    {
      "constant": false,
      "inputs": [
        {
          "internalType": "contract IuniswapExchange",
          "name": "_new_uniswapExchangeContract",
          "type": "address"
        }
      ],
      "name": "set_uniswapExchangeContract",
      "outputs": [],
      "payable": false,
      "stateMutability": "nonpayable",
      "type": "function"
    },
    {
      "constant": false,
      "inputs": [
        {
          "internalType": "contract IuniswapExchangeExecution",
          "name": "_new_uniswapExchangeExecutionContract",
          "type": "address"
        }
      ],
      "name": "set_uniswapExchangeExecutionContract",
      "outputs": [],
      "payable": false,
      "stateMutability": "nonpayable",
      "type": "function"
    },
    {
      "constant": false,
      "inputs": [
        {
          "internalType": "contract IUSKI",
          "name": "_new_USKIContract",
          "type": "address"
        }
      ],
      "name": "set_USKIContract",
      "outputs": [],
      "payable": false,
      "stateMutability": "nonpayable",
      "type": "function"
    },
    {
      "constant": false,
      "inputs": [
        {
          "internalType": "contract IERC20",
          "name": "_new_NEW_DAI_TOKEN_ADDRESS",
          "type": "address"
        }
      ],
      "name": "set_NEW_DAI_TOKEN_ADDRESS",
      "outputs": [],
      "payable": false,
      "stateMutability": "nonpayable",
      "type": "function"
    },
    {
      "constant": false,
      "inputs": [
        {
          "internalType": "uint256",
          "name": "_number",
          "type": "uint256"
        }
      ],
      "name": "LetsInvest",
      "outputs": [
        {
          "internalType": "bool",
          "name": "",
          "type": "bool"
        }
      ],
      "payable": true,
      "stateMutability": "payable",
      "type": "function"
    },
    {
      "constant": false,
      "inputs": [],
      "name": "withdrawDAI",
      "outputs": [],
      "payable": false,
      "stateMutability": "nonpayable",
      "type": "function"
    },
    {
      "constant": false,
      "inputs": [],
      "name": "depositETH",
      "outputs": [],
      "payable": true,
      "stateMutability": "payable",
      "type": "function"
    },
    {
      "constant": false,
      "inputs": [],
      "name": "withdraw",
      "outputs": [],
      "payable": false,
      "stateMutability": "nonpayable",
      "type": "function"
    }
  ],
  "bytecode": "0x60806040523073ffffffffffffffffffffffffffffffffffffffff16316002556000600360006101000a81548160ff021916908315150217905550732a1530c4c41db0b0b2bb646cb5eb1a67b7158667600360016101000a81548173ffffffffffffffffffffffffffffffffffffffff021916908373ffffffffffffffffffffffffffffffffffffffff16021790555073995a332bfcebe3068c1b7b0cc6959fecf73c56ac600460006101000a81548173ffffffffffffffffffffffffffffffffffffffff021916908373ffffffffffffffffffffffffffffffffffffffff160217905550736b175474e89094c44da98b954eedeac495271d0f600560006101000a81548173ffffffffffffffffffffffffffffffffffffffff021916908373ffffffffffffffffffffffffffffffffffffffff1602179055507385d57c13436df73d2248c535b5cde41dc8b63f27600660006101000a81548173ffffffffffffffffffffffffffffffffffffffff021916908373ffffffffffffffffffffffffffffffffffffffff160217905550600360019054906101000a900473ffffffffffffffffffffffffffffffffffffffff16600760006101000a81548173ffffffffffffffffffffffffffffffffffffffff021916908373ffffffffffffffffffffffffffffffffffffffff160217905550348015620001fe57600080fd5b5060006200021a620002d7640100000000026401000000009004565b9050806000806101000a81548173ffffffffffffffffffffffffffffffffffffffff021916908373ffffffffffffffffffffffffffffffffffffffff1602179055508073ffffffffffffffffffffffffffffffffffffffff16600073ffffffffffffffffffffffffffffffffffffffff167f8be0079c531659141344cd1fd0a4f28419497f9722a3daafe3b4186f6b6457e060405160405180910390a350620002d1620002df640100000000026401000000009004565b6200050f565b600033905090565b620002f8620004a0640100000000026401000000009004565b6200036b576040517f08c379a00000000000000000000000000000000000000000000000000000000081526004018080602001828103825260208152602001807f4f776e61626c653a2063616c6c6572206973206e6f7420746865206f776e657281525060200191505060405180910390fd5b600560009054906101000a900473ffffffffffffffffffffffffffffffffffffffff1673ffffffffffffffffffffffffffffffffffffffff1663095ea7b3600360019054906101000a900473ffffffffffffffffffffffffffffffffffffffff166c01431e0fae6d7217caa00000006040518363ffffffff167c0100000000000000000000000000000000000000000000000000000000028152600401808373ffffffffffffffffffffffffffffffffffffffff1673ffffffffffffffffffffffffffffffffffffffff16815260200182815260200192505050602060405180830381600087803b1580156200046057600080fd5b505af115801562000475573d6000803e3d6000fd5b505050506040513d60208110156200048c57600080fd5b810190808051906020019092919050505050565b60008060009054906101000a900473ffffffffffffffffffffffffffffffffffffffff1673ffffffffffffffffffffffffffffffffffffffff16620004f3620002d7640100000000026401000000009004565b73ffffffffffffffffffffffffffffffffffffffff1614905090565b611cf3806200051f6000396000f3fe608060405260043610610131576000357c0100000000000000000000000000000000000000000000000000000000900480638f32d59b116100bd578063bd45126d11610081578063bd45126d1461049b578063d13efc38146104f2578063e0bfc46d14610543578063f2fde38b14610594578063f6326fb3146105e557610131565b80638f32d59b1461036e578063a035b1fe1461039d578063a38c5572146103c8578063b2bdfa7b14610419578063b69ef8a81461047057610131565b80634ae7cd03116101045780634ae7cd0314610201578063588dc614146102585780636dc6e6b9146102a9578063715018a6146103005780638da5cb5b1461031757610131565b8063020bcc9e146101365780633ccfd60b1461014d5780634137156c14610164578063427d4cfe146101bb575b600080fd5b34801561014257600080fd5b5061014b6105ef565b005b34801561015957600080fd5b50610162610888565b005b34801561017057600080fd5b50610179610983565b604051808273ffffffffffffffffffffffffffffffffffffffff1673ffffffffffffffffffffffffffffffffffffffff16815260200191505060405180910390f35b6101e7600480360360208110156101d157600080fd5b81019080803590602001909291905050506109a9565b604051808215151515815260200191505060405180910390f35b34801561020d57600080fd5b50610216611196565b604051808273ffffffffffffffffffffffffffffffffffffffff1673ffffffffffffffffffffffffffffffffffffffff16815260200191505060405180910390f35b34801561026457600080fd5b506102a76004803603602081101561027b57600080fd5b81019080803573ffffffffffffffffffffffffffffffffffffffff1690602001909291905050506111bc565b005b3480156102b557600080fd5b506102be61127a565b604051808273ffffffffffffffffffffffffffffffffffffffff1673ffffffffffffffffffffffffffffffffffffffff16815260200191505060405180910390f35b34801561030c57600080fd5b506103156112a0565b005b34801561032357600080fd5b5061032c6113d9565b604051808273ffffffffffffffffffffffffffffffffffffffff1673ffffffffffffffffffffffffffffffffffffffff16815260200191505060405180910390f35b34801561037a57600080fd5b50610383611402565b604051808215151515815260200191505060405180910390f35b3480156103a957600080fd5b506103b2611460565b6040518082815260200191505060405180910390f35b3480156103d457600080fd5b50610417600480360360208110156103eb57600080fd5b81019080803573ffffffffffffffffffffffffffffffffffffffff169060200190929190505050611466565b005b34801561042557600080fd5b5061042e611524565b604051808273ffffffffffffffffffffffffffffffffffffffff1673ffffffffffffffffffffffffffffffffffffffff16815260200191505060405180910390f35b34801561047c57600080fd5b50610485611549565b6040518082815260200191505060405180910390f35b3480156104a757600080fd5b506104b061154f565b604051808273ffffffffffffffffffffffffffffffffffffffff1673ffffffffffffffffffffffffffffffffffffffff16815260200191505060405180910390f35b3480156104fe57600080fd5b506105416004803603602081101561051557600080fd5b81019080803573ffffffffffffffffffffffffffffffffffffffff169060200190929190505050611575565b005b34801561054f57600080fd5b506105926004803603602081101561056657600080fd5b81019080803573ffffffffffffffffffffffffffffffffffffffff169060200190929190505050611633565b005b3480156105a057600080fd5b506105e3600480360360208110156105b757600080fd5b81019080803573ffffffffffffffffffffffffffffffffffffffff1690602001909291905050506116f1565b005b6105ed611777565b005b6105f7611402565b610669576040517f08c379a00000000000000000000000000000000000000000000000000000000081526004018080602001828103825260208152602001807f4f776e61626c653a2063616c6c6572206973206e6f7420746865206f776e657281525060200191505060405180910390fd5b6000600560009054906101000a900473ffffffffffffffffffffffffffffffffffffffff1673ffffffffffffffffffffffffffffffffffffffff166370a08231306040518263ffffffff167c0100000000000000000000000000000000000000000000000000000000028152600401808273ffffffffffffffffffffffffffffffffffffffff1673ffffffffffffffffffffffffffffffffffffffff16815260200191505060206040518083038186803b15801561072657600080fd5b505afa15801561073a573d6000803e3d6000fd5b505050506040513d602081101561075057600080fd5b81019080805190602001909291905050509050600560009054906101000a900473ffffffffffffffffffffffffffffffffffffffff1673ffffffffffffffffffffffffffffffffffffffff1663a9059cbb6000809054906101000a900473ffffffffffffffffffffffffffffffffffffffff16836040518363ffffffff167c0100000000000000000000000000000000000000000000000000000000028152600401808373ffffffffffffffffffffffffffffffffffffffff1673ffffffffffffffffffffffffffffffffffffffff16815260200182815260200192505050602060405180830381600087803b15801561084957600080fd5b505af115801561085d573d6000803e3d6000fd5b505050506040513d602081101561087357600080fd5b81019080805190602001909291905050505050565b610890611402565b610902576040517f08c379a00000000000000000000000000000000000000000000000000000000081526004018080602001828103825260208152602001807f4f776e61626c653a2063616c6c6572206973206e6f7420746865206f776e657281525060200191505060405180910390fd5b6000809054906101000a900473ffffffffffffffffffffffffffffffffffffffff1673ffffffffffffffffffffffffffffffffffffffff166108fc3073ffffffffffffffffffffffffffffffffffffffff16319081150290604051600060405180830381858888f19350505050158015610980573d6000803e3d6000fd5b50565b600560009054906101000a900473ffffffffffffffffffffffffffffffffffffffff1681565b6000600360009054906101000a900460ff166111915766038d7ea4c6800034116109d257600080fd5b60006109e96109e13485611803565b612710611889565b905060006109f734836118d3565b90506000600460009054906101000a900473ffffffffffffffffffffffffffffffffffffffff1673ffffffffffffffffffffffffffffffffffffffff16639b7c248e846040518263ffffffff167c01000000000000000000000000000000000000000000000000000000000281526004016020604051808303818588803b158015610a8157600080fd5b505af1158015610a95573d6000803e3d6000fd5b50505050506040513d6020811015610aac57600080fd5b81019080805190602001909291905050509050600660009054906101000a900473ffffffffffffffffffffffffffffffffffffffff1673ffffffffffffffffffffffffffffffffffffffff16636294f462836040518263ffffffff167c010000000000000000000000000000000000000000000000000000000002815260040180828152602001915050602060405180830381600087803b158015610b5057600080fd5b505af1158015610b64573d6000803e3d6000fd5b505050506040513d6020811015610b7a57600080fd5b8101908080519060200190929190505050506000600660009054906101000a900473ffffffffffffffffffffffffffffffffffffffff1673ffffffffffffffffffffffffffffffffffffffff166354572e096040518163ffffffff167c0100000000000000000000000000000000000000000000000000000000028152600401602060405180830381600087803b158015610c1457600080fd5b505af1158015610c28573d6000803e3d6000fd5b505050506040513d6020811015610c3e57600080fd5b810190808051906020019092919050505090506000610c5f4261070861191d565b9050600360019054906101000a900473ffffffffffffffffffffffffffffffffffffffff1673ffffffffffffffffffffffffffffffffffffffff1663422f104385600185856040518563ffffffff167c01000000000000000000000000000000000000000000000000000000000281526004018084815260200183815260200182815260200193505050506020604051808303818588803b158015610d0357600080fd5b505af1158015610d17573d6000803e3d6000fd5b50505050506040513d6020811015610d2e57600080fd5b8101908080519060200190929190505050506000600360019054906101000a900473ffffffffffffffffffffffffffffffffffffffff1673ffffffffffffffffffffffffffffffffffffffff166370a08231306040518263ffffffff167c0100000000000000000000000000000000000000000000000000000000028152600401808273ffffffffffffffffffffffffffffffffffffffff1673ffffffffffffffffffffffffffffffffffffffff16815260200191505060206040518083038186803b158015610dfd57600080fd5b505afa158015610e11573d6000803e3d6000fd5b505050506040513d6020811015610e2757600080fd5b81019080805190602001909291905050509050600360019054906101000a900473ffffffffffffffffffffffffffffffffffffffff1673ffffffffffffffffffffffffffffffffffffffff1663a9059cbb33836040518363ffffffff167c0100000000000000000000000000000000000000000000000000000000028152600401808373ffffffffffffffffffffffffffffffffffffffff1673ffffffffffffffffffffffffffffffffffffffff16815260200182815260200192505050602060405180830381600087803b158015610eff57600080fd5b505af1158015610f13573d6000803e3d6000fd5b505050506040513d6020811015610f2957600080fd5b8101908080519060200190929190505050506000600560009054906101000a900473ffffffffffffffffffffffffffffffffffffffff1673ffffffffffffffffffffffffffffffffffffffff166370a08231306040518263ffffffff167c0100000000000000000000000000000000000000000000000000000000028152600401808273ffffffffffffffffffffffffffffffffffffffff1673ffffffffffffffffffffffffffffffffffffffff16815260200191505060206040518083038186803b158015610ff857600080fd5b505afa15801561100c573d6000803e3d6000fd5b505050506040513d602081101561102257600080fd5b81019080805190602001909291905050509050600560009054906101000a900473ffffffffffffffffffffffffffffffffffffffff1673ffffffffffffffffffffffffffffffffffffffff1663a9059cbb33836040518363ffffffff167c0100000000000000000000000000000000000000000000000000000000028152600401808373ffffffffffffffffffffffffffffffffffffffff1673ffffffffffffffffffffffffffffffffffffffff16815260200182815260200192505050602060405180830381600087803b1580156110fa57600080fd5b505af115801561110e573d6000803e3d6000fd5b505050506040513d602081101561112457600080fd5b8101908080519060200190929190505050507face01df63caf6999be64ee6f2fdcb823ee0addc3928bd4b94af2a492d9019cc5878688846040518085815260200184815260200183815260200182815260200194505050505060405180910390a160019750505050505050505b919050565b600760009054906101000a900473ffffffffffffffffffffffffffffffffffffffff1681565b6111c4611402565b611236576040517f08c379a00000000000000000000000000000000000000000000000000000000081526004018080602001828103825260208152602001807f4f776e61626c653a2063616c6c6572206973206e6f7420746865206f776e657281525060200191505060405180910390fd5b80600560006101000a81548173ffffffffffffffffffffffffffffffffffffffff021916908373ffffffffffffffffffffffffffffffffffffffff16021790555050565b600660009054906101000a900473ffffffffffffffffffffffffffffffffffffffff1681565b6112a8611402565b61131a576040517f08c379a00000000000000000000000000000000000000000000000000000000081526004018080602001828103825260208152602001807f4f776e61626c653a2063616c6c6572206973206e6f7420746865206f776e657281525060200191505060405180910390fd5b600073ffffffffffffffffffffffffffffffffffffffff166000809054906101000a900473ffffffffffffffffffffffffffffffffffffffff1673ffffffffffffffffffffffffffffffffffffffff167f8be0079c531659141344cd1fd0a4f28419497f9722a3daafe3b4186f6b6457e060405160405180910390a360008060006101000a81548173ffffffffffffffffffffffffffffffffffffffff021916908373ffffffffffffffffffffffffffffffffffffffff160217905550565b60008060009054906101000a900473ffffffffffffffffffffffffffffffffffffffff16905090565b60008060009054906101000a900473ffffffffffffffffffffffffffffffffffffffff1673ffffffffffffffffffffffffffffffffffffffff166114446119a5565b73ffffffffffffffffffffffffffffffffffffffff1614905090565b60015481565b61146e611402565b6114e0576040517f08c379a00000000000000000000000000000000000000000000000000000000081526004018080602001828103825260208152602001807f4f776e61626c653a2063616c6c6572206973206e6f7420746865206f776e657281525060200191505060405180910390fd5b80600360016101000a81548173ffffffffffffffffffffffffffffffffffffffff021916908373ffffffffffffffffffffffffffffffffffffffff16021790555050565b6000809054906101000a900473ffffffffffffffffffffffffffffffffffffffff1681565b60025481565b600460009054906101000a900473ffffffffffffffffffffffffffffffffffffffff1681565b61157d611402565b6115ef576040517f08c379a00000000000000000000000000000000000000000000000000000000081526004018080602001828103825260208152602001807f4f776e61626c653a2063616c6c6572206973206e6f7420746865206f776e657281525060200191505060405180910390fd5b80600460006101000a81548173ffffffffffffffffffffffffffffffffffffffff021916908373ffffffffffffffffffffffffffffffffffffffff16021790555050565b61163b611402565b6116ad576040517f08c379a00000000000000000000000000000000000000000000000000000000081526004018080602001828103825260208152602001807f4f776e61626c653a2063616c6c6572206973206e6f7420746865206f776e657281525060200191505060405180910390fd5b80600660006101000a81548173ffffffffffffffffffffffffffffffffffffffff021916908373ffffffffffffffffffffffffffffffffffffffff16021790555050565b6116f9611402565b61176b576040517f08c379a00000000000000000000000000000000000000000000000000000000081526004018080602001828103825260208152602001807f4f776e61626c653a2063616c6c6572206973206e6f7420746865206f776e657281525060200191505060405180910390fd5b611774816119ad565b50565b61177f611402565b6117f1576040517f08c379a00000000000000000000000000000000000000000000000000000000081526004018080602001828103825260208152602001807f4f776e61626c653a2063616c6c6572206973206e6f7420746865206f776e657281525060200191505060405180910390fd5b34600260008282540192505081905550565b6000808314156118165760009050611883565b600082840290508284828161182757fe5b041461187e576040517f08c379a0000000000000000000000000000000000000000000000000000000008152600401808060200182810382526021815260200180611c9e6021913960400191505060405180910390fd5b809150505b92915050565b60006118cb83836040518060400160405280601a81526020017f536166654d6174683a206469766973696f6e206279207a65726f000000000000815250611af1565b905092915050565b600061191583836040518060400160405280601e81526020017f536166654d6174683a207375627472616374696f6e206f766572666c6f770000815250611bb7565b905092915050565b60008082840190508381101561199b576040517f08c379a000000000000000000000000000000000000000000000000000000000815260040180806020018281038252601b8152602001807f536166654d6174683a206164646974696f6e206f766572666c6f77000000000081525060200191505060405180910390fd5b8091505092915050565b600033905090565b600073ffffffffffffffffffffffffffffffffffffffff168173ffffffffffffffffffffffffffffffffffffffff161415611a33576040517f08c379a0000000000000000000000000000000000000000000000000000000008152600401808060200182810382526026815260200180611c786026913960400191505060405180910390fd5b8073ffffffffffffffffffffffffffffffffffffffff166000809054906101000a900473ffffffffffffffffffffffffffffffffffffffff1673ffffffffffffffffffffffffffffffffffffffff167f8be0079c531659141344cd1fd0a4f28419497f9722a3daafe3b4186f6b6457e060405160405180910390a3806000806101000a81548173ffffffffffffffffffffffffffffffffffffffff021916908373ffffffffffffffffffffffffffffffffffffffff16021790555050565b60008083118290611b9d576040517f08c379a00000000000000000000000000000000000000000000000000000000081526004018080602001828103825283818151815260200191508051906020019080838360005b83811015611b62578082015181840152602081019050611b47565b50505050905090810190601f168015611b8f5780820380516001836020036101000a031916815260200191505b509250505060405180910390fd5b506000838581611ba957fe5b049050809150509392505050565b6000838311158290611c64576040517f08c379a00000000000000000000000000000000000000000000000000000000081526004018080602001828103825283818151815260200191508051906020019080838360005b83811015611c29578082015181840152602081019050611c0e565b50505050905090810190601f168015611c565780820380516001836020036101000a031916815260200191505b509250505060405180910390fd5b506000838503905080915050939250505056fe4f776e61626c653a206e6577206f776e657220697320746865207a65726f2061646472657373536166654d6174683a206d756c7469706c69636174696f6e206f766572666c6f77a265627a7a7231582052e7ef86ad129e755f26a5bfeaaddaf535879574e16dce1019c114fd75b5eb5664736f6c634300050b0032",
  "source": "pragma solidity ^0.5.0;\n\nimport './OpenZepplinOwnable.sol';\nimport './OpenZepplinSafeMath.sol';\nimport './OpenZepplinIERC20.sol';\n\n// the objective of this contract is only to get the exchange price of the assets from the uniswap indexed\n\ninterface IuniswapExchange {\n    function getEthToTokenInputPrice(uint256 eth_sold) external view returns (uint256 tokens_bought);\n    function ethToTokenSwapInput(uint256 min_tokens, uint256 deadline) external payable returns (uint256  tokens_bought);\n    function balanceOf(address _owner) external view returns (uint256);\n    function transfer(address _to, uint256 _value) external returns (bool);\n    function addLiquidity(uint256 min_liquidity, uint256 max_tokens, uint256 deadline) external payable returns (uint256);\n    function totalSupply() external view returns (uint256);\n}\n\n\ninterface IuniswapExchangeExecution {\n    function ConvertETH2NEWDai() payable external returns (uint);\n}\n\n\ninterface IUSKI {\n    function getKeyInfo(uint value) external returns(bool);\n    function max_tokens() external returns(uint);\n    function min_liquidity() external returns(uint);\n}\n\ncontract uniswapLiquidityProviderZAP is Ownable {\n    using SafeMath for uint;\n    \n    // events\n    event DaiReceived(uint);\n    event LiquidityTokens(uint);\n    event ResidualTokens(uint);\n    event Everything(uint, uint, uint, uint);\n    // event Everything(ETHExchanged, DAITokensReceived, ETHTransferred, ResidualDai)\n    \n    // state variables\n    uint256 public price;\n    uint public balance = address(this).balance;\n    \n    // - in relation to the emergency functioning of this contract\n    bool private stopped = false;\n\n    \n    // circuit breaker modifiers\n    modifier stopInEmergency {if (!stopped) _;}\n    modifier onlyInEmergency {if (stopped) _;}\n    \n    // - this is address of the ETH to NewDAI contract in uniswapExchange\n    IuniswapExchange uniswapExchangeContract = IuniswapExchange(0x2a1530C4C41db0B0b2bB646CB5Eb1A67b7158667);\n    IuniswapExchangeExecution public uniswapExchangeExecutionContract = IuniswapExchangeExecution(0x995A332bfCeBE3068C1B7B0cC6959FecF73c56Ac);\n    IERC20 public NEW_DAI_TOKEN_ADDRESS = IERC20(0x6B175474E89094C44Da98b954EedeAC495271d0F);\n    IUSKI public USKIContract = IUSKI(0x85d57c13436DF73d2248C535b5CdE41Dc8B63F27);  \n    \n    address public uniswapExchangeContract_forBalance = address(uniswapExchangeContract);\n    \n    \n    constructor() public {\n        initialRun();\n    }\n    \n    function initialRun() onlyOwner internal {\n        NEW_DAI_TOKEN_ADDRESS.approve(address(uniswapExchangeContract),100000000000000000000000000000);\n    }\n    \n    \n    // should we ever want to change the address of the UniSwapExchangeContract\n    function set_uniswapExchangeContract(IuniswapExchange _new_uniswapExchangeContract) onlyOwner public {\n        uniswapExchangeContract = _new_uniswapExchangeContract;\n    }\n    \n    // should we ever want to change the address of the uniswapExchangeExecutionContract\n    function set_uniswapExchangeExecutionContract (IuniswapExchangeExecution _new_uniswapExchangeExecutionContract) onlyOwner public {\n        uniswapExchangeExecutionContract = _new_uniswapExchangeExecutionContract;\n    }\n    \n    \n    // should we ever want to change the address of the NEW_DAI_TOKEN_ADDRESS\n    function set_USKIContract (IUSKI _new_USKIContract) onlyOwner public {\n        USKIContract = _new_USKIContract;\n    }\n    \n    // should we ever want to change the address of the KeyInfo Contract\n    function set_NEW_DAI_TOKEN_ADDRESS (IERC20 _new_NEW_DAI_TOKEN_ADDRESS) onlyOwner public {\n        NEW_DAI_TOKEN_ADDRESS = _new_NEW_DAI_TOKEN_ADDRESS;\n    }\n    \n    \n    function LetsInvest(uint _number) payable stopInEmergency public returns (bool) {\n        //some basic checks\n        require (msg.value > 0.001 ether);\n        \n        uint conversionPortion = SafeMath.div(SafeMath.mul(msg.value, _number), 10000);\n        uint non_conversionPortion = SafeMath.sub(msg.value,conversionPortion);\n        \n        // converting half of the ETH to new DAI\n        uint DaiReceivedAmt = uniswapExchangeExecutionContract.ConvertETH2NEWDai.value(conversionPortion)();\n        // emit DaiReceived(DaiReceivedAmt);\n        \n        \n        // adding Liquidity\n        USKIContract.getKeyInfo(non_conversionPortion);\n        // uint min_liquidity_ans = USKI.min_liquidity();\n        uint max_tokens_ans = USKIContract.max_tokens();\n        uint deadLineToAddLiquidity = SafeMath.add(now,1800);\n        uniswapExchangeContract.addLiquidity.value(non_conversionPortion)(1,max_tokens_ans,deadLineToAddLiquidity);\n\n        // transferring Liquidity\n        uint holdings = uniswapExchangeContract.balanceOf(address(this));\n        // emit LiquidityTokens(holdings);\n        uniswapExchangeContract.transfer(msg.sender, holdings);\n        uint residualDaiHoldings = NEW_DAI_TOKEN_ADDRESS.balanceOf(address(this));\n        NEW_DAI_TOKEN_ADDRESS.transfer(msg.sender, residualDaiHoldings);\n        // emit ResidualTokens(residualDaiHoldings);\n        emit Everything(conversionPortion, DaiReceivedAmt, non_conversionPortion, residualDaiHoldings);\n        return true;\n    }\n    \n    // incase of half-way error\n    function withdrawDAI() public onlyOwner {\n        uint StuckDaiHoldings = NEW_DAI_TOKEN_ADDRESS.balanceOf(address(this));\n        NEW_DAI_TOKEN_ADDRESS.transfer(_owner, StuckDaiHoldings);\n    }\n    \n    \n    // fx in relation to ETH held by the contract sent by the owner\n    \n    // - this function lets you deposit ETH into this wallet\n    function depositETH() payable public onlyOwner {\n        balance += msg.value;\n    }\n    \n    // - fallback function let you / anyone send ETH to this wallet without the need to call any function\n    // function() external payable {\n    //     if (msg.sender == _owner) {\n    //         depositETH();\n    //     } else {\n    //         LetsInvest();\n    //     }\n    // }\n    \n    // - to withdraw any ETH balance sitting in the contract\n    function withdraw() onlyOwner public{\n        _owner.transfer(address(this).balance);\n    }\n    \n}",
  "sourcePath": "/Users/dipeshsukhani/Desktop/Coding/DockerMounting/Python/allFolders/RemixSharedFolder/contracts/UniSwapAddLiquidity_test.sol",
  "compiler": {
    "name": "solc",
    "version": "0.5.11+commit.c082d0b4.Emscripten.clang"
  },
  "schemaVersion": "3.0.1",
  "updatedAt": "2019-12-06T05:57:31.768Z",
  "devdoc": {
    "methods": {
      "isOwner()": {
        "details": "Returns true if the caller is the current owner."
      },
      "owner()": {
        "details": "Returns the address of the current owner."
      },
      "renounceOwnership()": {
        "details": "Leaves the contract without owner. It will not be possible to call `onlyOwner` functions anymore. Can only be called by the current owner.     * NOTE: Renouncing ownership will leave the contract without an owner, thereby removing any functionality that is only available to the owner."
      },
      "transferOwnership(address)": {
        "details": "Transfers ownership of the contract to a new account (`newOwner`). Can only be called by the current owner."
      }
    }
  },
  "userdoc": {
    "methods": {}
  }
}